{
	"Project-1-Deploying-To-Testnet/contracts/BasicMath.sol": {
		"BasicMath": {
			"abi": [
				{
					"inputs": [
						{
							"internalType": "uint256",
							"name": "_a",
							"type": "uint256"
						},
						{
							"internalType": "uint256",
							"name": "_b",
							"type": "uint256"
						}
					],
					"name": "adder",
					"outputs": [
						{
							"internalType": "uint256",
							"name": "",
							"type": "uint256"
						},
						{
							"internalType": "bool",
							"name": "",
							"type": "bool"
						}
					],
					"stateMutability": "pure",
					"type": "function"
				},
				{
					"inputs": [
						{
							"internalType": "uint256",
							"name": "_a",
							"type": "uint256"
						},
						{
							"internalType": "uint256",
							"name": "_b",
							"type": "uint256"
						}
					],
					"name": "subtractor",
					"outputs": [
						{
							"internalType": "uint256",
							"name": "",
							"type": "uint256"
						},
						{
							"internalType": "bool",
							"name": "",
							"type": "bool"
						}
					],
					"stateMutability": "pure",
					"type": "function"
				}
			],
			"devdoc": {
				"kind": "dev",
				"methods": {},
				"version": 1
			},
			"evm": {
				"assembly": "    /* \"Project-1-Deploying-To-Testnet/contracts/BasicMath.sol\":270:949  contract BasicMath {... */\n  mstore(0x40, 0x80)\n  callvalue\n  dup1\n  iszero\n  tag_1\n  jumpi\n  0x00\n  dup1\n  revert\ntag_1:\n  pop\n  dataSize(sub_0)\n  dup1\n  dataOffset(sub_0)\n  0x00\n  codecopy\n  0x00\n  return\nstop\n\nsub_0: assembly {\n        /* \"Project-1-Deploying-To-Testnet/contracts/BasicMath.sol\":270:949  contract BasicMath {... */\n      mstore(0x40, 0x80)\n      callvalue\n      dup1\n      iszero\n      tag_1\n      jumpi\n      0x00\n      dup1\n      revert\n    tag_1:\n      pop\n      jumpi(tag_2, lt(calldatasize, 0x04))\n      shr(0xe0, calldataload(0x00))\n      dup1\n      0x06b034e9\n      eq\n      tag_3\n      jumpi\n      dup1\n      0x5270312a\n      eq\n      tag_4\n      jumpi\n    tag_2:\n      0x00\n      dup1\n      revert\n        /* \"Project-1-Deploying-To-Testnet/contracts/BasicMath.sol\":296:605  function adder(uint _a, uint _b) external pure returns (uint, bool) {... */\n    tag_3:\n      tag_5\n      0x04\n      dup1\n      calldatasize\n      sub\n      dup2\n      add\n      swap1\n      tag_6\n      swap2\n      swap1\n      tag_7\n      jump\t// in\n    tag_6:\n      tag_8\n      jump\t// in\n    tag_5:\n      mload(0x40)\n      tag_9\n      swap3\n      swap2\n      swap1\n      tag_10\n      jump\t// in\n    tag_9:\n      mload(0x40)\n      dup1\n      swap2\n      sub\n      swap1\n      return\n        /* \"Project-1-Deploying-To-Testnet/contracts/BasicMath.sol\":615:946  function subtractor(uint _a, uint _b) external pure returns (uint, bool) {... */\n    tag_4:\n      tag_11\n      0x04\n      dup1\n      calldatasize\n      sub\n      dup2\n      add\n      swap1\n      tag_12\n      swap2\n      swap1\n      tag_7\n      jump\t// in\n    tag_12:\n      tag_13\n      jump\t// in\n    tag_11:\n      mload(0x40)\n      tag_14\n      swap3\n      swap2\n      swap1\n      tag_10\n      jump\t// in\n    tag_14:\n      mload(0x40)\n      dup1\n      swap2\n      sub\n      swap1\n      return\n        /* \"Project-1-Deploying-To-Testnet/contracts/BasicMath.sol\":296:605  function adder(uint _a, uint _b) external pure returns (uint, bool) {... */\n    tag_8:\n        /* \"Project-1-Deploying-To-Testnet/contracts/BasicMath.sol\":352:356  uint */\n      0x00\n        /* \"Project-1-Deploying-To-Testnet/contracts/BasicMath.sol\":358:362  bool */\n      dup1\n        /* \"Project-1-Deploying-To-Testnet/contracts/BasicMath.sol\":375:385  bool error */\n      0x00\n        /* \"Project-1-Deploying-To-Testnet/contracts/BasicMath.sol\":430:438  uint sum */\n      dup1\n        /* \"Project-1-Deploying-To-Testnet/contracts/BasicMath.sol\":446:448  _b */\n      dup5\n        /* \"Project-1-Deploying-To-Testnet/contracts/BasicMath.sol\":441:443  _a */\n      dup7\n        /* \"Project-1-Deploying-To-Testnet/contracts/BasicMath.sol\":441:448  _a + _b */\n      add\n        /* \"Project-1-Deploying-To-Testnet/contracts/BasicMath.sol\":430:448  uint sum = _a + _b */\n      swap1\n      pop\n        /* \"Project-1-Deploying-To-Testnet/contracts/BasicMath.sol\":473:475  _a */\n      dup6\n        /* \"Project-1-Deploying-To-Testnet/contracts/BasicMath.sol\":467:470  sum */\n      dup2\n        /* \"Project-1-Deploying-To-Testnet/contracts/BasicMath.sol\":467:475  sum < _a */\n      lt\n        /* \"Project-1-Deploying-To-Testnet/contracts/BasicMath.sol\":467:487  sum < _a || sum < _b */\n      dup1\n      tag_16\n      jumpi\n      pop\n        /* \"Project-1-Deploying-To-Testnet/contracts/BasicMath.sol\":485:487  _b */\n      dup5\n        /* \"Project-1-Deploying-To-Testnet/contracts/BasicMath.sol\":479:482  sum */\n      dup2\n        /* \"Project-1-Deploying-To-Testnet/contracts/BasicMath.sol\":479:487  sum < _b */\n      lt\n        /* \"Project-1-Deploying-To-Testnet/contracts/BasicMath.sol\":467:487  sum < _a || sum < _b */\n    tag_16:\n        /* \"Project-1-Deploying-To-Testnet/contracts/BasicMath.sol\":464:551  if(sum < _a || sum < _b) { ... */\n      iszero\n      tag_17\n      jumpi\n        /* \"Project-1-Deploying-To-Testnet/contracts/BasicMath.sol\":517:521  true */\n      0x01\n        /* \"Project-1-Deploying-To-Testnet/contracts/BasicMath.sol\":509:521  error = true */\n      swap2\n      pop\n        /* \"Project-1-Deploying-To-Testnet/contracts/BasicMath.sol\":547:548  0 */\n      0x00\n        /* \"Project-1-Deploying-To-Testnet/contracts/BasicMath.sol\":541:548  sum = 0 */\n      swap1\n      pop\n        /* \"Project-1-Deploying-To-Testnet/contracts/BasicMath.sol\":464:551  if(sum < _a || sum < _b) { ... */\n    tag_17:\n        /* \"Project-1-Deploying-To-Testnet/contracts/BasicMath.sol\":574:577  sum */\n      dup1\n        /* \"Project-1-Deploying-To-Testnet/contracts/BasicMath.sol\":579:584  error */\n      dup3\n        /* \"Project-1-Deploying-To-Testnet/contracts/BasicMath.sol\":566:585  return (sum, error) */\n      swap4\n      pop\n      swap4\n      pop\n      pop\n      pop\n        /* \"Project-1-Deploying-To-Testnet/contracts/BasicMath.sol\":296:605  function adder(uint _a, uint _b) external pure returns (uint, bool) {... */\n      swap3\n      pop\n      swap3\n      swap1\n      pop\n      jump\t// out\n        /* \"Project-1-Deploying-To-Testnet/contracts/BasicMath.sol\":615:946  function subtractor(uint _a, uint _b) external pure returns (uint, bool) {... */\n    tag_13:\n        /* \"Project-1-Deploying-To-Testnet/contracts/BasicMath.sol\":676:680  uint */\n      0x00\n        /* \"Project-1-Deploying-To-Testnet/contracts/BasicMath.sol\":682:686  bool */\n      dup1\n        /* \"Project-1-Deploying-To-Testnet/contracts/BasicMath.sol\":699:709  bool error */\n      0x00\n        /* \"Project-1-Deploying-To-Testnet/contracts/BasicMath.sol\":754:769  uint difference */\n      dup1\n        /* \"Project-1-Deploying-To-Testnet/contracts/BasicMath.sol\":777:779  _b */\n      dup5\n        /* \"Project-1-Deploying-To-Testnet/contracts/BasicMath.sol\":772:774  _a */\n      dup7\n        /* \"Project-1-Deploying-To-Testnet/contracts/BasicMath.sol\":772:779  _a - _b */\n      sub\n        /* \"Project-1-Deploying-To-Testnet/contracts/BasicMath.sol\":754:779  uint difference = _a - _b */\n      swap1\n      pop\n        /* \"Project-1-Deploying-To-Testnet/contracts/BasicMath.sol\":810:812  _a */\n      dup6\n        /* \"Project-1-Deploying-To-Testnet/contracts/BasicMath.sol\":797:807  difference */\n      dup2\n        /* \"Project-1-Deploying-To-Testnet/contracts/BasicMath.sol\":797:812  difference > _a */\n      gt\n        /* \"Project-1-Deploying-To-Testnet/contracts/BasicMath.sol\":794:883  if(difference > _a) { ... */\n      iszero\n      tag_19\n      jumpi\n        /* \"Project-1-Deploying-To-Testnet/contracts/BasicMath.sol\":842:846  true */\n      0x01\n        /* \"Project-1-Deploying-To-Testnet/contracts/BasicMath.sol\":834:846  error = true */\n      swap2\n      pop\n        /* \"Project-1-Deploying-To-Testnet/contracts/BasicMath.sol\":879:880  0 */\n      0x00\n        /* \"Project-1-Deploying-To-Testnet/contracts/BasicMath.sol\":866:880  difference = 0 */\n      swap1\n      pop\n        /* \"Project-1-Deploying-To-Testnet/contracts/BasicMath.sol\":794:883  if(difference > _a) { ... */\n    tag_19:\n        /* \"Project-1-Deploying-To-Testnet/contracts/BasicMath.sol\":905:915  difference */\n      dup1\n        /* \"Project-1-Deploying-To-Testnet/contracts/BasicMath.sol\":917:922  error */\n      dup3\n        /* \"Project-1-Deploying-To-Testnet/contracts/BasicMath.sol\":897:923  return (difference, error) */\n      swap4\n      pop\n      swap4\n      pop\n      pop\n      pop\n        /* \"Project-1-Deploying-To-Testnet/contracts/BasicMath.sol\":615:946  function subtractor(uint _a, uint _b) external pure returns (uint, bool) {... */\n      swap3\n      pop\n      swap3\n      swap1\n      pop\n      jump\t// out\n        /* \"#utility.yul\":88:205   */\n    tag_21:\n        /* \"#utility.yul\":197:198   */\n      0x00\n        /* \"#utility.yul\":194:195   */\n      dup1\n        /* \"#utility.yul\":187:199   */\n      revert\n        /* \"#utility.yul\":334:411   */\n    tag_23:\n        /* \"#utility.yul\":371:378   */\n      0x00\n        /* \"#utility.yul\":400:405   */\n      dup2\n        /* \"#utility.yul\":389:405   */\n      swap1\n      pop\n        /* \"#utility.yul\":334:411   */\n      swap2\n      swap1\n      pop\n      jump\t// out\n        /* \"#utility.yul\":417:539   */\n    tag_24:\n        /* \"#utility.yul\":490:514   */\n      tag_35\n        /* \"#utility.yul\":508:513   */\n      dup2\n        /* \"#utility.yul\":490:514   */\n      tag_23\n      jump\t// in\n    tag_35:\n        /* \"#utility.yul\":483:488   */\n      dup2\n        /* \"#utility.yul\":480:515   */\n      eq\n        /* \"#utility.yul\":470:533   */\n      tag_36\n      jumpi\n        /* \"#utility.yul\":529:530   */\n      0x00\n        /* \"#utility.yul\":526:527   */\n      dup1\n        /* \"#utility.yul\":519:531   */\n      revert\n        /* \"#utility.yul\":470:533   */\n    tag_36:\n        /* \"#utility.yul\":417:539   */\n      pop\n      jump\t// out\n        /* \"#utility.yul\":545:684   */\n    tag_25:\n        /* \"#utility.yul\":591:596   */\n      0x00\n        /* \"#utility.yul\":629:635   */\n      dup2\n        /* \"#utility.yul\":616:636   */\n      calldataload\n        /* \"#utility.yul\":607:636   */\n      swap1\n      pop\n        /* \"#utility.yul\":645:678   */\n      tag_38\n        /* \"#utility.yul\":672:677   */\n      dup2\n        /* \"#utility.yul\":645:678   */\n      tag_24\n      jump\t// in\n    tag_38:\n        /* \"#utility.yul\":545:684   */\n      swap3\n      swap2\n      pop\n      pop\n      jump\t// out\n        /* \"#utility.yul\":690:1164   */\n    tag_7:\n        /* \"#utility.yul\":758:764   */\n      0x00\n        /* \"#utility.yul\":766:772   */\n      dup1\n        /* \"#utility.yul\":815:817   */\n      0x40\n        /* \"#utility.yul\":803:812   */\n      dup4\n        /* \"#utility.yul\":794:801   */\n      dup6\n        /* \"#utility.yul\":790:813   */\n      sub\n        /* \"#utility.yul\":786:818   */\n      slt\n        /* \"#utility.yul\":783:902   */\n      iszero\n      tag_40\n      jumpi\n        /* \"#utility.yul\":821:900   */\n      tag_41\n      tag_21\n      jump\t// in\n    tag_41:\n        /* \"#utility.yul\":783:902   */\n    tag_40:\n        /* \"#utility.yul\":941:942   */\n      0x00\n        /* \"#utility.yul\":966:1019   */\n      tag_42\n        /* \"#utility.yul\":1011:1018   */\n      dup6\n        /* \"#utility.yul\":1002:1008   */\n      dup3\n        /* \"#utility.yul\":991:1000   */\n      dup7\n        /* \"#utility.yul\":987:1009   */\n      add\n        /* \"#utility.yul\":966:1019   */\n      tag_25\n      jump\t// in\n    tag_42:\n        /* \"#utility.yul\":956:1019   */\n      swap3\n      pop\n        /* \"#utility.yul\":912:1029   */\n      pop\n        /* \"#utility.yul\":1068:1070   */\n      0x20\n        /* \"#utility.yul\":1094:1147   */\n      tag_43\n        /* \"#utility.yul\":1139:1146   */\n      dup6\n        /* \"#utility.yul\":1130:1136   */\n      dup3\n        /* \"#utility.yul\":1119:1128   */\n      dup7\n        /* \"#utility.yul\":1115:1137   */\n      add\n        /* \"#utility.yul\":1094:1147   */\n      tag_25\n      jump\t// in\n    tag_43:\n        /* \"#utility.yul\":1084:1147   */\n      swap2\n      pop\n        /* \"#utility.yul\":1039:1157   */\n      pop\n        /* \"#utility.yul\":690:1164   */\n      swap3\n      pop\n      swap3\n      swap1\n      pop\n      jump\t// out\n        /* \"#utility.yul\":1170:1288   */\n    tag_26:\n        /* \"#utility.yul\":1257:1281   */\n      tag_45\n        /* \"#utility.yul\":1275:1280   */\n      dup2\n        /* \"#utility.yul\":1257:1281   */\n      tag_23\n      jump\t// in\n    tag_45:\n        /* \"#utility.yul\":1252:1255   */\n      dup3\n        /* \"#utility.yul\":1245:1282   */\n      mstore\n        /* \"#utility.yul\":1170:1288   */\n      pop\n      pop\n      jump\t// out\n        /* \"#utility.yul\":1294:1384   */\n    tag_27:\n        /* \"#utility.yul\":1328:1335   */\n      0x00\n        /* \"#utility.yul\":1371:1376   */\n      dup2\n        /* \"#utility.yul\":1364:1377   */\n      iszero\n        /* \"#utility.yul\":1357:1378   */\n      iszero\n        /* \"#utility.yul\":1346:1378   */\n      swap1\n      pop\n        /* \"#utility.yul\":1294:1384   */\n      swap2\n      swap1\n      pop\n      jump\t// out\n        /* \"#utility.yul\":1390:1499   */\n    tag_28:\n        /* \"#utility.yul\":1471:1492   */\n      tag_48\n        /* \"#utility.yul\":1486:1491   */\n      dup2\n        /* \"#utility.yul\":1471:1492   */\n      tag_27\n      jump\t// in\n    tag_48:\n        /* \"#utility.yul\":1466:1469   */\n      dup3\n        /* \"#utility.yul\":1459:1493   */\n      mstore\n        /* \"#utility.yul\":1390:1499   */\n      pop\n      pop\n      jump\t// out\n        /* \"#utility.yul\":1505:1825   */\n    tag_10:\n        /* \"#utility.yul\":1620:1624   */\n      0x00\n        /* \"#utility.yul\":1658:1660   */\n      0x40\n        /* \"#utility.yul\":1647:1656   */\n      dup3\n        /* \"#utility.yul\":1643:1661   */\n      add\n        /* \"#utility.yul\":1635:1661   */\n      swap1\n      pop\n        /* \"#utility.yul\":1671:1742   */\n      tag_50\n        /* \"#utility.yul\":1739:1740   */\n      0x00\n        /* \"#utility.yul\":1728:1737   */\n      dup4\n        /* \"#utility.yul\":1724:1741   */\n      add\n        /* \"#utility.yul\":1715:1721   */\n      dup6\n        /* \"#utility.yul\":1671:1742   */\n      tag_26\n      jump\t// in\n    tag_50:\n        /* \"#utility.yul\":1752:1818   */\n      tag_51\n        /* \"#utility.yul\":1814:1816   */\n      0x20\n        /* \"#utility.yul\":1803:1812   */\n      dup4\n        /* \"#utility.yul\":1799:1817   */\n      add\n        /* \"#utility.yul\":1790:1796   */\n      dup5\n        /* \"#utility.yul\":1752:1818   */\n      tag_28\n      jump\t// in\n    tag_51:\n        /* \"#utility.yul\":1505:1825   */\n      swap4\n      swap3\n      pop\n      pop\n      pop\n      jump\t// out\n\n    auxdata: 0xa264697066735822122089be750dcdd5d44a85e7a79b27f457574a942ec00753966db462599ce656089964736f6c634300081a0033\n}\n",
				"bytecode": {
					"linkReferences": {},
					"object": "6080604052348015600e575f80fd5b506101ef8061001c5f395ff3fe608060405234801561000f575f80fd5b5060043610610034575f3560e01c806306b034e9146100385780635270312a14610069575b5f80fd5b610052600480360381019061004d919061012b565b61009a565b604051610060929190610192565b60405180910390f35b610083600480360381019061007e919061012b565b6100cc565b604051610091929190610192565b60405180910390f35b5f805f808486019050858110806100b057508481105b156100bd57600191505f90505b80829350935050509250929050565b5f805f808486039050858111156100e557600191505f90505b80829350935050509250929050565b5f80fd5b5f819050919050565b61010a816100f8565b8114610114575f80fd5b50565b5f8135905061012581610101565b92915050565b5f8060408385031215610141576101406100f4565b5b5f61014e85828601610117565b925050602061015f85828601610117565b9150509250929050565b610172816100f8565b82525050565b5f8115159050919050565b61018c81610178565b82525050565b5f6040820190506101a55f830185610169565b6101b26020830184610183565b939250505056fea264697066735822122089be750dcdd5d44a85e7a79b27f457574a942ec00753966db462599ce656089964736f6c634300081a0033",
					"opcodes": "PUSH1 0x80 PUSH1 0x40 MSTORE CALLVALUE DUP1 ISZERO PUSH1 0xE JUMPI PUSH0 DUP1 REVERT JUMPDEST POP PUSH2 0x1EF DUP1 PUSH2 0x1C PUSH0 CODECOPY PUSH0 RETURN INVALID PUSH1 0x80 PUSH1 0x40 MSTORE CALLVALUE DUP1 ISZERO PUSH2 0xF JUMPI PUSH0 DUP1 REVERT JUMPDEST POP PUSH1 0x4 CALLDATASIZE LT PUSH2 0x34 JUMPI PUSH0 CALLDATALOAD PUSH1 0xE0 SHR DUP1 PUSH4 0x6B034E9 EQ PUSH2 0x38 JUMPI DUP1 PUSH4 0x5270312A EQ PUSH2 0x69 JUMPI JUMPDEST PUSH0 DUP1 REVERT JUMPDEST PUSH2 0x52 PUSH1 0x4 DUP1 CALLDATASIZE SUB DUP2 ADD SWAP1 PUSH2 0x4D SWAP2 SWAP1 PUSH2 0x12B JUMP JUMPDEST PUSH2 0x9A JUMP JUMPDEST PUSH1 0x40 MLOAD PUSH2 0x60 SWAP3 SWAP2 SWAP1 PUSH2 0x192 JUMP JUMPDEST PUSH1 0x40 MLOAD DUP1 SWAP2 SUB SWAP1 RETURN JUMPDEST PUSH2 0x83 PUSH1 0x4 DUP1 CALLDATASIZE SUB DUP2 ADD SWAP1 PUSH2 0x7E SWAP2 SWAP1 PUSH2 0x12B JUMP JUMPDEST PUSH2 0xCC JUMP JUMPDEST PUSH1 0x40 MLOAD PUSH2 0x91 SWAP3 SWAP2 SWAP1 PUSH2 0x192 JUMP JUMPDEST PUSH1 0x40 MLOAD DUP1 SWAP2 SUB SWAP1 RETURN JUMPDEST PUSH0 DUP1 PUSH0 DUP1 DUP5 DUP7 ADD SWAP1 POP DUP6 DUP2 LT DUP1 PUSH2 0xB0 JUMPI POP DUP5 DUP2 LT JUMPDEST ISZERO PUSH2 0xBD JUMPI PUSH1 0x1 SWAP2 POP PUSH0 SWAP1 POP JUMPDEST DUP1 DUP3 SWAP4 POP SWAP4 POP POP POP SWAP3 POP SWAP3 SWAP1 POP JUMP JUMPDEST PUSH0 DUP1 PUSH0 DUP1 DUP5 DUP7 SUB SWAP1 POP DUP6 DUP2 GT ISZERO PUSH2 0xE5 JUMPI PUSH1 0x1 SWAP2 POP PUSH0 SWAP1 POP JUMPDEST DUP1 DUP3 SWAP4 POP SWAP4 POP POP POP SWAP3 POP SWAP3 SWAP1 POP JUMP JUMPDEST PUSH0 DUP1 REVERT JUMPDEST PUSH0 DUP2 SWAP1 POP SWAP2 SWAP1 POP JUMP JUMPDEST PUSH2 0x10A DUP2 PUSH2 0xF8 JUMP JUMPDEST DUP2 EQ PUSH2 0x114 JUMPI PUSH0 DUP1 REVERT JUMPDEST POP JUMP JUMPDEST PUSH0 DUP2 CALLDATALOAD SWAP1 POP PUSH2 0x125 DUP2 PUSH2 0x101 JUMP JUMPDEST SWAP3 SWAP2 POP POP JUMP JUMPDEST PUSH0 DUP1 PUSH1 0x40 DUP4 DUP6 SUB SLT ISZERO PUSH2 0x141 JUMPI PUSH2 0x140 PUSH2 0xF4 JUMP JUMPDEST JUMPDEST PUSH0 PUSH2 0x14E DUP6 DUP3 DUP7 ADD PUSH2 0x117 JUMP JUMPDEST SWAP3 POP POP PUSH1 0x20 PUSH2 0x15F DUP6 DUP3 DUP7 ADD PUSH2 0x117 JUMP JUMPDEST SWAP2 POP POP SWAP3 POP SWAP3 SWAP1 POP JUMP JUMPDEST PUSH2 0x172 DUP2 PUSH2 0xF8 JUMP JUMPDEST DUP3 MSTORE POP POP JUMP JUMPDEST PUSH0 DUP2 ISZERO ISZERO SWAP1 POP SWAP2 SWAP1 POP JUMP JUMPDEST PUSH2 0x18C DUP2 PUSH2 0x178 JUMP JUMPDEST DUP3 MSTORE POP POP JUMP JUMPDEST PUSH0 PUSH1 0x40 DUP3 ADD SWAP1 POP PUSH2 0x1A5 PUSH0 DUP4 ADD DUP6 PUSH2 0x169 JUMP JUMPDEST PUSH2 0x1B2 PUSH1 0x20 DUP4 ADD DUP5 PUSH2 0x183 JUMP JUMPDEST SWAP4 SWAP3 POP POP POP JUMP INVALID LOG2 PUSH5 0x6970667358 0x22 SLT KECCAK256 DUP10 0xBE PUSH22 0xDCDD5D44A85E7A79B27F457574A942EC00753966DB4 PUSH3 0x599CE6 JUMP ADDMOD SWAP10 PUSH5 0x736F6C6343 STOP ADDMOD BYTE STOP CALLER "
				},
				"gasEstimates": {
					"creation": {
						"codeDepositCost": "99000",
						"executionCost": "145",
						"totalCost": "99145"
					},
					"external": {
						"adder(uint256,uint256)": "infinite",
						"subtractor(uint256,uint256)": "infinite"
					}
				},
				"methodIdentifiers": {
					"adder(uint256,uint256)": "06b034e9",
					"subtractor(uint256,uint256)": "5270312a"
				}
			},
			"storageLayout": {
				"storage": [],
				"types": null
			},
			"userdoc": {
				"kind": "user",
				"methods": {},
				"version": 1
			}
		}
	}
}