{
	"data": {
		"bytecode": {
			"linkReferences": {},
			"object": "608060405234801561000f575f80fd5b50604051610cdb380380610cdb8339818101604052810190610031919061027d565b835f908161003f9190610501565b508260015f6101000a81548161ffff021916908361ffff16021790555081600160026101000a81548163ffffffff021916908363ffffffff16021790555080600281905550505050506105d0565b5f604051905090565b5f80fd5b5f80fd5b5f80fd5b5f80fd5b5f601f19601f8301169050919050565b7f4e487b71000000000000000000000000000000000000000000000000000000005f52604160045260245ffd5b6100ec826100a6565b810181811067ffffffffffffffff8211171561010b5761010a6100b6565b5b80604052505050565b5f61011d61008d565b905061012982826100e3565b919050565b5f67ffffffffffffffff821115610148576101476100b6565b5b610151826100a6565b9050602081019050919050565b8281835e5f83830152505050565b5f61017e6101798461012e565b610114565b90508281526020810184848401111561019a576101996100a2565b5b6101a584828561015e565b509392505050565b5f82601f8301126101c1576101c061009e565b5b81516101d184826020860161016c565b91505092915050565b5f61ffff82169050919050565b6101f0816101da565b81146101fa575f80fd5b50565b5f8151905061020b816101e7565b92915050565b5f63ffffffff82169050919050565b61022981610211565b8114610233575f80fd5b50565b5f8151905061024481610220565b92915050565b5f819050919050565b61025c8161024a565b8114610266575f80fd5b50565b5f8151905061027781610253565b92915050565b5f805f806080858703121561029557610294610096565b5b5f85015167ffffffffffffffff8111156102b2576102b161009a565b5b6102be878288016101ad565b94505060206102cf878288016101fd565b93505060406102e087828801610236565b92505060606102f187828801610269565b91505092959194509250565b5f81519050919050565b7f4e487b71000000000000000000000000000000000000000000000000000000005f52602260045260245ffd5b5f600282049050600182168061034b57607f821691505b60208210810361035e5761035d610307565b5b50919050565b5f819050815f5260205f209050919050565b5f6020601f8301049050919050565b5f82821b905092915050565b5f600883026103c07fffffffffffffffffffffffffffffffffffffffffffffffffffffffffffffffff82610385565b6103ca8683610385565b95508019841693508086168417925050509392505050565b5f819050919050565b5f6104056104006103fb8461024a565b6103e2565b61024a565b9050919050565b5f819050919050565b61041e836103eb565b61043261042a8261040c565b848454610391565b825550505050565b5f90565b61044661043a565b610451818484610415565b505050565b5b81811015610474576104695f8261043e565b600181019050610457565b5050565b601f8211156104b95761048a81610364565b61049384610376565b810160208510156104a2578190505b6104b66104ae85610376565b830182610456565b50505b505050565b5f82821c905092915050565b5f6104d95f19846008026104be565b1980831691505092915050565b5f6104f183836104ca565b9150826002028217905092915050565b61050a826102fd565b67ffffffffffffffff811115610523576105226100b6565b5b61052d8254610334565b610538828285610478565b5f60209050601f831160018114610569575f8415610557578287015190505b61056185826104e6565b8655506105c8565b601f19841661057786610364565b5f5b8281101561059e57848901518255600182019150602085019450602081019050610579565b868310156105bb57848901516105b7601f8916826104ca565b8355505b6001600288020188555050505b505050505050565b6106fe806105dd5f395ff3fe608060405234801561000f575f80fd5b506004361061007b575f3560e01c80634c764809116100595780634c764809146100d957806352c98689146100e35780636d45e2a5146101135780638f6a861a146101315761007b565b806306fdde031461007f5780633f83ea3b1461009d57806349574402146100bb575b5f80fd5b610087610161565b60405161009491906103e4565b60405180910390f35b6100a56101ec565b6040516100b2919061041c565b60405180910390f35b6100c36101f2565b6040516100d09190610453565b60405180910390f35b6100e161020b565b005b6100fd60048036038101906100f891906104a7565b61022b565b60405161010a91906103e4565b60405180910390f35b61011b610354565b60405161012891906104e1565b60405180910390f35b61014b60048036038101906101469190610524565b61036a565b604051610158919061041c565b60405180910390f35b5f805461016d9061057c565b80601f01602080910402602001604051908101604052809291908181526020018280546101999061057c565b80156101e45780601f106101bb576101008083540402835291602001916101e4565b820191905f5260205f20905b8154815290600101906020018083116101c757829003601f168201915b505050505081565b60025481565b5f600160029054906101000a900463ffffffff16905090565b6103e860015f6101000a81548161ffff021916908361ffff160217905550565b60606113888261ffff161115610276576040517f08c379a000000000000000000000000000000000000000000000000000000000815260040161026d906105f6565b60405180910390fd5b8160015f8282829054906101000a900461ffff166102949190610641565b92506101000a81548161ffff021916908361ffff16021790555061138860015f9054906101000a900461ffff1661ffff1611156103175760015f9054906101000a900461ffff166040517f0f7d410900000000000000000000000000000000000000000000000000000000815260040161030e91906106af565b60405180910390fd5b6040518060400160405280601981526020017f4e65772073686172652062616c616e6365206772616e746564000000000000008152509050919050565b5f60015f9054906101000a900461ffff16905090565b5f81549050919050565b5f81519050919050565b5f82825260208201905092915050565b8281835e5f83830152505050565b5f601f19601f8301169050919050565b5f6103b682610374565b6103c0818561037e565b93506103d081856020860161038e565b6103d98161039c565b840191505092915050565b5f6020820190508181035f8301526103fc81846103ac565b905092915050565b5f819050919050565b61041681610404565b82525050565b5f60208201905061042f5f83018461040d565b92915050565b5f63ffffffff82169050919050565b61044d81610435565b82525050565b5f6020820190506104665f830184610444565b92915050565b5f80fd5b5f61ffff82169050919050565b61048681610470565b8114610490575f80fd5b50565b5f813590506104a18161047d565b92915050565b5f602082840312156104bc576104bb61046c565b5b5f6104c984828501610493565b91505092915050565b6104db81610470565b82525050565b5f6020820190506104f45f8301846104d2565b92915050565b61050381610404565b811461050d575f80fd5b50565b5f8135905061051e816104fa565b92915050565b5f602082840312156105395761053861046c565b5b5f61054684828501610510565b91505092915050565b7f4e487b71000000000000000000000000000000000000000000000000000000005f52602260045260245ffd5b5f600282049050600182168061059357607f821691505b6020821081036105a6576105a561054f565b5b50919050565b7f546f6f206d616e792073686172657300000000000000000000000000000000005f82015250565b5f6105e0600f8361037e565b91506105eb826105ac565b602082019050919050565b5f6020820190508181035f83015261060d816105d4565b9050919050565b7f4e487b71000000000000000000000000000000000000000000000000000000005f52601160045260245ffd5b5f61064b82610470565b915061065683610470565b9250828201905061ffff8111156106705761066f610614565b5b92915050565b5f819050919050565b5f61069961069461068f84610470565b610676565b610404565b9050919050565b6106a98161067f565b82525050565b5f6020820190506106c25f8301846106a0565b9291505056fea2646970667358221220fdc377a3e23dbcec6e74a56e45a7107b81a9cc31cff30b4ed2cf672d690b84df64736f6c634300081a0033",
			"opcodes": "PUSH1 0x80 PUSH1 0x40 MSTORE CALLVALUE DUP1 ISZERO PUSH2 0xF JUMPI PUSH0 DUP1 REVERT JUMPDEST POP PUSH1 0x40 MLOAD PUSH2 0xCDB CODESIZE SUB DUP1 PUSH2 0xCDB DUP4 CODECOPY DUP2 DUP2 ADD PUSH1 0x40 MSTORE DUP2 ADD SWAP1 PUSH2 0x31 SWAP2 SWAP1 PUSH2 0x27D JUMP JUMPDEST DUP4 PUSH0 SWAP1 DUP2 PUSH2 0x3F SWAP2 SWAP1 PUSH2 0x501 JUMP JUMPDEST POP DUP3 PUSH1 0x1 PUSH0 PUSH2 0x100 EXP DUP2 SLOAD DUP2 PUSH2 0xFFFF MUL NOT AND SWAP1 DUP4 PUSH2 0xFFFF AND MUL OR SWAP1 SSTORE POP DUP2 PUSH1 0x1 PUSH1 0x2 PUSH2 0x100 EXP DUP2 SLOAD DUP2 PUSH4 0xFFFFFFFF MUL NOT AND SWAP1 DUP4 PUSH4 0xFFFFFFFF AND MUL OR SWAP1 SSTORE POP DUP1 PUSH1 0x2 DUP2 SWAP1 SSTORE POP POP POP POP POP PUSH2 0x5D0 JUMP JUMPDEST PUSH0 PUSH1 0x40 MLOAD SWAP1 POP SWAP1 JUMP JUMPDEST PUSH0 DUP1 REVERT JUMPDEST PUSH0 DUP1 REVERT JUMPDEST PUSH0 DUP1 REVERT JUMPDEST PUSH0 DUP1 REVERT JUMPDEST PUSH0 PUSH1 0x1F NOT PUSH1 0x1F DUP4 ADD AND SWAP1 POP SWAP2 SWAP1 POP JUMP JUMPDEST PUSH32 0x4E487B7100000000000000000000000000000000000000000000000000000000 PUSH0 MSTORE PUSH1 0x41 PUSH1 0x4 MSTORE PUSH1 0x24 PUSH0 REVERT JUMPDEST PUSH2 0xEC DUP3 PUSH2 0xA6 JUMP JUMPDEST DUP2 ADD DUP2 DUP2 LT PUSH8 0xFFFFFFFFFFFFFFFF DUP3 GT OR ISZERO PUSH2 0x10B JUMPI PUSH2 0x10A PUSH2 0xB6 JUMP JUMPDEST JUMPDEST DUP1 PUSH1 0x40 MSTORE POP POP POP JUMP JUMPDEST PUSH0 PUSH2 0x11D PUSH2 0x8D JUMP JUMPDEST SWAP1 POP PUSH2 0x129 DUP3 DUP3 PUSH2 0xE3 JUMP JUMPDEST SWAP2 SWAP1 POP JUMP JUMPDEST PUSH0 PUSH8 0xFFFFFFFFFFFFFFFF DUP3 GT ISZERO PUSH2 0x148 JUMPI PUSH2 0x147 PUSH2 0xB6 JUMP JUMPDEST JUMPDEST PUSH2 0x151 DUP3 PUSH2 0xA6 JUMP JUMPDEST SWAP1 POP PUSH1 0x20 DUP2 ADD SWAP1 POP SWAP2 SWAP1 POP JUMP JUMPDEST DUP3 DUP2 DUP4 MCOPY PUSH0 DUP4 DUP4 ADD MSTORE POP POP POP JUMP JUMPDEST PUSH0 PUSH2 0x17E PUSH2 0x179 DUP5 PUSH2 0x12E JUMP JUMPDEST PUSH2 0x114 JUMP JUMPDEST SWAP1 POP DUP3 DUP2 MSTORE PUSH1 0x20 DUP2 ADD DUP5 DUP5 DUP5 ADD GT ISZERO PUSH2 0x19A JUMPI PUSH2 0x199 PUSH2 0xA2 JUMP JUMPDEST JUMPDEST PUSH2 0x1A5 DUP5 DUP3 DUP6 PUSH2 0x15E JUMP JUMPDEST POP SWAP4 SWAP3 POP POP POP JUMP JUMPDEST PUSH0 DUP3 PUSH1 0x1F DUP4 ADD SLT PUSH2 0x1C1 JUMPI PUSH2 0x1C0 PUSH2 0x9E JUMP JUMPDEST JUMPDEST DUP2 MLOAD PUSH2 0x1D1 DUP5 DUP3 PUSH1 0x20 DUP7 ADD PUSH2 0x16C JUMP JUMPDEST SWAP2 POP POP SWAP3 SWAP2 POP POP JUMP JUMPDEST PUSH0 PUSH2 0xFFFF DUP3 AND SWAP1 POP SWAP2 SWAP1 POP JUMP JUMPDEST PUSH2 0x1F0 DUP2 PUSH2 0x1DA JUMP JUMPDEST DUP2 EQ PUSH2 0x1FA JUMPI PUSH0 DUP1 REVERT JUMPDEST POP JUMP JUMPDEST PUSH0 DUP2 MLOAD SWAP1 POP PUSH2 0x20B DUP2 PUSH2 0x1E7 JUMP JUMPDEST SWAP3 SWAP2 POP POP JUMP JUMPDEST PUSH0 PUSH4 0xFFFFFFFF DUP3 AND SWAP1 POP SWAP2 SWAP1 POP JUMP JUMPDEST PUSH2 0x229 DUP2 PUSH2 0x211 JUMP JUMPDEST DUP2 EQ PUSH2 0x233 JUMPI PUSH0 DUP1 REVERT JUMPDEST POP JUMP JUMPDEST PUSH0 DUP2 MLOAD SWAP1 POP PUSH2 0x244 DUP2 PUSH2 0x220 JUMP JUMPDEST SWAP3 SWAP2 POP POP JUMP JUMPDEST PUSH0 DUP2 SWAP1 POP SWAP2 SWAP1 POP JUMP JUMPDEST PUSH2 0x25C DUP2 PUSH2 0x24A JUMP JUMPDEST DUP2 EQ PUSH2 0x266 JUMPI PUSH0 DUP1 REVERT JUMPDEST POP JUMP JUMPDEST PUSH0 DUP2 MLOAD SWAP1 POP PUSH2 0x277 DUP2 PUSH2 0x253 JUMP JUMPDEST SWAP3 SWAP2 POP POP JUMP JUMPDEST PUSH0 DUP1 PUSH0 DUP1 PUSH1 0x80 DUP6 DUP8 SUB SLT ISZERO PUSH2 0x295 JUMPI PUSH2 0x294 PUSH2 0x96 JUMP JUMPDEST JUMPDEST PUSH0 DUP6 ADD MLOAD PUSH8 0xFFFFFFFFFFFFFFFF DUP2 GT ISZERO PUSH2 0x2B2 JUMPI PUSH2 0x2B1 PUSH2 0x9A JUMP JUMPDEST JUMPDEST PUSH2 0x2BE DUP8 DUP3 DUP9 ADD PUSH2 0x1AD JUMP JUMPDEST SWAP5 POP POP PUSH1 0x20 PUSH2 0x2CF DUP8 DUP3 DUP9 ADD PUSH2 0x1FD JUMP JUMPDEST SWAP4 POP POP PUSH1 0x40 PUSH2 0x2E0 DUP8 DUP3 DUP9 ADD PUSH2 0x236 JUMP JUMPDEST SWAP3 POP POP PUSH1 0x60 PUSH2 0x2F1 DUP8 DUP3 DUP9 ADD PUSH2 0x269 JUMP JUMPDEST SWAP2 POP POP SWAP3 SWAP6 SWAP2 SWAP5 POP SWAP3 POP JUMP JUMPDEST PUSH0 DUP2 MLOAD SWAP1 POP SWAP2 SWAP1 POP JUMP JUMPDEST PUSH32 0x4E487B7100000000000000000000000000000000000000000000000000000000 PUSH0 MSTORE PUSH1 0x22 PUSH1 0x4 MSTORE PUSH1 0x24 PUSH0 REVERT JUMPDEST PUSH0 PUSH1 0x2 DUP3 DIV SWAP1 POP PUSH1 0x1 DUP3 AND DUP1 PUSH2 0x34B JUMPI PUSH1 0x7F DUP3 AND SWAP2 POP JUMPDEST PUSH1 0x20 DUP3 LT DUP2 SUB PUSH2 0x35E JUMPI PUSH2 0x35D PUSH2 0x307 JUMP JUMPDEST JUMPDEST POP SWAP2 SWAP1 POP JUMP JUMPDEST PUSH0 DUP2 SWAP1 POP DUP2 PUSH0 MSTORE PUSH1 0x20 PUSH0 KECCAK256 SWAP1 POP SWAP2 SWAP1 POP JUMP JUMPDEST PUSH0 PUSH1 0x20 PUSH1 0x1F DUP4 ADD DIV SWAP1 POP SWAP2 SWAP1 POP JUMP JUMPDEST PUSH0 DUP3 DUP3 SHL SWAP1 POP SWAP3 SWAP2 POP POP JUMP JUMPDEST PUSH0 PUSH1 0x8 DUP4 MUL PUSH2 0x3C0 PUSH32 0xFFFFFFFFFFFFFFFFFFFFFFFFFFFFFFFFFFFFFFFFFFFFFFFFFFFFFFFFFFFFFFFF DUP3 PUSH2 0x385 JUMP JUMPDEST PUSH2 0x3CA DUP7 DUP4 PUSH2 0x385 JUMP JUMPDEST SWAP6 POP DUP1 NOT DUP5 AND SWAP4 POP DUP1 DUP7 AND DUP5 OR SWAP3 POP POP POP SWAP4 SWAP3 POP POP POP JUMP JUMPDEST PUSH0 DUP2 SWAP1 POP SWAP2 SWAP1 POP JUMP JUMPDEST PUSH0 PUSH2 0x405 PUSH2 0x400 PUSH2 0x3FB DUP5 PUSH2 0x24A JUMP JUMPDEST PUSH2 0x3E2 JUMP JUMPDEST PUSH2 0x24A JUMP JUMPDEST SWAP1 POP SWAP2 SWAP1 POP JUMP JUMPDEST PUSH0 DUP2 SWAP1 POP SWAP2 SWAP1 POP JUMP JUMPDEST PUSH2 0x41E DUP4 PUSH2 0x3EB JUMP JUMPDEST PUSH2 0x432 PUSH2 0x42A DUP3 PUSH2 0x40C JUMP JUMPDEST DUP5 DUP5 SLOAD PUSH2 0x391 JUMP JUMPDEST DUP3 SSTORE POP POP POP POP JUMP JUMPDEST PUSH0 SWAP1 JUMP JUMPDEST PUSH2 0x446 PUSH2 0x43A JUMP JUMPDEST PUSH2 0x451 DUP2 DUP5 DUP5 PUSH2 0x415 JUMP JUMPDEST POP POP POP JUMP JUMPDEST JUMPDEST DUP2 DUP2 LT ISZERO PUSH2 0x474 JUMPI PUSH2 0x469 PUSH0 DUP3 PUSH2 0x43E JUMP JUMPDEST PUSH1 0x1 DUP2 ADD SWAP1 POP PUSH2 0x457 JUMP JUMPDEST POP POP JUMP JUMPDEST PUSH1 0x1F DUP3 GT ISZERO PUSH2 0x4B9 JUMPI PUSH2 0x48A DUP2 PUSH2 0x364 JUMP JUMPDEST PUSH2 0x493 DUP5 PUSH2 0x376 JUMP JUMPDEST DUP2 ADD PUSH1 0x20 DUP6 LT ISZERO PUSH2 0x4A2 JUMPI DUP2 SWAP1 POP JUMPDEST PUSH2 0x4B6 PUSH2 0x4AE DUP6 PUSH2 0x376 JUMP JUMPDEST DUP4 ADD DUP3 PUSH2 0x456 JUMP JUMPDEST POP POP JUMPDEST POP POP POP JUMP JUMPDEST PUSH0 DUP3 DUP3 SHR SWAP1 POP SWAP3 SWAP2 POP POP JUMP JUMPDEST PUSH0 PUSH2 0x4D9 PUSH0 NOT DUP5 PUSH1 0x8 MUL PUSH2 0x4BE JUMP JUMPDEST NOT DUP1 DUP4 AND SWAP2 POP POP SWAP3 SWAP2 POP POP JUMP JUMPDEST PUSH0 PUSH2 0x4F1 DUP4 DUP4 PUSH2 0x4CA JUMP JUMPDEST SWAP2 POP DUP3 PUSH1 0x2 MUL DUP3 OR SWAP1 POP SWAP3 SWAP2 POP POP JUMP JUMPDEST PUSH2 0x50A DUP3 PUSH2 0x2FD JUMP JUMPDEST PUSH8 0xFFFFFFFFFFFFFFFF DUP2 GT ISZERO PUSH2 0x523 JUMPI PUSH2 0x522 PUSH2 0xB6 JUMP JUMPDEST JUMPDEST PUSH2 0x52D DUP3 SLOAD PUSH2 0x334 JUMP JUMPDEST PUSH2 0x538 DUP3 DUP3 DUP6 PUSH2 0x478 JUMP JUMPDEST PUSH0 PUSH1 0x20 SWAP1 POP PUSH1 0x1F DUP4 GT PUSH1 0x1 DUP2 EQ PUSH2 0x569 JUMPI PUSH0 DUP5 ISZERO PUSH2 0x557 JUMPI DUP3 DUP8 ADD MLOAD SWAP1 POP JUMPDEST PUSH2 0x561 DUP6 DUP3 PUSH2 0x4E6 JUMP JUMPDEST DUP7 SSTORE POP PUSH2 0x5C8 JUMP JUMPDEST PUSH1 0x1F NOT DUP5 AND PUSH2 0x577 DUP7 PUSH2 0x364 JUMP JUMPDEST PUSH0 JUMPDEST DUP3 DUP2 LT ISZERO PUSH2 0x59E JUMPI DUP5 DUP10 ADD MLOAD DUP3 SSTORE PUSH1 0x1 DUP3 ADD SWAP2 POP PUSH1 0x20 DUP6 ADD SWAP5 POP PUSH1 0x20 DUP2 ADD SWAP1 POP PUSH2 0x579 JUMP JUMPDEST DUP7 DUP4 LT ISZERO PUSH2 0x5BB JUMPI DUP5 DUP10 ADD MLOAD PUSH2 0x5B7 PUSH1 0x1F DUP10 AND DUP3 PUSH2 0x4CA JUMP JUMPDEST DUP4 SSTORE POP JUMPDEST PUSH1 0x1 PUSH1 0x2 DUP9 MUL ADD DUP9 SSTORE POP POP POP JUMPDEST POP POP POP POP POP POP JUMP JUMPDEST PUSH2 0x6FE DUP1 PUSH2 0x5DD PUSH0 CODECOPY PUSH0 RETURN INVALID PUSH1 0x80 PUSH1 0x40 MSTORE CALLVALUE DUP1 ISZERO PUSH2 0xF JUMPI PUSH0 DUP1 REVERT JUMPDEST POP PUSH1 0x4 CALLDATASIZE LT PUSH2 0x7B JUMPI PUSH0 CALLDATALOAD PUSH1 0xE0 SHR DUP1 PUSH4 0x4C764809 GT PUSH2 0x59 JUMPI DUP1 PUSH4 0x4C764809 EQ PUSH2 0xD9 JUMPI DUP1 PUSH4 0x52C98689 EQ PUSH2 0xE3 JUMPI DUP1 PUSH4 0x6D45E2A5 EQ PUSH2 0x113 JUMPI DUP1 PUSH4 0x8F6A861A EQ PUSH2 0x131 JUMPI PUSH2 0x7B JUMP JUMPDEST DUP1 PUSH4 0x6FDDE03 EQ PUSH2 0x7F JUMPI DUP1 PUSH4 0x3F83EA3B EQ PUSH2 0x9D JUMPI DUP1 PUSH4 0x49574402 EQ PUSH2 0xBB JUMPI JUMPDEST PUSH0 DUP1 REVERT JUMPDEST PUSH2 0x87 PUSH2 0x161 JUMP JUMPDEST PUSH1 0x40 MLOAD PUSH2 0x94 SWAP2 SWAP1 PUSH2 0x3E4 JUMP JUMPDEST PUSH1 0x40 MLOAD DUP1 SWAP2 SUB SWAP1 RETURN JUMPDEST PUSH2 0xA5 PUSH2 0x1EC JUMP JUMPDEST PUSH1 0x40 MLOAD PUSH2 0xB2 SWAP2 SWAP1 PUSH2 0x41C JUMP JUMPDEST PUSH1 0x40 MLOAD DUP1 SWAP2 SUB SWAP1 RETURN JUMPDEST PUSH2 0xC3 PUSH2 0x1F2 JUMP JUMPDEST PUSH1 0x40 MLOAD PUSH2 0xD0 SWAP2 SWAP1 PUSH2 0x453 JUMP JUMPDEST PUSH1 0x40 MLOAD DUP1 SWAP2 SUB SWAP1 RETURN JUMPDEST PUSH2 0xE1 PUSH2 0x20B JUMP JUMPDEST STOP JUMPDEST PUSH2 0xFD PUSH1 0x4 DUP1 CALLDATASIZE SUB DUP2 ADD SWAP1 PUSH2 0xF8 SWAP2 SWAP1 PUSH2 0x4A7 JUMP JUMPDEST PUSH2 0x22B JUMP JUMPDEST PUSH1 0x40 MLOAD PUSH2 0x10A SWAP2 SWAP1 PUSH2 0x3E4 JUMP JUMPDEST PUSH1 0x40 MLOAD DUP1 SWAP2 SUB SWAP1 RETURN JUMPDEST PUSH2 0x11B PUSH2 0x354 JUMP JUMPDEST PUSH1 0x40 MLOAD PUSH2 0x128 SWAP2 SWAP1 PUSH2 0x4E1 JUMP JUMPDEST PUSH1 0x40 MLOAD DUP1 SWAP2 SUB SWAP1 RETURN JUMPDEST PUSH2 0x14B PUSH1 0x4 DUP1 CALLDATASIZE SUB DUP2 ADD SWAP1 PUSH2 0x146 SWAP2 SWAP1 PUSH2 0x524 JUMP JUMPDEST PUSH2 0x36A JUMP JUMPDEST PUSH1 0x40 MLOAD PUSH2 0x158 SWAP2 SWAP1 PUSH2 0x41C JUMP JUMPDEST PUSH1 0x40 MLOAD DUP1 SWAP2 SUB SWAP1 RETURN JUMPDEST PUSH0 DUP1 SLOAD PUSH2 0x16D SWAP1 PUSH2 0x57C JUMP JUMPDEST DUP1 PUSH1 0x1F ADD PUSH1 0x20 DUP1 SWAP2 DIV MUL PUSH1 0x20 ADD PUSH1 0x40 MLOAD SWAP1 DUP2 ADD PUSH1 0x40 MSTORE DUP1 SWAP3 SWAP2 SWAP1 DUP2 DUP2 MSTORE PUSH1 0x20 ADD DUP3 DUP1 SLOAD PUSH2 0x199 SWAP1 PUSH2 0x57C JUMP JUMPDEST DUP1 ISZERO PUSH2 0x1E4 JUMPI DUP1 PUSH1 0x1F LT PUSH2 0x1BB JUMPI PUSH2 0x100 DUP1 DUP4 SLOAD DIV MUL DUP4 MSTORE SWAP2 PUSH1 0x20 ADD SWAP2 PUSH2 0x1E4 JUMP JUMPDEST DUP3 ADD SWAP2 SWAP1 PUSH0 MSTORE PUSH1 0x20 PUSH0 KECCAK256 SWAP1 JUMPDEST DUP2 SLOAD DUP2 MSTORE SWAP1 PUSH1 0x1 ADD SWAP1 PUSH1 0x20 ADD DUP1 DUP4 GT PUSH2 0x1C7 JUMPI DUP3 SWAP1 SUB PUSH1 0x1F AND DUP3 ADD SWAP2 JUMPDEST POP POP POP POP POP DUP2 JUMP JUMPDEST PUSH1 0x2 SLOAD DUP2 JUMP JUMPDEST PUSH0 PUSH1 0x1 PUSH1 0x2 SWAP1 SLOAD SWAP1 PUSH2 0x100 EXP SWAP1 DIV PUSH4 0xFFFFFFFF AND SWAP1 POP SWAP1 JUMP JUMPDEST PUSH2 0x3E8 PUSH1 0x1 PUSH0 PUSH2 0x100 EXP DUP2 SLOAD DUP2 PUSH2 0xFFFF MUL NOT AND SWAP1 DUP4 PUSH2 0xFFFF AND MUL OR SWAP1 SSTORE POP JUMP JUMPDEST PUSH1 0x60 PUSH2 0x1388 DUP3 PUSH2 0xFFFF AND GT ISZERO PUSH2 0x276 JUMPI PUSH1 0x40 MLOAD PUSH32 0x8C379A000000000000000000000000000000000000000000000000000000000 DUP2 MSTORE PUSH1 0x4 ADD PUSH2 0x26D SWAP1 PUSH2 0x5F6 JUMP JUMPDEST PUSH1 0x40 MLOAD DUP1 SWAP2 SUB SWAP1 REVERT JUMPDEST DUP2 PUSH1 0x1 PUSH0 DUP3 DUP3 DUP3 SWAP1 SLOAD SWAP1 PUSH2 0x100 EXP SWAP1 DIV PUSH2 0xFFFF AND PUSH2 0x294 SWAP2 SWAP1 PUSH2 0x641 JUMP JUMPDEST SWAP3 POP PUSH2 0x100 EXP DUP2 SLOAD DUP2 PUSH2 0xFFFF MUL NOT AND SWAP1 DUP4 PUSH2 0xFFFF AND MUL OR SWAP1 SSTORE POP PUSH2 0x1388 PUSH1 0x1 PUSH0 SWAP1 SLOAD SWAP1 PUSH2 0x100 EXP SWAP1 DIV PUSH2 0xFFFF AND PUSH2 0xFFFF AND GT ISZERO PUSH2 0x317 JUMPI PUSH1 0x1 PUSH0 SWAP1 SLOAD SWAP1 PUSH2 0x100 EXP SWAP1 DIV PUSH2 0xFFFF AND PUSH1 0x40 MLOAD PUSH32 0xF7D410900000000000000000000000000000000000000000000000000000000 DUP2 MSTORE PUSH1 0x4 ADD PUSH2 0x30E SWAP2 SWAP1 PUSH2 0x6AF JUMP JUMPDEST PUSH1 0x40 MLOAD DUP1 SWAP2 SUB SWAP1 REVERT JUMPDEST PUSH1 0x40 MLOAD DUP1 PUSH1 0x40 ADD PUSH1 0x40 MSTORE DUP1 PUSH1 0x19 DUP2 MSTORE PUSH1 0x20 ADD PUSH32 0x4E65772073686172652062616C616E6365206772616E74656400000000000000 DUP2 MSTORE POP SWAP1 POP SWAP2 SWAP1 POP JUMP JUMPDEST PUSH0 PUSH1 0x1 PUSH0 SWAP1 SLOAD SWAP1 PUSH2 0x100 EXP SWAP1 DIV PUSH2 0xFFFF AND SWAP1 POP SWAP1 JUMP JUMPDEST PUSH0 DUP2 SLOAD SWAP1 POP SWAP2 SWAP1 POP JUMP JUMPDEST PUSH0 DUP2 MLOAD SWAP1 POP SWAP2 SWAP1 POP JUMP JUMPDEST PUSH0 DUP3 DUP3 MSTORE PUSH1 0x20 DUP3 ADD SWAP1 POP SWAP3 SWAP2 POP POP JUMP JUMPDEST DUP3 DUP2 DUP4 MCOPY PUSH0 DUP4 DUP4 ADD MSTORE POP POP POP JUMP JUMPDEST PUSH0 PUSH1 0x1F NOT PUSH1 0x1F DUP4 ADD AND SWAP1 POP SWAP2 SWAP1 POP JUMP JUMPDEST PUSH0 PUSH2 0x3B6 DUP3 PUSH2 0x374 JUMP JUMPDEST PUSH2 0x3C0 DUP2 DUP6 PUSH2 0x37E JUMP JUMPDEST SWAP4 POP PUSH2 0x3D0 DUP2 DUP6 PUSH1 0x20 DUP7 ADD PUSH2 0x38E JUMP JUMPDEST PUSH2 0x3D9 DUP2 PUSH2 0x39C JUMP JUMPDEST DUP5 ADD SWAP2 POP POP SWAP3 SWAP2 POP POP JUMP JUMPDEST PUSH0 PUSH1 0x20 DUP3 ADD SWAP1 POP DUP2 DUP2 SUB PUSH0 DUP4 ADD MSTORE PUSH2 0x3FC DUP2 DUP5 PUSH2 0x3AC JUMP JUMPDEST SWAP1 POP SWAP3 SWAP2 POP POP JUMP JUMPDEST PUSH0 DUP2 SWAP1 POP SWAP2 SWAP1 POP JUMP JUMPDEST PUSH2 0x416 DUP2 PUSH2 0x404 JUMP JUMPDEST DUP3 MSTORE POP POP JUMP JUMPDEST PUSH0 PUSH1 0x20 DUP3 ADD SWAP1 POP PUSH2 0x42F PUSH0 DUP4 ADD DUP5 PUSH2 0x40D JUMP JUMPDEST SWAP3 SWAP2 POP POP JUMP JUMPDEST PUSH0 PUSH4 0xFFFFFFFF DUP3 AND SWAP1 POP SWAP2 SWAP1 POP JUMP JUMPDEST PUSH2 0x44D DUP2 PUSH2 0x435 JUMP JUMPDEST DUP3 MSTORE POP POP JUMP JUMPDEST PUSH0 PUSH1 0x20 DUP3 ADD SWAP1 POP PUSH2 0x466 PUSH0 DUP4 ADD DUP5 PUSH2 0x444 JUMP JUMPDEST SWAP3 SWAP2 POP POP JUMP JUMPDEST PUSH0 DUP1 REVERT JUMPDEST PUSH0 PUSH2 0xFFFF DUP3 AND SWAP1 POP SWAP2 SWAP1 POP JUMP JUMPDEST PUSH2 0x486 DUP2 PUSH2 0x470 JUMP JUMPDEST DUP2 EQ PUSH2 0x490 JUMPI PUSH0 DUP1 REVERT JUMPDEST POP JUMP JUMPDEST PUSH0 DUP2 CALLDATALOAD SWAP1 POP PUSH2 0x4A1 DUP2 PUSH2 0x47D JUMP JUMPDEST SWAP3 SWAP2 POP POP JUMP JUMPDEST PUSH0 PUSH1 0x20 DUP3 DUP5 SUB SLT ISZERO PUSH2 0x4BC JUMPI PUSH2 0x4BB PUSH2 0x46C JUMP JUMPDEST JUMPDEST PUSH0 PUSH2 0x4C9 DUP5 DUP3 DUP6 ADD PUSH2 0x493 JUMP JUMPDEST SWAP2 POP POP SWAP3 SWAP2 POP POP JUMP JUMPDEST PUSH2 0x4DB DUP2 PUSH2 0x470 JUMP JUMPDEST DUP3 MSTORE POP POP JUMP JUMPDEST PUSH0 PUSH1 0x20 DUP3 ADD SWAP1 POP PUSH2 0x4F4 PUSH0 DUP4 ADD DUP5 PUSH2 0x4D2 JUMP JUMPDEST SWAP3 SWAP2 POP POP JUMP JUMPDEST PUSH2 0x503 DUP2 PUSH2 0x404 JUMP JUMPDEST DUP2 EQ PUSH2 0x50D JUMPI PUSH0 DUP1 REVERT JUMPDEST POP JUMP JUMPDEST PUSH0 DUP2 CALLDATALOAD SWAP1 POP PUSH2 0x51E DUP2 PUSH2 0x4FA JUMP JUMPDEST SWAP3 SWAP2 POP POP JUMP JUMPDEST PUSH0 PUSH1 0x20 DUP3 DUP5 SUB SLT ISZERO PUSH2 0x539 JUMPI PUSH2 0x538 PUSH2 0x46C JUMP JUMPDEST JUMPDEST PUSH0 PUSH2 0x546 DUP5 DUP3 DUP6 ADD PUSH2 0x510 JUMP JUMPDEST SWAP2 POP POP SWAP3 SWAP2 POP POP JUMP JUMPDEST PUSH32 0x4E487B7100000000000000000000000000000000000000000000000000000000 PUSH0 MSTORE PUSH1 0x22 PUSH1 0x4 MSTORE PUSH1 0x24 PUSH0 REVERT JUMPDEST PUSH0 PUSH1 0x2 DUP3 DIV SWAP1 POP PUSH1 0x1 DUP3 AND DUP1 PUSH2 0x593 JUMPI PUSH1 0x7F DUP3 AND SWAP2 POP JUMPDEST PUSH1 0x20 DUP3 LT DUP2 SUB PUSH2 0x5A6 JUMPI PUSH2 0x5A5 PUSH2 0x54F JUMP JUMPDEST JUMPDEST POP SWAP2 SWAP1 POP JUMP JUMPDEST PUSH32 0x546F6F206D616E79207368617265730000000000000000000000000000000000 PUSH0 DUP3 ADD MSTORE POP JUMP JUMPDEST PUSH0 PUSH2 0x5E0 PUSH1 0xF DUP4 PUSH2 0x37E JUMP JUMPDEST SWAP2 POP PUSH2 0x5EB DUP3 PUSH2 0x5AC JUMP JUMPDEST PUSH1 0x20 DUP3 ADD SWAP1 POP SWAP2 SWAP1 POP JUMP JUMPDEST PUSH0 PUSH1 0x20 DUP3 ADD SWAP1 POP DUP2 DUP2 SUB PUSH0 DUP4 ADD MSTORE PUSH2 0x60D DUP2 PUSH2 0x5D4 JUMP JUMPDEST SWAP1 POP SWAP2 SWAP1 POP JUMP JUMPDEST PUSH32 0x4E487B7100000000000000000000000000000000000000000000000000000000 PUSH0 MSTORE PUSH1 0x11 PUSH1 0x4 MSTORE PUSH1 0x24 PUSH0 REVERT JUMPDEST PUSH0 PUSH2 0x64B DUP3 PUSH2 0x470 JUMP JUMPDEST SWAP2 POP PUSH2 0x656 DUP4 PUSH2 0x470 JUMP JUMPDEST SWAP3 POP DUP3 DUP3 ADD SWAP1 POP PUSH2 0xFFFF DUP2 GT ISZERO PUSH2 0x670 JUMPI PUSH2 0x66F PUSH2 0x614 JUMP JUMPDEST JUMPDEST SWAP3 SWAP2 POP POP JUMP JUMPDEST PUSH0 DUP2 SWAP1 POP SWAP2 SWAP1 POP JUMP JUMPDEST PUSH0 PUSH2 0x699 PUSH2 0x694 PUSH2 0x68F DUP5 PUSH2 0x470 JUMP JUMPDEST PUSH2 0x676 JUMP JUMPDEST PUSH2 0x404 JUMP JUMPDEST SWAP1 POP SWAP2 SWAP1 POP JUMP JUMPDEST PUSH2 0x6A9 DUP2 PUSH2 0x67F JUMP JUMPDEST DUP3 MSTORE POP POP JUMP JUMPDEST PUSH0 PUSH1 0x20 DUP3 ADD SWAP1 POP PUSH2 0x6C2 PUSH0 DUP4 ADD DUP5 PUSH2 0x6A0 JUMP JUMPDEST SWAP3 SWAP2 POP POP JUMP INVALID LOG2 PUSH5 0x6970667358 0x22 SLT KECCAK256 REVERT 0xC3 PUSH24 0xA3E23DBCEC6E74A56E45A7107B81A9CC31CFF30B4ED2CF67 0x2D PUSH10 0xB84DF64736F6C634300 ADDMOD BYTE STOP CALLER "
		},
		"gasEstimates": {
			"creation": {
				"codeDepositCost": "358000",
				"executionCost": "infinite",
				"totalCost": "infinite"
			},
			"external": {
				"checkForPacking(uint256)": "infinite",
				"debugResetShares()": "24409",
				"grantShares(uint16)": "infinite",
				"idNumber()": "2448",
				"name()": "infinite",
				"viewSalary()": "2569",
				"viewShares()": "2517"
			}
		},
		"methodIdentifiers": {
			"checkForPacking(uint256)": "8f6a861a",
			"debugResetShares()": "4c764809",
			"grantShares(uint16)": "52c98689",
			"idNumber()": "3f83ea3b",
			"name()": "06fdde03",
			"viewSalary()": "49574402",
			"viewShares()": "6d45e2a5"
		}
	},
	"abi": [
		{
			"inputs": [
				{
					"internalType": "string",
					"name": "_name",
					"type": "string"
				},
				{
					"internalType": "uint16",
					"name": "_shares",
					"type": "uint16"
				},
				{
					"internalType": "uint32",
					"name": "_salary",
					"type": "uint32"
				},
				{
					"internalType": "uint256",
					"name": "_idNumber",
					"type": "uint256"
				}
			],
			"stateMutability": "nonpayable",
			"type": "constructor"
		},
		{
			"inputs": [
				{
					"internalType": "uint256",
					"name": "shares",
					"type": "uint256"
				}
			],
			"name": "TooManyShares",
			"type": "error"
		},
		{
			"inputs": [
				{
					"internalType": "uint256",
					"name": "_slot",
					"type": "uint256"
				}
			],
			"name": "checkForPacking",
			"outputs": [
				{
					"internalType": "uint256",
					"name": "r",
					"type": "uint256"
				}
			],
			"stateMutability": "view",
			"type": "function"
		},
		{
			"inputs": [],
			"name": "debugResetShares",
			"outputs": [],
			"stateMutability": "nonpayable",
			"type": "function"
		},
		{
			"inputs": [
				{
					"internalType": "uint16",
					"name": "_newShares",
					"type": "uint16"
				}
			],
			"name": "grantShares",
			"outputs": [
				{
					"internalType": "string",
					"name": "",
					"type": "string"
				}
			],
			"stateMutability": "nonpayable",
			"type": "function"
		},
		{
			"inputs": [],
			"name": "idNumber",
			"outputs": [
				{
					"internalType": "uint256",
					"name": "",
					"type": "uint256"
				}
			],
			"stateMutability": "view",
			"type": "function"
		},
		{
			"inputs": [],
			"name": "name",
			"outputs": [
				{
					"internalType": "string",
					"name": "",
					"type": "string"
				}
			],
			"stateMutability": "view",
			"type": "function"
		},
		{
			"inputs": [],
			"name": "viewSalary",
			"outputs": [
				{
					"internalType": "uint32",
					"name": "",
					"type": "uint32"
				}
			],
			"stateMutability": "view",
			"type": "function"
		},
		{
			"inputs": [],
			"name": "viewShares",
			"outputs": [
				{
					"internalType": "uint16",
					"name": "",
					"type": "uint16"
				}
			],
			"stateMutability": "view",
			"type": "function"
		}
	]
}