{
	"Project-10-Minimal-Tokens/MinimalToken.sol": {
		"MinimalToken": {
			"abi": [
				{
					"inputs": [],
					"stateMutability": "nonpayable",
					"type": "constructor"
				},
				{
					"inputs": [
						{
							"internalType": "address",
							"name": "",
							"type": "address"
						}
					],
					"name": "balances",
					"outputs": [
						{
							"internalType": "uint256",
							"name": "",
							"type": "uint256"
						}
					],
					"stateMutability": "view",
					"type": "function"
				},
				{
					"inputs": [],
					"name": "totalSupply",
					"outputs": [
						{
							"internalType": "uint256",
							"name": "",
							"type": "uint256"
						}
					],
					"stateMutability": "view",
					"type": "function"
				},
				{
					"inputs": [
						{
							"internalType": "address",
							"name": "_to",
							"type": "address"
						},
						{
							"internalType": "uint256",
							"name": "_amount",
							"type": "uint256"
						}
					],
					"name": "transfer",
					"outputs": [],
					"stateMutability": "nonpayable",
					"type": "function"
				}
			],
			"devdoc": {
				"kind": "dev",
				"methods": {},
				"version": 1
			},
			"evm": {
				"assembly": "    /* \"Project-10-Minimal-Tokens/MinimalToken.sol\":60:704  contract MinimalToken {... */\n  mstore(0x40, 0x80)\n    /* \"Project-10-Minimal-Tokens/MinimalToken.sol\":213:479  constructor() {... */\n  callvalue\n  dup1\n  iszero\n  tag_1\n  jumpi\n  0x00\n  dup1\n  revert\ntag_1:\n  pop\n    /* \"Project-10-Minimal-Tokens/MinimalToken.sol\":252:256  3000 */\n  0x0bb8\n    /* \"Project-10-Minimal-Tokens/MinimalToken.sol\":238:249  totalSupply */\n  0x01\n    /* \"Project-10-Minimal-Tokens/MinimalToken.sol\":238:256  totalSupply = 3000 */\n  dup2\n  swap1\n  sstore\n  pop\n    /* \"Project-10-Minimal-Tokens/MinimalToken.sol\":304:305  3 */\n  0x03\n    /* \"Project-10-Minimal-Tokens/MinimalToken.sol\":290:301  totalSupply */\n  sload(0x01)\n    /* \"Project-10-Minimal-Tokens/MinimalToken.sol\":290:305  totalSupply / 3 */\n  tag_4\n  swap2\n  swap1\n  tag_5\n  jump\t// in\ntag_4:\n    /* \"Project-10-Minimal-Tokens/MinimalToken.sol\":267:275  balances */\n  0x00\n    /* \"Project-10-Minimal-Tokens/MinimalToken.sol\":267:287  balances[msg.sender] */\n  dup1\n    /* \"Project-10-Minimal-Tokens/MinimalToken.sol\":276:286  msg.sender */\n  caller\n    /* \"Project-10-Minimal-Tokens/MinimalToken.sol\":267:287  balances[msg.sender] */\n  0xffffffffffffffffffffffffffffffffffffffff\n  and\n  0xffffffffffffffffffffffffffffffffffffffff\n  and\n  dup2\n  mstore\n  0x20\n  add\n  swap1\n  dup2\n  mstore\n  0x20\n  add\n  0x00\n  keccak256\n    /* \"Project-10-Minimal-Tokens/MinimalToken.sol\":267:305  balances[msg.sender] = totalSupply / 3 */\n  dup2\n  swap1\n  sstore\n  pop\n    /* \"Project-10-Minimal-Tokens/MinimalToken.sol\":387:388  3 */\n  0x03\n    /* \"Project-10-Minimal-Tokens/MinimalToken.sol\":373:384  totalSupply */\n  sload(0x01)\n    /* \"Project-10-Minimal-Tokens/MinimalToken.sol\":373:388  totalSupply / 3 */\n  tag_6\n  swap2\n  swap1\n  tag_5\n  jump\t// in\ntag_6:\n    /* \"Project-10-Minimal-Tokens/MinimalToken.sol\":318:326  balances */\n  0x00\n    /* \"Project-10-Minimal-Tokens/MinimalToken.sol\":318:370  balances[0xAb8483F64d9C6d1EcF9b849Ae677dD3315835cb2] */\n  dup1\n    /* \"Project-10-Minimal-Tokens/MinimalToken.sol\":327:369  0xAb8483F64d9C6d1EcF9b849Ae677dD3315835cb2 */\n  0xab8483f64d9c6d1ecf9b849ae677dd3315835cb2\n    /* \"Project-10-Minimal-Tokens/MinimalToken.sol\":318:370  balances[0xAb8483F64d9C6d1EcF9b849Ae677dD3315835cb2] */\n  0xffffffffffffffffffffffffffffffffffffffff\n  and\n  0xffffffffffffffffffffffffffffffffffffffff\n  and\n  dup2\n  mstore\n  0x20\n  add\n  swap1\n  dup2\n  mstore\n  0x20\n  add\n  0x00\n  keccak256\n    /* \"Project-10-Minimal-Tokens/MinimalToken.sol\":318:388  balances[0xAb8483F64d9C6d1EcF9b849Ae677dD3315835cb2] = totalSupply / 3 */\n  dup2\n  swap1\n  sstore\n  pop\n    /* \"Project-10-Minimal-Tokens/MinimalToken.sol\":470:471  3 */\n  0x03\n    /* \"Project-10-Minimal-Tokens/MinimalToken.sol\":456:467  totalSupply */\n  sload(0x01)\n    /* \"Project-10-Minimal-Tokens/MinimalToken.sol\":456:471  totalSupply / 3 */\n  tag_7\n  swap2\n  swap1\n  tag_5\n  jump\t// in\ntag_7:\n    /* \"Project-10-Minimal-Tokens/MinimalToken.sol\":401:409  balances */\n  0x00\n    /* \"Project-10-Minimal-Tokens/MinimalToken.sol\":401:453  balances[0x4B20993Bc481177ec7E8f571ceCaE8A9e22C02db] */\n  dup1\n    /* \"Project-10-Minimal-Tokens/MinimalToken.sol\":410:452  0x4B20993Bc481177ec7E8f571ceCaE8A9e22C02db */\n  0x4b20993bc481177ec7e8f571cecae8a9e22c02db\n    /* \"Project-10-Minimal-Tokens/MinimalToken.sol\":401:453  balances[0x4B20993Bc481177ec7E8f571ceCaE8A9e22C02db] */\n  0xffffffffffffffffffffffffffffffffffffffff\n  and\n  0xffffffffffffffffffffffffffffffffffffffff\n  and\n  dup2\n  mstore\n  0x20\n  add\n  swap1\n  dup2\n  mstore\n  0x20\n  add\n  0x00\n  keccak256\n    /* \"Project-10-Minimal-Tokens/MinimalToken.sol\":401:471  balances[0x4B20993Bc481177ec7E8f571ceCaE8A9e22C02db] = totalSupply / 3 */\n  dup2\n  swap1\n  sstore\n  pop\n    /* \"Project-10-Minimal-Tokens/MinimalToken.sol\":60:704  contract MinimalToken {... */\n  jump(tag_8)\n    /* \"#utility.yul\":7:84   */\ntag_9:\n    /* \"#utility.yul\":44:51   */\n  0x00\n    /* \"#utility.yul\":73:78   */\n  dup2\n    /* \"#utility.yul\":62:78   */\n  swap1\n  pop\n    /* \"#utility.yul\":7:84   */\n  swap2\n  swap1\n  pop\n  jump\t// out\n    /* \"#utility.yul\":90:270   */\ntag_10:\n    /* \"#utility.yul\":138:215   */\n  0x4e487b7100000000000000000000000000000000000000000000000000000000\n    /* \"#utility.yul\":135:136   */\n  0x00\n    /* \"#utility.yul\":128:216   */\n  mstore\n    /* \"#utility.yul\":235:239   */\n  0x12\n    /* \"#utility.yul\":232:233   */\n  0x04\n    /* \"#utility.yul\":225:240   */\n  mstore\n    /* \"#utility.yul\":259:263   */\n  0x24\n    /* \"#utility.yul\":256:257   */\n  0x00\n    /* \"#utility.yul\":249:264   */\n  revert\n    /* \"#utility.yul\":462:647   */\ntag_5:\n    /* \"#utility.yul\":502:503   */\n  0x00\n    /* \"#utility.yul\":519:539   */\n  tag_17\n    /* \"#utility.yul\":537:538   */\n  dup3\n    /* \"#utility.yul\":519:539   */\n  tag_9\n  jump\t// in\ntag_17:\n    /* \"#utility.yul\":514:539   */\n  swap2\n  pop\n    /* \"#utility.yul\":553:573   */\n  tag_18\n    /* \"#utility.yul\":571:572   */\n  dup4\n    /* \"#utility.yul\":553:573   */\n  tag_9\n  jump\t// in\ntag_18:\n    /* \"#utility.yul\":548:573   */\n  swap3\n  pop\n    /* \"#utility.yul\":592:593   */\n  dup3\n    /* \"#utility.yul\":582:617   */\n  tag_19\n  jumpi\n    /* \"#utility.yul\":597:615   */\n  tag_20\n  tag_10\n  jump\t// in\ntag_20:\n    /* \"#utility.yul\":582:617   */\ntag_19:\n    /* \"#utility.yul\":639:640   */\n  dup3\n    /* \"#utility.yul\":636:637   */\n  dup3\n    /* \"#utility.yul\":632:641   */\n  div\n    /* \"#utility.yul\":627:641   */\n  swap1\n  pop\n    /* \"#utility.yul\":462:647   */\n  swap3\n  swap2\n  pop\n  pop\n  jump\t// out\n    /* \"Project-10-Minimal-Tokens/MinimalToken.sol\":60:704  contract MinimalToken {... */\ntag_8:\n  dataSize(sub_0)\n  dup1\n  dataOffset(sub_0)\n  0x00\n  codecopy\n  0x00\n  return\nstop\n\nsub_0: assembly {\n        /* \"Project-10-Minimal-Tokens/MinimalToken.sol\":60:704  contract MinimalToken {... */\n      mstore(0x40, 0x80)\n      callvalue\n      dup1\n      iszero\n      tag_1\n      jumpi\n      0x00\n      dup1\n      revert\n    tag_1:\n      pop\n      jumpi(tag_2, lt(calldatasize, 0x04))\n      shr(0xe0, calldataload(0x00))\n      dup1\n      0x18160ddd\n      eq\n      tag_3\n      jumpi\n      dup1\n      0x27e235e3\n      eq\n      tag_4\n      jumpi\n      dup1\n      0xa9059cbb\n      eq\n      tag_5\n      jumpi\n    tag_2:\n      0x00\n      dup1\n      revert\n        /* \"Project-10-Minimal-Tokens/MinimalToken.sol\":181:204  uint public totalSupply */\n    tag_3:\n      tag_6\n      tag_7\n      jump\t// in\n    tag_6:\n      mload(0x40)\n      tag_8\n      swap2\n      swap1\n      tag_9\n      jump\t// in\n    tag_8:\n      mload(0x40)\n      dup1\n      swap2\n      sub\n      swap1\n      return\n        /* \"Project-10-Minimal-Tokens/MinimalToken.sol\":89:129  mapping(address => uint) public balances */\n    tag_4:\n      tag_10\n      0x04\n      dup1\n      calldatasize\n      sub\n      dup2\n      add\n      swap1\n      tag_11\n      swap2\n      swap1\n      tag_12\n      jump\t// in\n    tag_11:\n      tag_13\n      jump\t// in\n    tag_10:\n      mload(0x40)\n      tag_14\n      swap2\n      swap1\n      tag_9\n      jump\t// in\n    tag_14:\n      mload(0x40)\n      dup1\n      swap2\n      sub\n      swap1\n      return\n        /* \"Project-10-Minimal-Tokens/MinimalToken.sol\":487:701  function transfer(address _to, uint _amount) external {... */\n    tag_5:\n      tag_15\n      0x04\n      dup1\n      calldatasize\n      sub\n      dup2\n      add\n      swap1\n      tag_16\n      swap2\n      swap1\n      tag_17\n      jump\t// in\n    tag_16:\n      tag_18\n      jump\t// in\n    tag_15:\n      stop\n        /* \"Project-10-Minimal-Tokens/MinimalToken.sol\":181:204  uint public totalSupply */\n    tag_7:\n      sload(0x01)\n      dup2\n      jump\t// out\n        /* \"Project-10-Minimal-Tokens/MinimalToken.sol\":89:129  mapping(address => uint) public balances */\n    tag_13:\n      mstore(0x20, 0x00)\n      dup1\n      0x00\n      mstore\n      keccak256(0x00, 0x40)\n      0x00\n      swap2\n      pop\n      swap1\n      pop\n      sload\n      dup2\n      jump\t// out\n        /* \"Project-10-Minimal-Tokens/MinimalToken.sol\":487:701  function transfer(address _to, uint _amount) external {... */\n    tag_18:\n        /* \"Project-10-Minimal-Tokens/MinimalToken.sol\":584:591  _amount */\n      dup1\n        /* \"Project-10-Minimal-Tokens/MinimalToken.sol\":560:568  balances */\n      0x00\n        /* \"Project-10-Minimal-Tokens/MinimalToken.sol\":560:580  balances[msg.sender] */\n      dup1\n        /* \"Project-10-Minimal-Tokens/MinimalToken.sol\":569:579  msg.sender */\n      caller\n        /* \"Project-10-Minimal-Tokens/MinimalToken.sol\":560:580  balances[msg.sender] */\n      0xffffffffffffffffffffffffffffffffffffffff\n      and\n      0xffffffffffffffffffffffffffffffffffffffff\n      and\n      dup2\n      mstore\n      0x20\n      add\n      swap1\n      dup2\n      mstore\n      0x20\n      add\n      0x00\n      keccak256\n      sload\n        /* \"Project-10-Minimal-Tokens/MinimalToken.sol\":560:591  balances[msg.sender] >= _amount */\n      lt\n      iszero\n        /* \"Project-10-Minimal-Tokens/MinimalToken.sol\":552:616  require(balances[msg.sender] >= _amount, \"Insufficient balance\") */\n      tag_20\n      jumpi\n      mload(0x40)\n      0x08c379a000000000000000000000000000000000000000000000000000000000\n      dup2\n      mstore\n      0x04\n      add\n      tag_21\n      swap1\n      tag_22\n      jump\t// in\n    tag_21:\n      mload(0x40)\n      dup1\n      swap2\n      sub\n      swap1\n      revert\n    tag_20:\n        /* \"Project-10-Minimal-Tokens/MinimalToken.sol\":651:658  _amount */\n      dup1\n        /* \"Project-10-Minimal-Tokens/MinimalToken.sol\":627:635  balances */\n      0x00\n        /* \"Project-10-Minimal-Tokens/MinimalToken.sol\":627:647  balances[msg.sender] */\n      dup1\n        /* \"Project-10-Minimal-Tokens/MinimalToken.sol\":636:646  msg.sender */\n      caller\n        /* \"Project-10-Minimal-Tokens/MinimalToken.sol\":627:647  balances[msg.sender] */\n      0xffffffffffffffffffffffffffffffffffffffff\n      and\n      0xffffffffffffffffffffffffffffffffffffffff\n      and\n      dup2\n      mstore\n      0x20\n      add\n      swap1\n      dup2\n      mstore\n      0x20\n      add\n      0x00\n      keccak256\n      0x00\n        /* \"Project-10-Minimal-Tokens/MinimalToken.sol\":627:658  balances[msg.sender] -= _amount */\n      dup3\n      dup3\n      sload\n      tag_23\n      swap2\n      swap1\n      tag_24\n      jump\t// in\n    tag_23:\n      swap3\n      pop\n      pop\n      dup2\n      swap1\n      sstore\n      pop\n        /* \"Project-10-Minimal-Tokens/MinimalToken.sol\":686:693  _amount */\n      dup1\n        /* \"Project-10-Minimal-Tokens/MinimalToken.sol\":669:677  balances */\n      0x00\n        /* \"Project-10-Minimal-Tokens/MinimalToken.sol\":669:682  balances[_to] */\n      dup1\n        /* \"Project-10-Minimal-Tokens/MinimalToken.sol\":678:681  _to */\n      dup5\n        /* \"Project-10-Minimal-Tokens/MinimalToken.sol\":669:682  balances[_to] */\n      0xffffffffffffffffffffffffffffffffffffffff\n      and\n      0xffffffffffffffffffffffffffffffffffffffff\n      and\n      dup2\n      mstore\n      0x20\n      add\n      swap1\n      dup2\n      mstore\n      0x20\n      add\n      0x00\n      keccak256\n      0x00\n        /* \"Project-10-Minimal-Tokens/MinimalToken.sol\":669:693  balances[_to] += _amount */\n      dup3\n      dup3\n      sload\n      tag_25\n      swap2\n      swap1\n      tag_26\n      jump\t// in\n    tag_25:\n      swap3\n      pop\n      pop\n      dup2\n      swap1\n      sstore\n      pop\n        /* \"Project-10-Minimal-Tokens/MinimalToken.sol\":487:701  function transfer(address _to, uint _amount) external {... */\n      pop\n      pop\n      jump\t// out\n        /* \"#utility.yul\":7:84   */\n    tag_27:\n        /* \"#utility.yul\":44:51   */\n      0x00\n        /* \"#utility.yul\":73:78   */\n      dup2\n        /* \"#utility.yul\":62:78   */\n      swap1\n      pop\n        /* \"#utility.yul\":7:84   */\n      swap2\n      swap1\n      pop\n      jump\t// out\n        /* \"#utility.yul\":90:208   */\n    tag_28:\n        /* \"#utility.yul\":177:201   */\n      tag_45\n        /* \"#utility.yul\":195:200   */\n      dup2\n        /* \"#utility.yul\":177:201   */\n      tag_27\n      jump\t// in\n    tag_45:\n        /* \"#utility.yul\":172:175   */\n      dup3\n        /* \"#utility.yul\":165:202   */\n      mstore\n        /* \"#utility.yul\":90:208   */\n      pop\n      pop\n      jump\t// out\n        /* \"#utility.yul\":214:436   */\n    tag_9:\n        /* \"#utility.yul\":307:311   */\n      0x00\n        /* \"#utility.yul\":345:347   */\n      0x20\n        /* \"#utility.yul\":334:343   */\n      dup3\n        /* \"#utility.yul\":330:348   */\n      add\n        /* \"#utility.yul\":322:348   */\n      swap1\n      pop\n        /* \"#utility.yul\":358:429   */\n      tag_47\n        /* \"#utility.yul\":426:427   */\n      0x00\n        /* \"#utility.yul\":415:424   */\n      dup4\n        /* \"#utility.yul\":411:428   */\n      add\n        /* \"#utility.yul\":402:408   */\n      dup5\n        /* \"#utility.yul\":358:429   */\n      tag_28\n      jump\t// in\n    tag_47:\n        /* \"#utility.yul\":214:436   */\n      swap3\n      swap2\n      pop\n      pop\n      jump\t// out\n        /* \"#utility.yul\":523:640   */\n    tag_30:\n        /* \"#utility.yul\":632:633   */\n      0x00\n        /* \"#utility.yul\":629:630   */\n      dup1\n        /* \"#utility.yul\":622:634   */\n      revert\n        /* \"#utility.yul\":769:895   */\n    tag_32:\n        /* \"#utility.yul\":806:813   */\n      0x00\n        /* \"#utility.yul\":846:888   */\n      0xffffffffffffffffffffffffffffffffffffffff\n        /* \"#utility.yul\":839:844   */\n      dup3\n        /* \"#utility.yul\":835:889   */\n      and\n        /* \"#utility.yul\":824:889   */\n      swap1\n      pop\n        /* \"#utility.yul\":769:895   */\n      swap2\n      swap1\n      pop\n      jump\t// out\n        /* \"#utility.yul\":901:997   */\n    tag_33:\n        /* \"#utility.yul\":938:945   */\n      0x00\n        /* \"#utility.yul\":967:991   */\n      tag_53\n        /* \"#utility.yul\":985:990   */\n      dup3\n        /* \"#utility.yul\":967:991   */\n      tag_32\n      jump\t// in\n    tag_53:\n        /* \"#utility.yul\":956:991   */\n      swap1\n      pop\n        /* \"#utility.yul\":901:997   */\n      swap2\n      swap1\n      pop\n      jump\t// out\n        /* \"#utility.yul\":1003:1125   */\n    tag_34:\n        /* \"#utility.yul\":1076:1100   */\n      tag_55\n        /* \"#utility.yul\":1094:1099   */\n      dup2\n        /* \"#utility.yul\":1076:1100   */\n      tag_33\n      jump\t// in\n    tag_55:\n        /* \"#utility.yul\":1069:1074   */\n      dup2\n        /* \"#utility.yul\":1066:1101   */\n      eq\n        /* \"#utility.yul\":1056:1119   */\n      tag_56\n      jumpi\n        /* \"#utility.yul\":1115:1116   */\n      0x00\n        /* \"#utility.yul\":1112:1113   */\n      dup1\n        /* \"#utility.yul\":1105:1117   */\n      revert\n        /* \"#utility.yul\":1056:1119   */\n    tag_56:\n        /* \"#utility.yul\":1003:1125   */\n      pop\n      jump\t// out\n        /* \"#utility.yul\":1131:1270   */\n    tag_35:\n        /* \"#utility.yul\":1177:1182   */\n      0x00\n        /* \"#utility.yul\":1215:1221   */\n      dup2\n        /* \"#utility.yul\":1202:1222   */\n      calldataload\n        /* \"#utility.yul\":1193:1222   */\n      swap1\n      pop\n        /* \"#utility.yul\":1231:1264   */\n      tag_58\n        /* \"#utility.yul\":1258:1263   */\n      dup2\n        /* \"#utility.yul\":1231:1264   */\n      tag_34\n      jump\t// in\n    tag_58:\n        /* \"#utility.yul\":1131:1270   */\n      swap3\n      swap2\n      pop\n      pop\n      jump\t// out\n        /* \"#utility.yul\":1276:1605   */\n    tag_12:\n        /* \"#utility.yul\":1335:1341   */\n      0x00\n        /* \"#utility.yul\":1384:1386   */\n      0x20\n        /* \"#utility.yul\":1372:1381   */\n      dup3\n        /* \"#utility.yul\":1363:1370   */\n      dup5\n        /* \"#utility.yul\":1359:1382   */\n      sub\n        /* \"#utility.yul\":1355:1387   */\n      slt\n        /* \"#utility.yul\":1352:1471   */\n      iszero\n      tag_60\n      jumpi\n        /* \"#utility.yul\":1390:1469   */\n      tag_61\n      tag_30\n      jump\t// in\n    tag_61:\n        /* \"#utility.yul\":1352:1471   */\n    tag_60:\n        /* \"#utility.yul\":1510:1511   */\n      0x00\n        /* \"#utility.yul\":1535:1588   */\n      tag_62\n        /* \"#utility.yul\":1580:1587   */\n      dup5\n        /* \"#utility.yul\":1571:1577   */\n      dup3\n        /* \"#utility.yul\":1560:1569   */\n      dup6\n        /* \"#utility.yul\":1556:1578   */\n      add\n        /* \"#utility.yul\":1535:1588   */\n      tag_35\n      jump\t// in\n    tag_62:\n        /* \"#utility.yul\":1525:1588   */\n      swap2\n      pop\n        /* \"#utility.yul\":1481:1598   */\n      pop\n        /* \"#utility.yul\":1276:1605   */\n      swap3\n      swap2\n      pop\n      pop\n      jump\t// out\n        /* \"#utility.yul\":1611:1733   */\n    tag_36:\n        /* \"#utility.yul\":1684:1708   */\n      tag_64\n        /* \"#utility.yul\":1702:1707   */\n      dup2\n        /* \"#utility.yul\":1684:1708   */\n      tag_27\n      jump\t// in\n    tag_64:\n        /* \"#utility.yul\":1677:1682   */\n      dup2\n        /* \"#utility.yul\":1674:1709   */\n      eq\n        /* \"#utility.yul\":1664:1727   */\n      tag_65\n      jumpi\n        /* \"#utility.yul\":1723:1724   */\n      0x00\n        /* \"#utility.yul\":1720:1721   */\n      dup1\n        /* \"#utility.yul\":1713:1725   */\n      revert\n        /* \"#utility.yul\":1664:1727   */\n    tag_65:\n        /* \"#utility.yul\":1611:1733   */\n      pop\n      jump\t// out\n        /* \"#utility.yul\":1739:1878   */\n    tag_37:\n        /* \"#utility.yul\":1785:1790   */\n      0x00\n        /* \"#utility.yul\":1823:1829   */\n      dup2\n        /* \"#utility.yul\":1810:1830   */\n      calldataload\n        /* \"#utility.yul\":1801:1830   */\n      swap1\n      pop\n        /* \"#utility.yul\":1839:1872   */\n      tag_67\n        /* \"#utility.yul\":1866:1871   */\n      dup2\n        /* \"#utility.yul\":1839:1872   */\n      tag_36\n      jump\t// in\n    tag_67:\n        /* \"#utility.yul\":1739:1878   */\n      swap3\n      swap2\n      pop\n      pop\n      jump\t// out\n        /* \"#utility.yul\":1884:2358   */\n    tag_17:\n        /* \"#utility.yul\":1952:1958   */\n      0x00\n        /* \"#utility.yul\":1960:1966   */\n      dup1\n        /* \"#utility.yul\":2009:2011   */\n      0x40\n        /* \"#utility.yul\":1997:2006   */\n      dup4\n        /* \"#utility.yul\":1988:1995   */\n      dup6\n        /* \"#utility.yul\":1984:2007   */\n      sub\n        /* \"#utility.yul\":1980:2012   */\n      slt\n        /* \"#utility.yul\":1977:2096   */\n      iszero\n      tag_69\n      jumpi\n        /* \"#utility.yul\":2015:2094   */\n      tag_70\n      tag_30\n      jump\t// in\n    tag_70:\n        /* \"#utility.yul\":1977:2096   */\n    tag_69:\n        /* \"#utility.yul\":2135:2136   */\n      0x00\n        /* \"#utility.yul\":2160:2213   */\n      tag_71\n        /* \"#utility.yul\":2205:2212   */\n      dup6\n        /* \"#utility.yul\":2196:2202   */\n      dup3\n        /* \"#utility.yul\":2185:2194   */\n      dup7\n        /* \"#utility.yul\":2181:2203   */\n      add\n        /* \"#utility.yul\":2160:2213   */\n      tag_35\n      jump\t// in\n    tag_71:\n        /* \"#utility.yul\":2150:2213   */\n      swap3\n      pop\n        /* \"#utility.yul\":2106:2223   */\n      pop\n        /* \"#utility.yul\":2262:2264   */\n      0x20\n        /* \"#utility.yul\":2288:2341   */\n      tag_72\n        /* \"#utility.yul\":2333:2340   */\n      dup6\n        /* \"#utility.yul\":2324:2330   */\n      dup3\n        /* \"#utility.yul\":2313:2322   */\n      dup7\n        /* \"#utility.yul\":2309:2331   */\n      add\n        /* \"#utility.yul\":2288:2341   */\n      tag_37\n      jump\t// in\n    tag_72:\n        /* \"#utility.yul\":2278:2341   */\n      swap2\n      pop\n        /* \"#utility.yul\":2233:2351   */\n      pop\n        /* \"#utility.yul\":1884:2358   */\n      swap3\n      pop\n      swap3\n      swap1\n      pop\n      jump\t// out\n        /* \"#utility.yul\":2364:2533   */\n    tag_38:\n        /* \"#utility.yul\":2448:2459   */\n      0x00\n        /* \"#utility.yul\":2482:2488   */\n      dup3\n        /* \"#utility.yul\":2477:2480   */\n      dup3\n        /* \"#utility.yul\":2470:2489   */\n      mstore\n        /* \"#utility.yul\":2522:2526   */\n      0x20\n        /* \"#utility.yul\":2517:2520   */\n      dup3\n        /* \"#utility.yul\":2513:2527   */\n      add\n        /* \"#utility.yul\":2498:2527   */\n      swap1\n      pop\n        /* \"#utility.yul\":2364:2533   */\n      swap3\n      swap2\n      pop\n      pop\n      jump\t// out\n        /* \"#utility.yul\":2539:2709   */\n    tag_39:\n        /* \"#utility.yul\":2679:2701   */\n      0x496e73756666696369656e742062616c616e6365000000000000000000000000\n        /* \"#utility.yul\":2675:2676   */\n      0x00\n        /* \"#utility.yul\":2667:2673   */\n      dup3\n        /* \"#utility.yul\":2663:2677   */\n      add\n        /* \"#utility.yul\":2656:2702   */\n      mstore\n        /* \"#utility.yul\":2539:2709   */\n      pop\n      jump\t// out\n        /* \"#utility.yul\":2715:3081   */\n    tag_40:\n        /* \"#utility.yul\":2857:2860   */\n      0x00\n        /* \"#utility.yul\":2878:2945   */\n      tag_76\n        /* \"#utility.yul\":2942:2944   */\n      0x14\n        /* \"#utility.yul\":2937:2940   */\n      dup4\n        /* \"#utility.yul\":2878:2945   */\n      tag_38\n      jump\t// in\n    tag_76:\n        /* \"#utility.yul\":2871:2945   */\n      swap2\n      pop\n        /* \"#utility.yul\":2954:3047   */\n      tag_77\n        /* \"#utility.yul\":3043:3046   */\n      dup3\n        /* \"#utility.yul\":2954:3047   */\n      tag_39\n      jump\t// in\n    tag_77:\n        /* \"#utility.yul\":3072:3074   */\n      0x20\n        /* \"#utility.yul\":3067:3070   */\n      dup3\n        /* \"#utility.yul\":3063:3075   */\n      add\n        /* \"#utility.yul\":3056:3075   */\n      swap1\n      pop\n        /* \"#utility.yul\":2715:3081   */\n      swap2\n      swap1\n      pop\n      jump\t// out\n        /* \"#utility.yul\":3087:3506   */\n    tag_22:\n        /* \"#utility.yul\":3253:3257   */\n      0x00\n        /* \"#utility.yul\":3291:3293   */\n      0x20\n        /* \"#utility.yul\":3280:3289   */\n      dup3\n        /* \"#utility.yul\":3276:3294   */\n      add\n        /* \"#utility.yul\":3268:3294   */\n      swap1\n      pop\n        /* \"#utility.yul\":3340:3349   */\n      dup2\n        /* \"#utility.yul\":3334:3338   */\n      dup2\n        /* \"#utility.yul\":3330:3350   */\n      sub\n        /* \"#utility.yul\":3326:3327   */\n      0x00\n        /* \"#utility.yul\":3315:3324   */\n      dup4\n        /* \"#utility.yul\":3311:3328   */\n      add\n        /* \"#utility.yul\":3304:3351   */\n      mstore\n        /* \"#utility.yul\":3368:3499   */\n      tag_79\n        /* \"#utility.yul\":3494:3498   */\n      dup2\n        /* \"#utility.yul\":3368:3499   */\n      tag_40\n      jump\t// in\n    tag_79:\n        /* \"#utility.yul\":3360:3499   */\n      swap1\n      pop\n        /* \"#utility.yul\":3087:3506   */\n      swap2\n      swap1\n      pop\n      jump\t// out\n        /* \"#utility.yul\":3512:3692   */\n    tag_41:\n        /* \"#utility.yul\":3560:3637   */\n      0x4e487b7100000000000000000000000000000000000000000000000000000000\n        /* \"#utility.yul\":3557:3558   */\n      0x00\n        /* \"#utility.yul\":3550:3638   */\n      mstore\n        /* \"#utility.yul\":3657:3661   */\n      0x11\n        /* \"#utility.yul\":3654:3655   */\n      0x04\n        /* \"#utility.yul\":3647:3662   */\n      mstore\n        /* \"#utility.yul\":3681:3685   */\n      0x24\n        /* \"#utility.yul\":3678:3679   */\n      0x00\n        /* \"#utility.yul\":3671:3686   */\n      revert\n        /* \"#utility.yul\":3698:3892   */\n    tag_24:\n        /* \"#utility.yul\":3738:3742   */\n      0x00\n        /* \"#utility.yul\":3758:3778   */\n      tag_82\n        /* \"#utility.yul\":3776:3777   */\n      dup3\n        /* \"#utility.yul\":3758:3778   */\n      tag_27\n      jump\t// in\n    tag_82:\n        /* \"#utility.yul\":3753:3778   */\n      swap2\n      pop\n        /* \"#utility.yul\":3792:3812   */\n      tag_83\n        /* \"#utility.yul\":3810:3811   */\n      dup4\n        /* \"#utility.yul\":3792:3812   */\n      tag_27\n      jump\t// in\n    tag_83:\n        /* \"#utility.yul\":3787:3812   */\n      swap3\n      pop\n        /* \"#utility.yul\":3836:3837   */\n      dup3\n        /* \"#utility.yul\":3833:3834   */\n      dup3\n        /* \"#utility.yul\":3829:3838   */\n      sub\n        /* \"#utility.yul\":3821:3838   */\n      swap1\n      pop\n        /* \"#utility.yul\":3860:3861   */\n      dup2\n        /* \"#utility.yul\":3854:3858   */\n      dup2\n        /* \"#utility.yul\":3851:3862   */\n      gt\n        /* \"#utility.yul\":3848:3885   */\n      iszero\n      tag_84\n      jumpi\n        /* \"#utility.yul\":3865:3883   */\n      tag_85\n      tag_41\n      jump\t// in\n    tag_85:\n        /* \"#utility.yul\":3848:3885   */\n    tag_84:\n        /* \"#utility.yul\":3698:3892   */\n      swap3\n      swap2\n      pop\n      pop\n      jump\t// out\n        /* \"#utility.yul\":3898:4089   */\n    tag_26:\n        /* \"#utility.yul\":3938:3941   */\n      0x00\n        /* \"#utility.yul\":3957:3977   */\n      tag_87\n        /* \"#utility.yul\":3975:3976   */\n      dup3\n        /* \"#utility.yul\":3957:3977   */\n      tag_27\n      jump\t// in\n    tag_87:\n        /* \"#utility.yul\":3952:3977   */\n      swap2\n      pop\n        /* \"#utility.yul\":3991:4011   */\n      tag_88\n        /* \"#utility.yul\":4009:4010   */\n      dup4\n        /* \"#utility.yul\":3991:4011   */\n      tag_27\n      jump\t// in\n    tag_88:\n        /* \"#utility.yul\":3986:4011   */\n      swap3\n      pop\n        /* \"#utility.yul\":4034:4035   */\n      dup3\n        /* \"#utility.yul\":4031:4032   */\n      dup3\n        /* \"#utility.yul\":4027:4036   */\n      add\n        /* \"#utility.yul\":4020:4036   */\n      swap1\n      pop\n        /* \"#utility.yul\":4055:4058   */\n      dup1\n        /* \"#utility.yul\":4052:4053   */\n      dup3\n        /* \"#utility.yul\":4049:4059   */\n      gt\n        /* \"#utility.yul\":4046:4082   */\n      iszero\n      tag_89\n      jumpi\n        /* \"#utility.yul\":4062:4080   */\n      tag_90\n      tag_41\n      jump\t// in\n    tag_90:\n        /* \"#utility.yul\":4046:4082   */\n    tag_89:\n        /* \"#utility.yul\":3898:4089   */\n      swap3\n      swap2\n      pop\n      pop\n      jump\t// out\n\n    auxdata: 0xa264697066735822122083bbeb20128b5aa2dab943664912bf9b9752f431ff1cacae74f825f50fdb0d1764736f6c634300081a0033\n}\n",
				"bytecode": {
					"linkReferences": {},
					"object": "608060405234801561000f575f80fd5b50610bb860018190555060036001546100289190610169565b5f803373ffffffffffffffffffffffffffffffffffffffff1673ffffffffffffffffffffffffffffffffffffffff1681526020019081526020015f208190555060036001546100779190610169565b5f8073ab8483f64d9c6d1ecf9b849ae677dd3315835cb273ffffffffffffffffffffffffffffffffffffffff1673ffffffffffffffffffffffffffffffffffffffff1681526020019081526020015f208190555060036001546100da9190610169565b5f80734b20993bc481177ec7e8f571cecae8a9e22c02db73ffffffffffffffffffffffffffffffffffffffff1673ffffffffffffffffffffffffffffffffffffffff1681526020019081526020015f2081905550610199565b5f819050919050565b7f4e487b71000000000000000000000000000000000000000000000000000000005f52601260045260245ffd5b5f61017382610133565b915061017e83610133565b92508261018e5761018d61013c565b5b828204905092915050565b610451806101a65f395ff3fe608060405234801561000f575f80fd5b506004361061003f575f3560e01c806318160ddd1461004357806327e235e314610061578063a9059cbb14610091575b5f80fd5b61004b6100ad565b6040516100589190610206565b60405180910390f35b61007b6004803603810190610076919061027d565b6100b3565b6040516100889190610206565b60405180910390f35b6100ab60048036038101906100a691906102d2565b6100c7565b005b60015481565b5f602052805f5260405f205f915090505481565b805f803373ffffffffffffffffffffffffffffffffffffffff1673ffffffffffffffffffffffffffffffffffffffff1681526020019081526020015f20541015610146576040517f08c379a000000000000000000000000000000000000000000000000000000000815260040161013d9061036a565b60405180910390fd5b805f803373ffffffffffffffffffffffffffffffffffffffff1673ffffffffffffffffffffffffffffffffffffffff1681526020019081526020015f205f82825461019191906103b5565b92505081905550805f808473ffffffffffffffffffffffffffffffffffffffff1673ffffffffffffffffffffffffffffffffffffffff1681526020019081526020015f205f8282546101e391906103e8565b925050819055505050565b5f819050919050565b610200816101ee565b82525050565b5f6020820190506102195f8301846101f7565b92915050565b5f80fd5b5f73ffffffffffffffffffffffffffffffffffffffff82169050919050565b5f61024c82610223565b9050919050565b61025c81610242565b8114610266575f80fd5b50565b5f8135905061027781610253565b92915050565b5f602082840312156102925761029161021f565b5b5f61029f84828501610269565b91505092915050565b6102b1816101ee565b81146102bb575f80fd5b50565b5f813590506102cc816102a8565b92915050565b5f80604083850312156102e8576102e761021f565b5b5f6102f585828601610269565b9250506020610306858286016102be565b9150509250929050565b5f82825260208201905092915050565b7f496e73756666696369656e742062616c616e63650000000000000000000000005f82015250565b5f610354601483610310565b915061035f82610320565b602082019050919050565b5f6020820190508181035f83015261038181610348565b9050919050565b7f4e487b71000000000000000000000000000000000000000000000000000000005f52601160045260245ffd5b5f6103bf826101ee565b91506103ca836101ee565b92508282039050818111156103e2576103e1610388565b5b92915050565b5f6103f2826101ee565b91506103fd836101ee565b925082820190508082111561041557610414610388565b5b9291505056fea264697066735822122083bbeb20128b5aa2dab943664912bf9b9752f431ff1cacae74f825f50fdb0d1764736f6c634300081a0033",
					"opcodes": "PUSH1 0x80 PUSH1 0x40 MSTORE CALLVALUE DUP1 ISZERO PUSH2 0xF JUMPI PUSH0 DUP1 REVERT JUMPDEST POP PUSH2 0xBB8 PUSH1 0x1 DUP2 SWAP1 SSTORE POP PUSH1 0x3 PUSH1 0x1 SLOAD PUSH2 0x28 SWAP2 SWAP1 PUSH2 0x169 JUMP JUMPDEST PUSH0 DUP1 CALLER PUSH20 0xFFFFFFFFFFFFFFFFFFFFFFFFFFFFFFFFFFFFFFFF AND PUSH20 0xFFFFFFFFFFFFFFFFFFFFFFFFFFFFFFFFFFFFFFFF AND DUP2 MSTORE PUSH1 0x20 ADD SWAP1 DUP2 MSTORE PUSH1 0x20 ADD PUSH0 KECCAK256 DUP2 SWAP1 SSTORE POP PUSH1 0x3 PUSH1 0x1 SLOAD PUSH2 0x77 SWAP2 SWAP1 PUSH2 0x169 JUMP JUMPDEST PUSH0 DUP1 PUSH20 0xAB8483F64D9C6D1ECF9B849AE677DD3315835CB2 PUSH20 0xFFFFFFFFFFFFFFFFFFFFFFFFFFFFFFFFFFFFFFFF AND PUSH20 0xFFFFFFFFFFFFFFFFFFFFFFFFFFFFFFFFFFFFFFFF AND DUP2 MSTORE PUSH1 0x20 ADD SWAP1 DUP2 MSTORE PUSH1 0x20 ADD PUSH0 KECCAK256 DUP2 SWAP1 SSTORE POP PUSH1 0x3 PUSH1 0x1 SLOAD PUSH2 0xDA SWAP2 SWAP1 PUSH2 0x169 JUMP JUMPDEST PUSH0 DUP1 PUSH20 0x4B20993BC481177EC7E8F571CECAE8A9E22C02DB PUSH20 0xFFFFFFFFFFFFFFFFFFFFFFFFFFFFFFFFFFFFFFFF AND PUSH20 0xFFFFFFFFFFFFFFFFFFFFFFFFFFFFFFFFFFFFFFFF AND DUP2 MSTORE PUSH1 0x20 ADD SWAP1 DUP2 MSTORE PUSH1 0x20 ADD PUSH0 KECCAK256 DUP2 SWAP1 SSTORE POP PUSH2 0x199 JUMP JUMPDEST PUSH0 DUP2 SWAP1 POP SWAP2 SWAP1 POP JUMP JUMPDEST PUSH32 0x4E487B7100000000000000000000000000000000000000000000000000000000 PUSH0 MSTORE PUSH1 0x12 PUSH1 0x4 MSTORE PUSH1 0x24 PUSH0 REVERT JUMPDEST PUSH0 PUSH2 0x173 DUP3 PUSH2 0x133 JUMP JUMPDEST SWAP2 POP PUSH2 0x17E DUP4 PUSH2 0x133 JUMP JUMPDEST SWAP3 POP DUP3 PUSH2 0x18E JUMPI PUSH2 0x18D PUSH2 0x13C JUMP JUMPDEST JUMPDEST DUP3 DUP3 DIV SWAP1 POP SWAP3 SWAP2 POP POP JUMP JUMPDEST PUSH2 0x451 DUP1 PUSH2 0x1A6 PUSH0 CODECOPY PUSH0 RETURN INVALID PUSH1 0x80 PUSH1 0x40 MSTORE CALLVALUE DUP1 ISZERO PUSH2 0xF JUMPI PUSH0 DUP1 REVERT JUMPDEST POP PUSH1 0x4 CALLDATASIZE LT PUSH2 0x3F JUMPI PUSH0 CALLDATALOAD PUSH1 0xE0 SHR DUP1 PUSH4 0x18160DDD EQ PUSH2 0x43 JUMPI DUP1 PUSH4 0x27E235E3 EQ PUSH2 0x61 JUMPI DUP1 PUSH4 0xA9059CBB EQ PUSH2 0x91 JUMPI JUMPDEST PUSH0 DUP1 REVERT JUMPDEST PUSH2 0x4B PUSH2 0xAD JUMP JUMPDEST PUSH1 0x40 MLOAD PUSH2 0x58 SWAP2 SWAP1 PUSH2 0x206 JUMP JUMPDEST PUSH1 0x40 MLOAD DUP1 SWAP2 SUB SWAP1 RETURN JUMPDEST PUSH2 0x7B PUSH1 0x4 DUP1 CALLDATASIZE SUB DUP2 ADD SWAP1 PUSH2 0x76 SWAP2 SWAP1 PUSH2 0x27D JUMP JUMPDEST PUSH2 0xB3 JUMP JUMPDEST PUSH1 0x40 MLOAD PUSH2 0x88 SWAP2 SWAP1 PUSH2 0x206 JUMP JUMPDEST PUSH1 0x40 MLOAD DUP1 SWAP2 SUB SWAP1 RETURN JUMPDEST PUSH2 0xAB PUSH1 0x4 DUP1 CALLDATASIZE SUB DUP2 ADD SWAP1 PUSH2 0xA6 SWAP2 SWAP1 PUSH2 0x2D2 JUMP JUMPDEST PUSH2 0xC7 JUMP JUMPDEST STOP JUMPDEST PUSH1 0x1 SLOAD DUP2 JUMP JUMPDEST PUSH0 PUSH1 0x20 MSTORE DUP1 PUSH0 MSTORE PUSH1 0x40 PUSH0 KECCAK256 PUSH0 SWAP2 POP SWAP1 POP SLOAD DUP2 JUMP JUMPDEST DUP1 PUSH0 DUP1 CALLER PUSH20 0xFFFFFFFFFFFFFFFFFFFFFFFFFFFFFFFFFFFFFFFF AND PUSH20 0xFFFFFFFFFFFFFFFFFFFFFFFFFFFFFFFFFFFFFFFF AND DUP2 MSTORE PUSH1 0x20 ADD SWAP1 DUP2 MSTORE PUSH1 0x20 ADD PUSH0 KECCAK256 SLOAD LT ISZERO PUSH2 0x146 JUMPI PUSH1 0x40 MLOAD PUSH32 0x8C379A000000000000000000000000000000000000000000000000000000000 DUP2 MSTORE PUSH1 0x4 ADD PUSH2 0x13D SWAP1 PUSH2 0x36A JUMP JUMPDEST PUSH1 0x40 MLOAD DUP1 SWAP2 SUB SWAP1 REVERT JUMPDEST DUP1 PUSH0 DUP1 CALLER PUSH20 0xFFFFFFFFFFFFFFFFFFFFFFFFFFFFFFFFFFFFFFFF AND PUSH20 0xFFFFFFFFFFFFFFFFFFFFFFFFFFFFFFFFFFFFFFFF AND DUP2 MSTORE PUSH1 0x20 ADD SWAP1 DUP2 MSTORE PUSH1 0x20 ADD PUSH0 KECCAK256 PUSH0 DUP3 DUP3 SLOAD PUSH2 0x191 SWAP2 SWAP1 PUSH2 0x3B5 JUMP JUMPDEST SWAP3 POP POP DUP2 SWAP1 SSTORE POP DUP1 PUSH0 DUP1 DUP5 PUSH20 0xFFFFFFFFFFFFFFFFFFFFFFFFFFFFFFFFFFFFFFFF AND PUSH20 0xFFFFFFFFFFFFFFFFFFFFFFFFFFFFFFFFFFFFFFFF AND DUP2 MSTORE PUSH1 0x20 ADD SWAP1 DUP2 MSTORE PUSH1 0x20 ADD PUSH0 KECCAK256 PUSH0 DUP3 DUP3 SLOAD PUSH2 0x1E3 SWAP2 SWAP1 PUSH2 0x3E8 JUMP JUMPDEST SWAP3 POP POP DUP2 SWAP1 SSTORE POP POP POP JUMP JUMPDEST PUSH0 DUP2 SWAP1 POP SWAP2 SWAP1 POP JUMP JUMPDEST PUSH2 0x200 DUP2 PUSH2 0x1EE JUMP JUMPDEST DUP3 MSTORE POP POP JUMP JUMPDEST PUSH0 PUSH1 0x20 DUP3 ADD SWAP1 POP PUSH2 0x219 PUSH0 DUP4 ADD DUP5 PUSH2 0x1F7 JUMP JUMPDEST SWAP3 SWAP2 POP POP JUMP JUMPDEST PUSH0 DUP1 REVERT JUMPDEST PUSH0 PUSH20 0xFFFFFFFFFFFFFFFFFFFFFFFFFFFFFFFFFFFFFFFF DUP3 AND SWAP1 POP SWAP2 SWAP1 POP JUMP JUMPDEST PUSH0 PUSH2 0x24C DUP3 PUSH2 0x223 JUMP JUMPDEST SWAP1 POP SWAP2 SWAP1 POP JUMP JUMPDEST PUSH2 0x25C DUP2 PUSH2 0x242 JUMP JUMPDEST DUP2 EQ PUSH2 0x266 JUMPI PUSH0 DUP1 REVERT JUMPDEST POP JUMP JUMPDEST PUSH0 DUP2 CALLDATALOAD SWAP1 POP PUSH2 0x277 DUP2 PUSH2 0x253 JUMP JUMPDEST SWAP3 SWAP2 POP POP JUMP JUMPDEST PUSH0 PUSH1 0x20 DUP3 DUP5 SUB SLT ISZERO PUSH2 0x292 JUMPI PUSH2 0x291 PUSH2 0x21F JUMP JUMPDEST JUMPDEST PUSH0 PUSH2 0x29F DUP5 DUP3 DUP6 ADD PUSH2 0x269 JUMP JUMPDEST SWAP2 POP POP SWAP3 SWAP2 POP POP JUMP JUMPDEST PUSH2 0x2B1 DUP2 PUSH2 0x1EE JUMP JUMPDEST DUP2 EQ PUSH2 0x2BB JUMPI PUSH0 DUP1 REVERT JUMPDEST POP JUMP JUMPDEST PUSH0 DUP2 CALLDATALOAD SWAP1 POP PUSH2 0x2CC DUP2 PUSH2 0x2A8 JUMP JUMPDEST SWAP3 SWAP2 POP POP JUMP JUMPDEST PUSH0 DUP1 PUSH1 0x40 DUP4 DUP6 SUB SLT ISZERO PUSH2 0x2E8 JUMPI PUSH2 0x2E7 PUSH2 0x21F JUMP JUMPDEST JUMPDEST PUSH0 PUSH2 0x2F5 DUP6 DUP3 DUP7 ADD PUSH2 0x269 JUMP JUMPDEST SWAP3 POP POP PUSH1 0x20 PUSH2 0x306 DUP6 DUP3 DUP7 ADD PUSH2 0x2BE JUMP JUMPDEST SWAP2 POP POP SWAP3 POP SWAP3 SWAP1 POP JUMP JUMPDEST PUSH0 DUP3 DUP3 MSTORE PUSH1 0x20 DUP3 ADD SWAP1 POP SWAP3 SWAP2 POP POP JUMP JUMPDEST PUSH32 0x496E73756666696369656E742062616C616E6365000000000000000000000000 PUSH0 DUP3 ADD MSTORE POP JUMP JUMPDEST PUSH0 PUSH2 0x354 PUSH1 0x14 DUP4 PUSH2 0x310 JUMP JUMPDEST SWAP2 POP PUSH2 0x35F DUP3 PUSH2 0x320 JUMP JUMPDEST PUSH1 0x20 DUP3 ADD SWAP1 POP SWAP2 SWAP1 POP JUMP JUMPDEST PUSH0 PUSH1 0x20 DUP3 ADD SWAP1 POP DUP2 DUP2 SUB PUSH0 DUP4 ADD MSTORE PUSH2 0x381 DUP2 PUSH2 0x348 JUMP JUMPDEST SWAP1 POP SWAP2 SWAP1 POP JUMP JUMPDEST PUSH32 0x4E487B7100000000000000000000000000000000000000000000000000000000 PUSH0 MSTORE PUSH1 0x11 PUSH1 0x4 MSTORE PUSH1 0x24 PUSH0 REVERT JUMPDEST PUSH0 PUSH2 0x3BF DUP3 PUSH2 0x1EE JUMP JUMPDEST SWAP2 POP PUSH2 0x3CA DUP4 PUSH2 0x1EE JUMP JUMPDEST SWAP3 POP DUP3 DUP3 SUB SWAP1 POP DUP2 DUP2 GT ISZERO PUSH2 0x3E2 JUMPI PUSH2 0x3E1 PUSH2 0x388 JUMP JUMPDEST JUMPDEST SWAP3 SWAP2 POP POP JUMP JUMPDEST PUSH0 PUSH2 0x3F2 DUP3 PUSH2 0x1EE JUMP JUMPDEST SWAP2 POP PUSH2 0x3FD DUP4 PUSH2 0x1EE JUMP JUMPDEST SWAP3 POP DUP3 DUP3 ADD SWAP1 POP DUP1 DUP3 GT ISZERO PUSH2 0x415 JUMPI PUSH2 0x414 PUSH2 0x388 JUMP JUMPDEST JUMPDEST SWAP3 SWAP2 POP POP JUMP INVALID LOG2 PUSH5 0x6970667358 0x22 SLT KECCAK256 DUP4 0xBB 0xEB KECCAK256 SLT DUP12 GAS LOG2 0xDA 0xB9 NUMBER PUSH7 0x4912BF9B9752F4 BALANCE SELFDESTRUCT SHR 0xAC 0xAE PUSH21 0xF825F50FDB0D1764736F6C634300081A0033000000 "
				},
				"gasEstimates": {
					"creation": {
						"codeDepositCost": "221000",
						"executionCost": "infinite",
						"totalCost": "infinite"
					},
					"external": {
						"balances(address)": "2801",
						"totalSupply()": "2403",
						"transfer(address,uint256)": "infinite"
					}
				},
				"methodIdentifiers": {
					"balances(address)": "27e235e3",
					"totalSupply()": "18160ddd",
					"transfer(address,uint256)": "a9059cbb"
				}
			},
			"storageLayout": {
				"storage": [
					{
						"astId": 5,
						"contract": "Project-10-Minimal-Tokens/MinimalToken.sol:MinimalToken",
						"label": "balances",
						"offset": 0,
						"slot": "0",
						"type": "t_mapping(t_address,t_uint256)"
					},
					{
						"astId": 7,
						"contract": "Project-10-Minimal-Tokens/MinimalToken.sol:MinimalToken",
						"label": "totalSupply",
						"offset": 0,
						"slot": "1",
						"type": "t_uint256"
					}
				],
				"types": {
					"t_address": {
						"encoding": "inplace",
						"label": "address",
						"numberOfBytes": "20"
					},
					"t_mapping(t_address,t_uint256)": {
						"encoding": "mapping",
						"key": "t_address",
						"label": "mapping(address => uint256)",
						"numberOfBytes": "32",
						"value": "t_uint256"
					},
					"t_uint256": {
						"encoding": "inplace",
						"label": "uint256",
						"numberOfBytes": "32"
					}
				}
			},
			"userdoc": {
				"kind": "user",
				"methods": {},
				"version": 1
			}
		}
	}
}