{
	"data": {
		"bytecode": {
			"linkReferences": {},
			"object": "6080604052348015600e575f80fd5b50610c958061001c5f395ff3fe608060405234801561000f575f80fd5b506004361061004a575f3560e01c80637848ccf81461004e578063a87430ba1461006a578063d3eb95411461009b578063e45dc9cb146100cb575b5f80fd5b610068600480360381019061006391906104a7565b6100fd565b005b610084600480360381019061007f9190610586565b610178565b60405161009292919061063c565b60405180910390f35b6100b560048036038101906100b091906107bc565b61022a565b6040516100c29190610830565b60405180910390f35b6100e560048036038101906100e09190610849565b6102c1565b6040516100f493929190610883565b60405180910390f35b5f8060018160018154018082558091505003905f5260205f209060050201905085815f01819055508481600101819055508383826002019182610141929190610ac3565b50818160030190600561015592919061037b565b506042816004015f602181526020019081526020015f2081905550505050505050565b6001602052805f5260405f205f91509050805f015f9054906101000a900460ff16908060010180546101a9906108f6565b80601f01602080910402602001604051908101604052809291908181526020018280546101d5906108f6565b80156102205780601f106101f757610100808354040283529160200191610220565b820191905f5260205f20905b81548152906001019060200180831161020357829003601f168201915b5050505050905082565b5f60405180604001604052808460ff1681526020018381525060015f3373ffffffffffffffffffffffffffffffffffffffff1673ffffffffffffffffffffffffffffffffffffffff1681526020019081526020015f205f820151815f015f6101000a81548160ff021916908360ff16021790555060208201518160010190816102b39190610b90565b509050506001905092915050565b5f81815481106102cf575f80fd5b905f5260205f2090600502015f91509050805f0154908060010154908060020180546102fa906108f6565b80601f0160208091040260200160405190810160405280929190818152602001828054610326906108f6565b80156103715780601f1061034857610100808354040283529160200191610371565b820191905f5260205f20905b81548152906001019060200180831161035457829003601f168201915b5050505050905083565b828054828255905f5260205f209081019282156103b5579160200282015b828111156103b4578235825591602001919060010190610399565b5b5090506103c291906103c6565b5090565b5b808211156103dd575f815f9055506001016103c7565b5090565b5f604051905090565b5f80fd5b5f80fd5b5f819050919050565b610404816103f2565b811461040e575f80fd5b50565b5f8135905061041f816103fb565b92915050565b5f80fd5b5f80fd5b5f80fd5b5f8083601f84011261044657610445610425565b5b8235905067ffffffffffffffff81111561046357610462610429565b5b60208301915083600182028301111561047f5761047e61042d565b5b9250929050565b5f819050826020600502820111156104a1576104a061042d565b5b92915050565b5f805f805f61010086880312156104c1576104c06103ea565b5b5f6104ce88828901610411565b95505060206104df88828901610411565b945050604086013567ffffffffffffffff811115610500576104ff6103ee565b5b61050c88828901610431565b9350935050606061051f88828901610486565b9150509295509295909350565b5f73ffffffffffffffffffffffffffffffffffffffff82169050919050565b5f6105558261052c565b9050919050565b6105658161054b565b811461056f575f80fd5b50565b5f813590506105808161055c565b92915050565b5f6020828403121561059b5761059a6103ea565b5b5f6105a884828501610572565b91505092915050565b5f60ff82169050919050565b6105c6816105b1565b82525050565b5f81519050919050565b5f82825260208201905092915050565b8281835e5f83830152505050565b5f601f19601f8301169050919050565b5f61060e826105cc565b61061881856105d6565b93506106288185602086016105e6565b610631816105f4565b840191505092915050565b5f60408201905061064f5f8301856105bd565b81810360208301526106618184610604565b90509392505050565b610673816105b1565b811461067d575f80fd5b50565b5f8135905061068e8161066a565b92915050565b5f80fd5b7f4e487b71000000000000000000000000000000000000000000000000000000005f52604160045260245ffd5b6106ce826105f4565b810181811067ffffffffffffffff821117156106ed576106ec610698565b5b80604052505050565b5f6106ff6103e1565b905061070b82826106c5565b919050565b5f67ffffffffffffffff82111561072a57610729610698565b5b610733826105f4565b9050602081019050919050565b828183375f83830152505050565b5f61076061075b84610710565b6106f6565b90508281526020810184848401111561077c5761077b610694565b5b610787848285610740565b509392505050565b5f82601f8301126107a3576107a2610425565b5b81356107b384826020860161074e565b91505092915050565b5f80604083850312156107d2576107d16103ea565b5b5f6107df85828601610680565b925050602083013567ffffffffffffffff811115610800576107ff6103ee565b5b61080c8582860161078f565b9150509250929050565b5f8115159050919050565b61082a81610816565b82525050565b5f6020820190506108435f830184610821565b92915050565b5f6020828403121561085e5761085d6103ea565b5b5f61086b84828501610411565b91505092915050565b61087d816103f2565b82525050565b5f6060820190506108965f830186610874565b6108a36020830185610874565b81810360408301526108b58184610604565b9050949350505050565b5f82905092915050565b7f4e487b71000000000000000000000000000000000000000000000000000000005f52602260045260245ffd5b5f600282049050600182168061090d57607f821691505b6020821081036109205761091f6108c9565b5b50919050565b5f819050815f5260205f209050919050565b5f6020601f8301049050919050565b5f82821b905092915050565b5f600883026109827fffffffffffffffffffffffffffffffffffffffffffffffffffffffffffffffff82610947565b61098c8683610947565b95508019841693508086168417925050509392505050565b5f819050919050565b5f6109c76109c26109bd846103f2565b6109a4565b6103f2565b9050919050565b5f819050919050565b6109e0836109ad565b6109f46109ec826109ce565b848454610953565b825550505050565b5f90565b610a086109fc565b610a138184846109d7565b505050565b5b81811015610a3657610a2b5f82610a00565b600181019050610a19565b5050565b601f821115610a7b57610a4c81610926565b610a5584610938565b81016020851015610a64578190505b610a78610a7085610938565b830182610a18565b50505b505050565b5f82821c905092915050565b5f610a9b5f1984600802610a80565b1980831691505092915050565b5f610ab38383610a8c565b9150826002028217905092915050565b610acd83836108bf565b67ffffffffffffffff811115610ae657610ae5610698565b5b610af082546108f6565b610afb828285610a3a565b5f601f831160018114610b28575f8415610b16578287013590505b610b208582610aa8565b865550610b87565b601f198416610b3686610926565b5f5b82811015610b5d57848901358255600182019150602085019450602081019050610b38565b86831015610b7a5784890135610b76601f891682610a8c565b8355505b6001600288020188555050505b50505050505050565b610b99826105cc565b67ffffffffffffffff811115610bb257610bb1610698565b5b610bbc82546108f6565b610bc7828285610a3a565b5f60209050601f831160018114610bf8575f8415610be6578287015190505b610bf08582610aa8565b865550610c57565b601f198416610c0686610926565b5f5b82811015610c2d57848901518255600182019150602085019450602081019050610c08565b86831015610c4a5784890151610c46601f891682610a8c565b8355505b6001600288020188555050505b50505050505056fea2646970667358221220ceca6b8714e7858df50a44c2651ace2223be184da080db8cf62bc68f1737dfe664736f6c634300081a0033",
			"opcodes": "PUSH1 0x80 PUSH1 0x40 MSTORE CALLVALUE DUP1 ISZERO PUSH1 0xE JUMPI PUSH0 DUP1 REVERT JUMPDEST POP PUSH2 0xC95 DUP1 PUSH2 0x1C PUSH0 CODECOPY PUSH0 RETURN INVALID PUSH1 0x80 PUSH1 0x40 MSTORE CALLVALUE DUP1 ISZERO PUSH2 0xF JUMPI PUSH0 DUP1 REVERT JUMPDEST POP PUSH1 0x4 CALLDATASIZE LT PUSH2 0x4A JUMPI PUSH0 CALLDATALOAD PUSH1 0xE0 SHR DUP1 PUSH4 0x7848CCF8 EQ PUSH2 0x4E JUMPI DUP1 PUSH4 0xA87430BA EQ PUSH2 0x6A JUMPI DUP1 PUSH4 0xD3EB9541 EQ PUSH2 0x9B JUMPI DUP1 PUSH4 0xE45DC9CB EQ PUSH2 0xCB JUMPI JUMPDEST PUSH0 DUP1 REVERT JUMPDEST PUSH2 0x68 PUSH1 0x4 DUP1 CALLDATASIZE SUB DUP2 ADD SWAP1 PUSH2 0x63 SWAP2 SWAP1 PUSH2 0x4A7 JUMP JUMPDEST PUSH2 0xFD JUMP JUMPDEST STOP JUMPDEST PUSH2 0x84 PUSH1 0x4 DUP1 CALLDATASIZE SUB DUP2 ADD SWAP1 PUSH2 0x7F SWAP2 SWAP1 PUSH2 0x586 JUMP JUMPDEST PUSH2 0x178 JUMP JUMPDEST PUSH1 0x40 MLOAD PUSH2 0x92 SWAP3 SWAP2 SWAP1 PUSH2 0x63C JUMP JUMPDEST PUSH1 0x40 MLOAD DUP1 SWAP2 SUB SWAP1 RETURN JUMPDEST PUSH2 0xB5 PUSH1 0x4 DUP1 CALLDATASIZE SUB DUP2 ADD SWAP1 PUSH2 0xB0 SWAP2 SWAP1 PUSH2 0x7BC JUMP JUMPDEST PUSH2 0x22A JUMP JUMPDEST PUSH1 0x40 MLOAD PUSH2 0xC2 SWAP2 SWAP1 PUSH2 0x830 JUMP JUMPDEST PUSH1 0x40 MLOAD DUP1 SWAP2 SUB SWAP1 RETURN JUMPDEST PUSH2 0xE5 PUSH1 0x4 DUP1 CALLDATASIZE SUB DUP2 ADD SWAP1 PUSH2 0xE0 SWAP2 SWAP1 PUSH2 0x849 JUMP JUMPDEST PUSH2 0x2C1 JUMP JUMPDEST PUSH1 0x40 MLOAD PUSH2 0xF4 SWAP4 SWAP3 SWAP2 SWAP1 PUSH2 0x883 JUMP JUMPDEST PUSH1 0x40 MLOAD DUP1 SWAP2 SUB SWAP1 RETURN JUMPDEST PUSH0 DUP1 PUSH1 0x1 DUP2 PUSH1 0x1 DUP2 SLOAD ADD DUP1 DUP3 SSTORE DUP1 SWAP2 POP POP SUB SWAP1 PUSH0 MSTORE PUSH1 0x20 PUSH0 KECCAK256 SWAP1 PUSH1 0x5 MUL ADD SWAP1 POP DUP6 DUP2 PUSH0 ADD DUP2 SWAP1 SSTORE POP DUP5 DUP2 PUSH1 0x1 ADD DUP2 SWAP1 SSTORE POP DUP4 DUP4 DUP3 PUSH1 0x2 ADD SWAP2 DUP3 PUSH2 0x141 SWAP3 SWAP2 SWAP1 PUSH2 0xAC3 JUMP JUMPDEST POP DUP2 DUP2 PUSH1 0x3 ADD SWAP1 PUSH1 0x5 PUSH2 0x155 SWAP3 SWAP2 SWAP1 PUSH2 0x37B JUMP JUMPDEST POP PUSH1 0x42 DUP2 PUSH1 0x4 ADD PUSH0 PUSH1 0x21 DUP2 MSTORE PUSH1 0x20 ADD SWAP1 DUP2 MSTORE PUSH1 0x20 ADD PUSH0 KECCAK256 DUP2 SWAP1 SSTORE POP POP POP POP POP POP POP JUMP JUMPDEST PUSH1 0x1 PUSH1 0x20 MSTORE DUP1 PUSH0 MSTORE PUSH1 0x40 PUSH0 KECCAK256 PUSH0 SWAP2 POP SWAP1 POP DUP1 PUSH0 ADD PUSH0 SWAP1 SLOAD SWAP1 PUSH2 0x100 EXP SWAP1 DIV PUSH1 0xFF AND SWAP1 DUP1 PUSH1 0x1 ADD DUP1 SLOAD PUSH2 0x1A9 SWAP1 PUSH2 0x8F6 JUMP JUMPDEST DUP1 PUSH1 0x1F ADD PUSH1 0x20 DUP1 SWAP2 DIV MUL PUSH1 0x20 ADD PUSH1 0x40 MLOAD SWAP1 DUP2 ADD PUSH1 0x40 MSTORE DUP1 SWAP3 SWAP2 SWAP1 DUP2 DUP2 MSTORE PUSH1 0x20 ADD DUP3 DUP1 SLOAD PUSH2 0x1D5 SWAP1 PUSH2 0x8F6 JUMP JUMPDEST DUP1 ISZERO PUSH2 0x220 JUMPI DUP1 PUSH1 0x1F LT PUSH2 0x1F7 JUMPI PUSH2 0x100 DUP1 DUP4 SLOAD DIV MUL DUP4 MSTORE SWAP2 PUSH1 0x20 ADD SWAP2 PUSH2 0x220 JUMP JUMPDEST DUP3 ADD SWAP2 SWAP1 PUSH0 MSTORE PUSH1 0x20 PUSH0 KECCAK256 SWAP1 JUMPDEST DUP2 SLOAD DUP2 MSTORE SWAP1 PUSH1 0x1 ADD SWAP1 PUSH1 0x20 ADD DUP1 DUP4 GT PUSH2 0x203 JUMPI DUP3 SWAP1 SUB PUSH1 0x1F AND DUP3 ADD SWAP2 JUMPDEST POP POP POP POP POP SWAP1 POP DUP3 JUMP JUMPDEST PUSH0 PUSH1 0x40 MLOAD DUP1 PUSH1 0x40 ADD PUSH1 0x40 MSTORE DUP1 DUP5 PUSH1 0xFF AND DUP2 MSTORE PUSH1 0x20 ADD DUP4 DUP2 MSTORE POP PUSH1 0x1 PUSH0 CALLER PUSH20 0xFFFFFFFFFFFFFFFFFFFFFFFFFFFFFFFFFFFFFFFF AND PUSH20 0xFFFFFFFFFFFFFFFFFFFFFFFFFFFFFFFFFFFFFFFF AND DUP2 MSTORE PUSH1 0x20 ADD SWAP1 DUP2 MSTORE PUSH1 0x20 ADD PUSH0 KECCAK256 PUSH0 DUP3 ADD MLOAD DUP2 PUSH0 ADD PUSH0 PUSH2 0x100 EXP DUP2 SLOAD DUP2 PUSH1 0xFF MUL NOT AND SWAP1 DUP4 PUSH1 0xFF AND MUL OR SWAP1 SSTORE POP PUSH1 0x20 DUP3 ADD MLOAD DUP2 PUSH1 0x1 ADD SWAP1 DUP2 PUSH2 0x2B3 SWAP2 SWAP1 PUSH2 0xB90 JUMP JUMPDEST POP SWAP1 POP POP PUSH1 0x1 SWAP1 POP SWAP3 SWAP2 POP POP JUMP JUMPDEST PUSH0 DUP2 DUP2 SLOAD DUP2 LT PUSH2 0x2CF JUMPI PUSH0 DUP1 REVERT JUMPDEST SWAP1 PUSH0 MSTORE PUSH1 0x20 PUSH0 KECCAK256 SWAP1 PUSH1 0x5 MUL ADD PUSH0 SWAP2 POP SWAP1 POP DUP1 PUSH0 ADD SLOAD SWAP1 DUP1 PUSH1 0x1 ADD SLOAD SWAP1 DUP1 PUSH1 0x2 ADD DUP1 SLOAD PUSH2 0x2FA SWAP1 PUSH2 0x8F6 JUMP JUMPDEST DUP1 PUSH1 0x1F ADD PUSH1 0x20 DUP1 SWAP2 DIV MUL PUSH1 0x20 ADD PUSH1 0x40 MLOAD SWAP1 DUP2 ADD PUSH1 0x40 MSTORE DUP1 SWAP3 SWAP2 SWAP1 DUP2 DUP2 MSTORE PUSH1 0x20 ADD DUP3 DUP1 SLOAD PUSH2 0x326 SWAP1 PUSH2 0x8F6 JUMP JUMPDEST DUP1 ISZERO PUSH2 0x371 JUMPI DUP1 PUSH1 0x1F LT PUSH2 0x348 JUMPI PUSH2 0x100 DUP1 DUP4 SLOAD DIV MUL DUP4 MSTORE SWAP2 PUSH1 0x20 ADD SWAP2 PUSH2 0x371 JUMP JUMPDEST DUP3 ADD SWAP2 SWAP1 PUSH0 MSTORE PUSH1 0x20 PUSH0 KECCAK256 SWAP1 JUMPDEST DUP2 SLOAD DUP2 MSTORE SWAP1 PUSH1 0x1 ADD SWAP1 PUSH1 0x20 ADD DUP1 DUP4 GT PUSH2 0x354 JUMPI DUP3 SWAP1 SUB PUSH1 0x1F AND DUP3 ADD SWAP2 JUMPDEST POP POP POP POP POP SWAP1 POP DUP4 JUMP JUMPDEST DUP3 DUP1 SLOAD DUP3 DUP3 SSTORE SWAP1 PUSH0 MSTORE PUSH1 0x20 PUSH0 KECCAK256 SWAP1 DUP2 ADD SWAP3 DUP3 ISZERO PUSH2 0x3B5 JUMPI SWAP2 PUSH1 0x20 MUL DUP3 ADD JUMPDEST DUP3 DUP2 GT ISZERO PUSH2 0x3B4 JUMPI DUP3 CALLDATALOAD DUP3 SSTORE SWAP2 PUSH1 0x20 ADD SWAP2 SWAP1 PUSH1 0x1 ADD SWAP1 PUSH2 0x399 JUMP JUMPDEST JUMPDEST POP SWAP1 POP PUSH2 0x3C2 SWAP2 SWAP1 PUSH2 0x3C6 JUMP JUMPDEST POP SWAP1 JUMP JUMPDEST JUMPDEST DUP1 DUP3 GT ISZERO PUSH2 0x3DD JUMPI PUSH0 DUP2 PUSH0 SWAP1 SSTORE POP PUSH1 0x1 ADD PUSH2 0x3C7 JUMP JUMPDEST POP SWAP1 JUMP JUMPDEST PUSH0 PUSH1 0x40 MLOAD SWAP1 POP SWAP1 JUMP JUMPDEST PUSH0 DUP1 REVERT JUMPDEST PUSH0 DUP1 REVERT JUMPDEST PUSH0 DUP2 SWAP1 POP SWAP2 SWAP1 POP JUMP JUMPDEST PUSH2 0x404 DUP2 PUSH2 0x3F2 JUMP JUMPDEST DUP2 EQ PUSH2 0x40E JUMPI PUSH0 DUP1 REVERT JUMPDEST POP JUMP JUMPDEST PUSH0 DUP2 CALLDATALOAD SWAP1 POP PUSH2 0x41F DUP2 PUSH2 0x3FB JUMP JUMPDEST SWAP3 SWAP2 POP POP JUMP JUMPDEST PUSH0 DUP1 REVERT JUMPDEST PUSH0 DUP1 REVERT JUMPDEST PUSH0 DUP1 REVERT JUMPDEST PUSH0 DUP1 DUP4 PUSH1 0x1F DUP5 ADD SLT PUSH2 0x446 JUMPI PUSH2 0x445 PUSH2 0x425 JUMP JUMPDEST JUMPDEST DUP3 CALLDATALOAD SWAP1 POP PUSH8 0xFFFFFFFFFFFFFFFF DUP2 GT ISZERO PUSH2 0x463 JUMPI PUSH2 0x462 PUSH2 0x429 JUMP JUMPDEST JUMPDEST PUSH1 0x20 DUP4 ADD SWAP2 POP DUP4 PUSH1 0x1 DUP3 MUL DUP4 ADD GT ISZERO PUSH2 0x47F JUMPI PUSH2 0x47E PUSH2 0x42D JUMP JUMPDEST JUMPDEST SWAP3 POP SWAP3 SWAP1 POP JUMP JUMPDEST PUSH0 DUP2 SWAP1 POP DUP3 PUSH1 0x20 PUSH1 0x5 MUL DUP3 ADD GT ISZERO PUSH2 0x4A1 JUMPI PUSH2 0x4A0 PUSH2 0x42D JUMP JUMPDEST JUMPDEST SWAP3 SWAP2 POP POP JUMP JUMPDEST PUSH0 DUP1 PUSH0 DUP1 PUSH0 PUSH2 0x100 DUP7 DUP9 SUB SLT ISZERO PUSH2 0x4C1 JUMPI PUSH2 0x4C0 PUSH2 0x3EA JUMP JUMPDEST JUMPDEST PUSH0 PUSH2 0x4CE DUP9 DUP3 DUP10 ADD PUSH2 0x411 JUMP JUMPDEST SWAP6 POP POP PUSH1 0x20 PUSH2 0x4DF DUP9 DUP3 DUP10 ADD PUSH2 0x411 JUMP JUMPDEST SWAP5 POP POP PUSH1 0x40 DUP7 ADD CALLDATALOAD PUSH8 0xFFFFFFFFFFFFFFFF DUP2 GT ISZERO PUSH2 0x500 JUMPI PUSH2 0x4FF PUSH2 0x3EE JUMP JUMPDEST JUMPDEST PUSH2 0x50C DUP9 DUP3 DUP10 ADD PUSH2 0x431 JUMP JUMPDEST SWAP4 POP SWAP4 POP POP PUSH1 0x60 PUSH2 0x51F DUP9 DUP3 DUP10 ADD PUSH2 0x486 JUMP JUMPDEST SWAP2 POP POP SWAP3 SWAP6 POP SWAP3 SWAP6 SWAP1 SWAP4 POP JUMP JUMPDEST PUSH0 PUSH20 0xFFFFFFFFFFFFFFFFFFFFFFFFFFFFFFFFFFFFFFFF DUP3 AND SWAP1 POP SWAP2 SWAP1 POP JUMP JUMPDEST PUSH0 PUSH2 0x555 DUP3 PUSH2 0x52C JUMP JUMPDEST SWAP1 POP SWAP2 SWAP1 POP JUMP JUMPDEST PUSH2 0x565 DUP2 PUSH2 0x54B JUMP JUMPDEST DUP2 EQ PUSH2 0x56F JUMPI PUSH0 DUP1 REVERT JUMPDEST POP JUMP JUMPDEST PUSH0 DUP2 CALLDATALOAD SWAP1 POP PUSH2 0x580 DUP2 PUSH2 0x55C JUMP JUMPDEST SWAP3 SWAP2 POP POP JUMP JUMPDEST PUSH0 PUSH1 0x20 DUP3 DUP5 SUB SLT ISZERO PUSH2 0x59B JUMPI PUSH2 0x59A PUSH2 0x3EA JUMP JUMPDEST JUMPDEST PUSH0 PUSH2 0x5A8 DUP5 DUP3 DUP6 ADD PUSH2 0x572 JUMP JUMPDEST SWAP2 POP POP SWAP3 SWAP2 POP POP JUMP JUMPDEST PUSH0 PUSH1 0xFF DUP3 AND SWAP1 POP SWAP2 SWAP1 POP JUMP JUMPDEST PUSH2 0x5C6 DUP2 PUSH2 0x5B1 JUMP JUMPDEST DUP3 MSTORE POP POP JUMP JUMPDEST PUSH0 DUP2 MLOAD SWAP1 POP SWAP2 SWAP1 POP JUMP JUMPDEST PUSH0 DUP3 DUP3 MSTORE PUSH1 0x20 DUP3 ADD SWAP1 POP SWAP3 SWAP2 POP POP JUMP JUMPDEST DUP3 DUP2 DUP4 MCOPY PUSH0 DUP4 DUP4 ADD MSTORE POP POP POP JUMP JUMPDEST PUSH0 PUSH1 0x1F NOT PUSH1 0x1F DUP4 ADD AND SWAP1 POP SWAP2 SWAP1 POP JUMP JUMPDEST PUSH0 PUSH2 0x60E DUP3 PUSH2 0x5CC JUMP JUMPDEST PUSH2 0x618 DUP2 DUP6 PUSH2 0x5D6 JUMP JUMPDEST SWAP4 POP PUSH2 0x628 DUP2 DUP6 PUSH1 0x20 DUP7 ADD PUSH2 0x5E6 JUMP JUMPDEST PUSH2 0x631 DUP2 PUSH2 0x5F4 JUMP JUMPDEST DUP5 ADD SWAP2 POP POP SWAP3 SWAP2 POP POP JUMP JUMPDEST PUSH0 PUSH1 0x40 DUP3 ADD SWAP1 POP PUSH2 0x64F PUSH0 DUP4 ADD DUP6 PUSH2 0x5BD JUMP JUMPDEST DUP2 DUP2 SUB PUSH1 0x20 DUP4 ADD MSTORE PUSH2 0x661 DUP2 DUP5 PUSH2 0x604 JUMP JUMPDEST SWAP1 POP SWAP4 SWAP3 POP POP POP JUMP JUMPDEST PUSH2 0x673 DUP2 PUSH2 0x5B1 JUMP JUMPDEST DUP2 EQ PUSH2 0x67D JUMPI PUSH0 DUP1 REVERT JUMPDEST POP JUMP JUMPDEST PUSH0 DUP2 CALLDATALOAD SWAP1 POP PUSH2 0x68E DUP2 PUSH2 0x66A JUMP JUMPDEST SWAP3 SWAP2 POP POP JUMP JUMPDEST PUSH0 DUP1 REVERT JUMPDEST PUSH32 0x4E487B7100000000000000000000000000000000000000000000000000000000 PUSH0 MSTORE PUSH1 0x41 PUSH1 0x4 MSTORE PUSH1 0x24 PUSH0 REVERT JUMPDEST PUSH2 0x6CE DUP3 PUSH2 0x5F4 JUMP JUMPDEST DUP2 ADD DUP2 DUP2 LT PUSH8 0xFFFFFFFFFFFFFFFF DUP3 GT OR ISZERO PUSH2 0x6ED JUMPI PUSH2 0x6EC PUSH2 0x698 JUMP JUMPDEST JUMPDEST DUP1 PUSH1 0x40 MSTORE POP POP POP JUMP JUMPDEST PUSH0 PUSH2 0x6FF PUSH2 0x3E1 JUMP JUMPDEST SWAP1 POP PUSH2 0x70B DUP3 DUP3 PUSH2 0x6C5 JUMP JUMPDEST SWAP2 SWAP1 POP JUMP JUMPDEST PUSH0 PUSH8 0xFFFFFFFFFFFFFFFF DUP3 GT ISZERO PUSH2 0x72A JUMPI PUSH2 0x729 PUSH2 0x698 JUMP JUMPDEST JUMPDEST PUSH2 0x733 DUP3 PUSH2 0x5F4 JUMP JUMPDEST SWAP1 POP PUSH1 0x20 DUP2 ADD SWAP1 POP SWAP2 SWAP1 POP JUMP JUMPDEST DUP3 DUP2 DUP4 CALLDATACOPY PUSH0 DUP4 DUP4 ADD MSTORE POP POP POP JUMP JUMPDEST PUSH0 PUSH2 0x760 PUSH2 0x75B DUP5 PUSH2 0x710 JUMP JUMPDEST PUSH2 0x6F6 JUMP JUMPDEST SWAP1 POP DUP3 DUP2 MSTORE PUSH1 0x20 DUP2 ADD DUP5 DUP5 DUP5 ADD GT ISZERO PUSH2 0x77C JUMPI PUSH2 0x77B PUSH2 0x694 JUMP JUMPDEST JUMPDEST PUSH2 0x787 DUP5 DUP3 DUP6 PUSH2 0x740 JUMP JUMPDEST POP SWAP4 SWAP3 POP POP POP JUMP JUMPDEST PUSH0 DUP3 PUSH1 0x1F DUP4 ADD SLT PUSH2 0x7A3 JUMPI PUSH2 0x7A2 PUSH2 0x425 JUMP JUMPDEST JUMPDEST DUP2 CALLDATALOAD PUSH2 0x7B3 DUP5 DUP3 PUSH1 0x20 DUP7 ADD PUSH2 0x74E JUMP JUMPDEST SWAP2 POP POP SWAP3 SWAP2 POP POP JUMP JUMPDEST PUSH0 DUP1 PUSH1 0x40 DUP4 DUP6 SUB SLT ISZERO PUSH2 0x7D2 JUMPI PUSH2 0x7D1 PUSH2 0x3EA JUMP JUMPDEST JUMPDEST PUSH0 PUSH2 0x7DF DUP6 DUP3 DUP7 ADD PUSH2 0x680 JUMP JUMPDEST SWAP3 POP POP PUSH1 0x20 DUP4 ADD CALLDATALOAD PUSH8 0xFFFFFFFFFFFFFFFF DUP2 GT ISZERO PUSH2 0x800 JUMPI PUSH2 0x7FF PUSH2 0x3EE JUMP JUMPDEST JUMPDEST PUSH2 0x80C DUP6 DUP3 DUP7 ADD PUSH2 0x78F JUMP JUMPDEST SWAP2 POP POP SWAP3 POP SWAP3 SWAP1 POP JUMP JUMPDEST PUSH0 DUP2 ISZERO ISZERO SWAP1 POP SWAP2 SWAP1 POP JUMP JUMPDEST PUSH2 0x82A DUP2 PUSH2 0x816 JUMP JUMPDEST DUP3 MSTORE POP POP JUMP JUMPDEST PUSH0 PUSH1 0x20 DUP3 ADD SWAP1 POP PUSH2 0x843 PUSH0 DUP4 ADD DUP5 PUSH2 0x821 JUMP JUMPDEST SWAP3 SWAP2 POP POP JUMP JUMPDEST PUSH0 PUSH1 0x20 DUP3 DUP5 SUB SLT ISZERO PUSH2 0x85E JUMPI PUSH2 0x85D PUSH2 0x3EA JUMP JUMPDEST JUMPDEST PUSH0 PUSH2 0x86B DUP5 DUP3 DUP6 ADD PUSH2 0x411 JUMP JUMPDEST SWAP2 POP POP SWAP3 SWAP2 POP POP JUMP JUMPDEST PUSH2 0x87D DUP2 PUSH2 0x3F2 JUMP JUMPDEST DUP3 MSTORE POP POP JUMP JUMPDEST PUSH0 PUSH1 0x60 DUP3 ADD SWAP1 POP PUSH2 0x896 PUSH0 DUP4 ADD DUP7 PUSH2 0x874 JUMP JUMPDEST PUSH2 0x8A3 PUSH1 0x20 DUP4 ADD DUP6 PUSH2 0x874 JUMP JUMPDEST DUP2 DUP2 SUB PUSH1 0x40 DUP4 ADD MSTORE PUSH2 0x8B5 DUP2 DUP5 PUSH2 0x604 JUMP JUMPDEST SWAP1 POP SWAP5 SWAP4 POP POP POP POP JUMP JUMPDEST PUSH0 DUP3 SWAP1 POP SWAP3 SWAP2 POP POP JUMP JUMPDEST PUSH32 0x4E487B7100000000000000000000000000000000000000000000000000000000 PUSH0 MSTORE PUSH1 0x22 PUSH1 0x4 MSTORE PUSH1 0x24 PUSH0 REVERT JUMPDEST PUSH0 PUSH1 0x2 DUP3 DIV SWAP1 POP PUSH1 0x1 DUP3 AND DUP1 PUSH2 0x90D JUMPI PUSH1 0x7F DUP3 AND SWAP2 POP JUMPDEST PUSH1 0x20 DUP3 LT DUP2 SUB PUSH2 0x920 JUMPI PUSH2 0x91F PUSH2 0x8C9 JUMP JUMPDEST JUMPDEST POP SWAP2 SWAP1 POP JUMP JUMPDEST PUSH0 DUP2 SWAP1 POP DUP2 PUSH0 MSTORE PUSH1 0x20 PUSH0 KECCAK256 SWAP1 POP SWAP2 SWAP1 POP JUMP JUMPDEST PUSH0 PUSH1 0x20 PUSH1 0x1F DUP4 ADD DIV SWAP1 POP SWAP2 SWAP1 POP JUMP JUMPDEST PUSH0 DUP3 DUP3 SHL SWAP1 POP SWAP3 SWAP2 POP POP JUMP JUMPDEST PUSH0 PUSH1 0x8 DUP4 MUL PUSH2 0x982 PUSH32 0xFFFFFFFFFFFFFFFFFFFFFFFFFFFFFFFFFFFFFFFFFFFFFFFFFFFFFFFFFFFFFFFF DUP3 PUSH2 0x947 JUMP JUMPDEST PUSH2 0x98C DUP7 DUP4 PUSH2 0x947 JUMP JUMPDEST SWAP6 POP DUP1 NOT DUP5 AND SWAP4 POP DUP1 DUP7 AND DUP5 OR SWAP3 POP POP POP SWAP4 SWAP3 POP POP POP JUMP JUMPDEST PUSH0 DUP2 SWAP1 POP SWAP2 SWAP1 POP JUMP JUMPDEST PUSH0 PUSH2 0x9C7 PUSH2 0x9C2 PUSH2 0x9BD DUP5 PUSH2 0x3F2 JUMP JUMPDEST PUSH2 0x9A4 JUMP JUMPDEST PUSH2 0x3F2 JUMP JUMPDEST SWAP1 POP SWAP2 SWAP1 POP JUMP JUMPDEST PUSH0 DUP2 SWAP1 POP SWAP2 SWAP1 POP JUMP JUMPDEST PUSH2 0x9E0 DUP4 PUSH2 0x9AD JUMP JUMPDEST PUSH2 0x9F4 PUSH2 0x9EC DUP3 PUSH2 0x9CE JUMP JUMPDEST DUP5 DUP5 SLOAD PUSH2 0x953 JUMP JUMPDEST DUP3 SSTORE POP POP POP POP JUMP JUMPDEST PUSH0 SWAP1 JUMP JUMPDEST PUSH2 0xA08 PUSH2 0x9FC JUMP JUMPDEST PUSH2 0xA13 DUP2 DUP5 DUP5 PUSH2 0x9D7 JUMP JUMPDEST POP POP POP JUMP JUMPDEST JUMPDEST DUP2 DUP2 LT ISZERO PUSH2 0xA36 JUMPI PUSH2 0xA2B PUSH0 DUP3 PUSH2 0xA00 JUMP JUMPDEST PUSH1 0x1 DUP2 ADD SWAP1 POP PUSH2 0xA19 JUMP JUMPDEST POP POP JUMP JUMPDEST PUSH1 0x1F DUP3 GT ISZERO PUSH2 0xA7B JUMPI PUSH2 0xA4C DUP2 PUSH2 0x926 JUMP JUMPDEST PUSH2 0xA55 DUP5 PUSH2 0x938 JUMP JUMPDEST DUP2 ADD PUSH1 0x20 DUP6 LT ISZERO PUSH2 0xA64 JUMPI DUP2 SWAP1 POP JUMPDEST PUSH2 0xA78 PUSH2 0xA70 DUP6 PUSH2 0x938 JUMP JUMPDEST DUP4 ADD DUP3 PUSH2 0xA18 JUMP JUMPDEST POP POP JUMPDEST POP POP POP JUMP JUMPDEST PUSH0 DUP3 DUP3 SHR SWAP1 POP SWAP3 SWAP2 POP POP JUMP JUMPDEST PUSH0 PUSH2 0xA9B PUSH0 NOT DUP5 PUSH1 0x8 MUL PUSH2 0xA80 JUMP JUMPDEST NOT DUP1 DUP4 AND SWAP2 POP POP SWAP3 SWAP2 POP POP JUMP JUMPDEST PUSH0 PUSH2 0xAB3 DUP4 DUP4 PUSH2 0xA8C JUMP JUMPDEST SWAP2 POP DUP3 PUSH1 0x2 MUL DUP3 OR SWAP1 POP SWAP3 SWAP2 POP POP JUMP JUMPDEST PUSH2 0xACD DUP4 DUP4 PUSH2 0x8BF JUMP JUMPDEST PUSH8 0xFFFFFFFFFFFFFFFF DUP2 GT ISZERO PUSH2 0xAE6 JUMPI PUSH2 0xAE5 PUSH2 0x698 JUMP JUMPDEST JUMPDEST PUSH2 0xAF0 DUP3 SLOAD PUSH2 0x8F6 JUMP JUMPDEST PUSH2 0xAFB DUP3 DUP3 DUP6 PUSH2 0xA3A JUMP JUMPDEST PUSH0 PUSH1 0x1F DUP4 GT PUSH1 0x1 DUP2 EQ PUSH2 0xB28 JUMPI PUSH0 DUP5 ISZERO PUSH2 0xB16 JUMPI DUP3 DUP8 ADD CALLDATALOAD SWAP1 POP JUMPDEST PUSH2 0xB20 DUP6 DUP3 PUSH2 0xAA8 JUMP JUMPDEST DUP7 SSTORE POP PUSH2 0xB87 JUMP JUMPDEST PUSH1 0x1F NOT DUP5 AND PUSH2 0xB36 DUP7 PUSH2 0x926 JUMP JUMPDEST PUSH0 JUMPDEST DUP3 DUP2 LT ISZERO PUSH2 0xB5D JUMPI DUP5 DUP10 ADD CALLDATALOAD DUP3 SSTORE PUSH1 0x1 DUP3 ADD SWAP2 POP PUSH1 0x20 DUP6 ADD SWAP5 POP PUSH1 0x20 DUP2 ADD SWAP1 POP PUSH2 0xB38 JUMP JUMPDEST DUP7 DUP4 LT ISZERO PUSH2 0xB7A JUMPI DUP5 DUP10 ADD CALLDATALOAD PUSH2 0xB76 PUSH1 0x1F DUP10 AND DUP3 PUSH2 0xA8C JUMP JUMPDEST DUP4 SSTORE POP JUMPDEST PUSH1 0x1 PUSH1 0x2 DUP9 MUL ADD DUP9 SSTORE POP POP POP JUMPDEST POP POP POP POP POP POP POP JUMP JUMPDEST PUSH2 0xB99 DUP3 PUSH2 0x5CC JUMP JUMPDEST PUSH8 0xFFFFFFFFFFFFFFFF DUP2 GT ISZERO PUSH2 0xBB2 JUMPI PUSH2 0xBB1 PUSH2 0x698 JUMP JUMPDEST JUMPDEST PUSH2 0xBBC DUP3 SLOAD PUSH2 0x8F6 JUMP JUMPDEST PUSH2 0xBC7 DUP3 DUP3 DUP6 PUSH2 0xA3A JUMP JUMPDEST PUSH0 PUSH1 0x20 SWAP1 POP PUSH1 0x1F DUP4 GT PUSH1 0x1 DUP2 EQ PUSH2 0xBF8 JUMPI PUSH0 DUP5 ISZERO PUSH2 0xBE6 JUMPI DUP3 DUP8 ADD MLOAD SWAP1 POP JUMPDEST PUSH2 0xBF0 DUP6 DUP3 PUSH2 0xAA8 JUMP JUMPDEST DUP7 SSTORE POP PUSH2 0xC57 JUMP JUMPDEST PUSH1 0x1F NOT DUP5 AND PUSH2 0xC06 DUP7 PUSH2 0x926 JUMP JUMPDEST PUSH0 JUMPDEST DUP3 DUP2 LT ISZERO PUSH2 0xC2D JUMPI DUP5 DUP10 ADD MLOAD DUP3 SSTORE PUSH1 0x1 DUP3 ADD SWAP2 POP PUSH1 0x20 DUP6 ADD SWAP5 POP PUSH1 0x20 DUP2 ADD SWAP1 POP PUSH2 0xC08 JUMP JUMPDEST DUP7 DUP4 LT ISZERO PUSH2 0xC4A JUMPI DUP5 DUP10 ADD MLOAD PUSH2 0xC46 PUSH1 0x1F DUP10 AND DUP3 PUSH2 0xA8C JUMP JUMPDEST DUP4 SSTORE POP JUMPDEST PUSH1 0x1 PUSH1 0x2 DUP9 MUL ADD DUP9 SSTORE POP POP POP JUMPDEST POP POP POP POP POP POP JUMP INVALID LOG2 PUSH5 0x6970667358 0x22 SLT KECCAK256 0xCE 0xCA PUSH12 0x8714E7858DF50A44C2651ACE 0x22 0x23 0xBE XOR 0x4D LOG0 DUP1 0xDB DUP13 0xF6 0x2B 0xC6 DUP16 OR CALLDATACOPY 0xDF 0xE6 PUSH5 0x736F6C6343 STOP ADDMOD BYTE STOP CALLER "
		},
		"gasEstimates": {
			"creation": {
				"codeDepositCost": "644200",
				"executionCost": "674",
				"totalCost": "644874"
			},
			"external": {
				"addFavorite(uint256,uint256,string,uint256[5])": "infinite",
				"register(uint8,string)": "infinite",
				"userFavorites(uint256)": "infinite",
				"users(address)": "infinite"
			}
		},
		"methodIdentifiers": {
			"addFavorite(uint256,uint256,string,uint256[5])": "7848ccf8",
			"register(uint8,string)": "d3eb9541",
			"userFavorites(uint256)": "e45dc9cb",
			"users(address)": "a87430ba"
		}
	},
	"abi": [
		{
			"inputs": [
				{
					"internalType": "uint256",
					"name": "_favNumber",
					"type": "uint256"
				},
				{
					"internalType": "uint256",
					"name": "_birthDay",
					"type": "uint256"
				},
				{
					"internalType": "string",
					"name": "_favColor",
					"type": "string"
				},
				{
					"internalType": "uint256[5]",
					"name": "_lotteryNumbers",
					"type": "uint256[5]"
				}
			],
			"name": "addFavorite",
			"outputs": [],
			"stateMutability": "nonpayable",
			"type": "function"
		},
		{
			"inputs": [
				{
					"internalType": "uint8",
					"name": "age",
					"type": "uint8"
				},
				{
					"internalType": "string",
					"name": "name",
					"type": "string"
				}
			],
			"name": "register",
			"outputs": [
				{
					"internalType": "bool",
					"name": "",
					"type": "bool"
				}
			],
			"stateMutability": "nonpayable",
			"type": "function"
		},
		{
			"inputs": [
				{
					"internalType": "uint256",
					"name": "",
					"type": "uint256"
				}
			],
			"name": "userFavorites",
			"outputs": [
				{
					"internalType": "uint256",
					"name": "favoriteNumber",
					"type": "uint256"
				},
				{
					"internalType": "uint256",
					"name": "birthDayOfMonth",
					"type": "uint256"
				},
				{
					"internalType": "string",
					"name": "favoriteColor",
					"type": "string"
				}
			],
			"stateMutability": "view",
			"type": "function"
		},
		{
			"inputs": [
				{
					"internalType": "address",
					"name": "",
					"type": "address"
				}
			],
			"name": "users",
			"outputs": [
				{
					"internalType": "uint8",
					"name": "age",
					"type": "uint8"
				},
				{
					"internalType": "string",
					"name": "name",
					"type": "string"
				}
			],
			"stateMutability": "view",
			"type": "function"
		}
	]
}