{
	"Project-3-Storage/SimpleStorage.sol": {
		"EmployeeStorage": {
			"abi": [
				{
					"inputs": [
						{
							"internalType": "uint8",
							"name": "_numberOfCars",
							"type": "uint8"
						},
						{
							"internalType": "uint8",
							"name": "_numberAge",
							"type": "uint8"
						}
					],
					"stateMutability": "nonpayable",
					"type": "constructor"
				},
				{
					"inputs": [
						{
							"internalType": "uint8",
							"name": "_numberAge",
							"type": "uint8"
						}
					],
					"name": "adminSetAge",
					"outputs": [],
					"stateMutability": "nonpayable",
					"type": "function"
				},
				{
					"inputs": [],
					"name": "age",
					"outputs": [
						{
							"internalType": "uint8",
							"name": "",
							"type": "uint8"
						}
					],
					"stateMutability": "view",
					"type": "function"
				},
				{
					"inputs": [],
					"name": "cars",
					"outputs": [
						{
							"internalType": "uint8",
							"name": "",
							"type": "uint8"
						}
					],
					"stateMutability": "view",
					"type": "function"
				},
				{
					"inputs": [],
					"name": "updateAge",
					"outputs": [],
					"stateMutability": "nonpayable",
					"type": "function"
				},
				{
					"inputs": [
						{
							"internalType": "uint8",
							"name": "_numberOfCars",
							"type": "uint8"
						}
					],
					"name": "updateCars",
					"outputs": [],
					"stateMutability": "nonpayable",
					"type": "function"
				}
			],
			"devdoc": {
				"kind": "dev",
				"methods": {},
				"version": 1
			},
			"evm": {
				"assembly": "    /* \"Project-3-Storage/SimpleStorage.sol\":60:642  contract EmployeeStorage {... */\n  mstore(0x40, 0x80)\n    /* \"Project-3-Storage/SimpleStorage.sol\":284:401  constructor(uint8 _numberOfCars, uint8 _numberAge) {... */\n  callvalue\n  dup1\n  iszero\n  tag_1\n  jumpi\n  0x00\n  dup1\n  revert\ntag_1:\n  pop\n  mload(0x40)\n  sub(codesize, bytecodeSize)\n  dup1\n  bytecodeSize\n  dup4\n  codecopy\n  dup2\n  dup2\n  add\n  0x40\n  mstore\n  dup2\n  add\n  swap1\n  tag_2\n  swap2\n  swap1\n  tag_3\n  jump\t// in\ntag_2:\n    /* \"Project-3-Storage/SimpleStorage.sol\":353:366  _numberOfCars */\n  dup2\n    /* \"Project-3-Storage/SimpleStorage.sol\":346:350  cars */\n  0x00\n  0x01\n    /* \"Project-3-Storage/SimpleStorage.sol\":346:366  cars = _numberOfCars */\n  0x0100\n  exp\n  dup2\n  sload\n  dup2\n  0xff\n  mul\n  not\n  and\n  swap1\n  dup4\n  0xff\n  and\n  mul\n  or\n  swap1\n  sstore\n  pop\n    /* \"Project-3-Storage/SimpleStorage.sol\":383:393  _numberAge */\n  dup1\n    /* \"Project-3-Storage/SimpleStorage.sol\":377:380  age */\n  0x00\n  dup1\n    /* \"Project-3-Storage/SimpleStorage.sol\":377:393  age = _numberAge */\n  0x0100\n  exp\n  dup2\n  sload\n  dup2\n  0xff\n  mul\n  not\n  and\n  swap1\n  dup4\n  0xff\n  and\n  mul\n  or\n  swap1\n  sstore\n  pop\n    /* \"Project-3-Storage/SimpleStorage.sol\":284:401  constructor(uint8 _numberOfCars, uint8 _numberAge) {... */\n  pop\n  pop\n    /* \"Project-3-Storage/SimpleStorage.sol\":60:642  contract EmployeeStorage {... */\n  jump(tag_6)\n    /* \"#utility.yul\":88:205   */\ntag_8:\n    /* \"#utility.yul\":197:198   */\n  0x00\n    /* \"#utility.yul\":194:195   */\n  dup1\n    /* \"#utility.yul\":187:199   */\n  revert\n    /* \"#utility.yul\":334:420   */\ntag_10:\n    /* \"#utility.yul\":369:376   */\n  0x00\n    /* \"#utility.yul\":409:413   */\n  0xff\n    /* \"#utility.yul\":402:407   */\n  dup3\n    /* \"#utility.yul\":398:414   */\n  and\n    /* \"#utility.yul\":387:414   */\n  swap1\n  pop\n    /* \"#utility.yul\":334:420   */\n  swap2\n  swap1\n  pop\n  jump\t// out\n    /* \"#utility.yul\":426:544   */\ntag_11:\n    /* \"#utility.yul\":497:519   */\n  tag_19\n    /* \"#utility.yul\":513:518   */\n  dup2\n    /* \"#utility.yul\":497:519   */\n  tag_10\n  jump\t// in\ntag_19:\n    /* \"#utility.yul\":490:495   */\n  dup2\n    /* \"#utility.yul\":487:520   */\n  eq\n    /* \"#utility.yul\":477:538   */\n  tag_20\n  jumpi\n    /* \"#utility.yul\":534:535   */\n  0x00\n    /* \"#utility.yul\":531:532   */\n  dup1\n    /* \"#utility.yul\":524:536   */\n  revert\n    /* \"#utility.yul\":477:538   */\ntag_20:\n    /* \"#utility.yul\":426:544   */\n  pop\n  jump\t// out\n    /* \"#utility.yul\":550:689   */\ntag_12:\n    /* \"#utility.yul\":605:610   */\n  0x00\n    /* \"#utility.yul\":636:642   */\n  dup2\n    /* \"#utility.yul\":630:643   */\n  mload\n    /* \"#utility.yul\":621:643   */\n  swap1\n  pop\n    /* \"#utility.yul\":652:683   */\n  tag_22\n    /* \"#utility.yul\":677:682   */\n  dup2\n    /* \"#utility.yul\":652:683   */\n  tag_11\n  jump\t// in\ntag_22:\n    /* \"#utility.yul\":550:689   */\n  swap3\n  swap2\n  pop\n  pop\n  jump\t// out\n    /* \"#utility.yul\":695:1194   */\ntag_3:\n    /* \"#utility.yul\":770:776   */\n  0x00\n    /* \"#utility.yul\":778:784   */\n  dup1\n    /* \"#utility.yul\":827:829   */\n  0x40\n    /* \"#utility.yul\":815:824   */\n  dup4\n    /* \"#utility.yul\":806:813   */\n  dup6\n    /* \"#utility.yul\":802:825   */\n  sub\n    /* \"#utility.yul\":798:830   */\n  slt\n    /* \"#utility.yul\":795:914   */\n  iszero\n  tag_24\n  jumpi\n    /* \"#utility.yul\":833:912   */\n  tag_25\n  tag_8\n  jump\t// in\ntag_25:\n    /* \"#utility.yul\":795:914   */\ntag_24:\n    /* \"#utility.yul\":953:954   */\n  0x00\n    /* \"#utility.yul\":978:1040   */\n  tag_26\n    /* \"#utility.yul\":1032:1039   */\n  dup6\n    /* \"#utility.yul\":1023:1029   */\n  dup3\n    /* \"#utility.yul\":1012:1021   */\n  dup7\n    /* \"#utility.yul\":1008:1030   */\n  add\n    /* \"#utility.yul\":978:1040   */\n  tag_12\n  jump\t// in\ntag_26:\n    /* \"#utility.yul\":968:1040   */\n  swap3\n  pop\n    /* \"#utility.yul\":924:1050   */\n  pop\n    /* \"#utility.yul\":1089:1091   */\n  0x20\n    /* \"#utility.yul\":1115:1177   */\n  tag_27\n    /* \"#utility.yul\":1169:1176   */\n  dup6\n    /* \"#utility.yul\":1160:1166   */\n  dup3\n    /* \"#utility.yul\":1149:1158   */\n  dup7\n    /* \"#utility.yul\":1145:1167   */\n  add\n    /* \"#utility.yul\":1115:1177   */\n  tag_12\n  jump\t// in\ntag_27:\n    /* \"#utility.yul\":1105:1177   */\n  swap2\n  pop\n    /* \"#utility.yul\":1060:1187   */\n  pop\n    /* \"#utility.yul\":695:1194   */\n  swap3\n  pop\n  swap3\n  swap1\n  pop\n  jump\t// out\n    /* \"Project-3-Storage/SimpleStorage.sol\":60:642  contract EmployeeStorage {... */\ntag_6:\n  dataSize(sub_0)\n  dup1\n  dataOffset(sub_0)\n  0x00\n  codecopy\n  0x00\n  return\nstop\n\nsub_0: assembly {\n        /* \"Project-3-Storage/SimpleStorage.sol\":60:642  contract EmployeeStorage {... */\n      mstore(0x40, 0x80)\n      callvalue\n      dup1\n      iszero\n      tag_1\n      jumpi\n      0x00\n      dup1\n      revert\n    tag_1:\n      pop\n      jumpi(tag_2, lt(calldatasize, 0x04))\n      shr(0xe0, calldataload(0x00))\n      dup1\n      0x07b13484\n      eq\n      tag_3\n      jumpi\n      dup1\n      0x262a9dff\n      eq\n      tag_4\n      jumpi\n      dup1\n      0x317d749b\n      eq\n      tag_5\n      jumpi\n      dup1\n      0x9a7ffc57\n      eq\n      tag_6\n      jumpi\n      dup1\n      0xecdb71bf\n      eq\n      tag_7\n      jumpi\n    tag_2:\n      0x00\n      dup1\n      revert\n        /* \"Project-3-Storage/SimpleStorage.sol\":558:639  function adminSetAge(uint8 _numberAge) public {... */\n    tag_3:\n      tag_8\n      0x04\n      dup1\n      calldatasize\n      sub\n      dup2\n      add\n      swap1\n      tag_9\n      swap2\n      swap1\n      tag_10\n      jump\t// in\n    tag_9:\n      tag_11\n      jump\t// in\n    tag_8:\n      stop\n        /* \"Project-3-Storage/SimpleStorage.sol\":92:108  uint8 public age */\n    tag_4:\n      tag_12\n      tag_13\n      jump\t// in\n    tag_12:\n      mload(0x40)\n      tag_14\n      swap2\n      swap1\n      tag_15\n      jump\t// in\n    tag_14:\n      mload(0x40)\n      dup1\n      swap2\n      sub\n      swap1\n      return\n        /* \"Project-3-Storage/SimpleStorage.sol\":407:494  function updateCars(uint8 _numberOfCars) public {... */\n    tag_5:\n      tag_16\n      0x04\n      dup1\n      calldatasize\n      sub\n      dup2\n      add\n      swap1\n      tag_17\n      swap2\n      swap1\n      tag_10\n      jump\t// in\n    tag_17:\n      tag_18\n      jump\t// in\n    tag_16:\n      stop\n        /* \"Project-3-Storage/SimpleStorage.sol\":115:132  uint8 public cars */\n    tag_6:\n      tag_19\n      tag_20\n      jump\t// in\n    tag_19:\n      mload(0x40)\n      tag_21\n      swap2\n      swap1\n      tag_15\n      jump\t// in\n    tag_21:\n      mload(0x40)\n      dup1\n      swap2\n      sub\n      swap1\n      return\n        /* \"Project-3-Storage/SimpleStorage.sol\":500:552  function updateAge() public {... */\n    tag_7:\n      tag_22\n      tag_23\n      jump\t// in\n    tag_22:\n      stop\n        /* \"Project-3-Storage/SimpleStorage.sol\":558:639  function adminSetAge(uint8 _numberAge) public {... */\n    tag_11:\n        /* \"Project-3-Storage/SimpleStorage.sol\":621:631  _numberAge */\n      dup1\n        /* \"Project-3-Storage/SimpleStorage.sol\":615:618  age */\n      0x00\n      dup1\n        /* \"Project-3-Storage/SimpleStorage.sol\":615:631  age = _numberAge */\n      0x0100\n      exp\n      dup2\n      sload\n      dup2\n      0xff\n      mul\n      not\n      and\n      swap1\n      dup4\n      0xff\n      and\n      mul\n      or\n      swap1\n      sstore\n      pop\n        /* \"Project-3-Storage/SimpleStorage.sol\":558:639  function adminSetAge(uint8 _numberAge) public {... */\n      pop\n      jump\t// out\n        /* \"Project-3-Storage/SimpleStorage.sol\":92:108  uint8 public age */\n    tag_13:\n      0x00\n      dup1\n      sload\n      swap1\n      0x0100\n      exp\n      swap1\n      div\n      0xff\n      and\n      dup2\n      jump\t// out\n        /* \"Project-3-Storage/SimpleStorage.sol\":407:494  function updateCars(uint8 _numberOfCars) public {... */\n    tag_18:\n        /* \"Project-3-Storage/SimpleStorage.sol\":473:486  _numberOfCars */\n      dup1\n        /* \"Project-3-Storage/SimpleStorage.sol\":466:470  cars */\n      0x00\n      0x01\n        /* \"Project-3-Storage/SimpleStorage.sol\":466:486  cars = _numberOfCars */\n      0x0100\n      exp\n      dup2\n      sload\n      dup2\n      0xff\n      mul\n      not\n      and\n      swap1\n      dup4\n      0xff\n      and\n      mul\n      or\n      swap1\n      sstore\n      pop\n        /* \"Project-3-Storage/SimpleStorage.sol\":407:494  function updateCars(uint8 _numberOfCars) public {... */\n      pop\n      jump\t// out\n        /* \"Project-3-Storage/SimpleStorage.sol\":115:132  uint8 public cars */\n    tag_20:\n      0x00\n      0x01\n      swap1\n      sload\n      swap1\n      0x0100\n      exp\n      swap1\n      div\n      0xff\n      and\n      dup2\n      jump\t// out\n        /* \"Project-3-Storage/SimpleStorage.sol\":500:552  function updateAge() public {... */\n    tag_23:\n        /* \"Project-3-Storage/SimpleStorage.sol\":539:542  age */\n      0x00\n      dup1\n        /* \"Project-3-Storage/SimpleStorage.sol\":539:544  age++ */\n      dup2\n      dup2\n      swap1\n      sload\n      swap1\n      0x0100\n      exp\n      swap1\n      div\n      0xff\n      and\n      dup1\n      swap3\n      swap2\n      swap1\n      tag_27\n      swap1\n      tag_28\n      jump\t// in\n    tag_27:\n      swap2\n      swap1\n      0x0100\n      exp\n      dup2\n      sload\n      dup2\n      0xff\n      mul\n      not\n      and\n      swap1\n      dup4\n      0xff\n      and\n      mul\n      or\n      swap1\n      sstore\n      pop\n      pop\n        /* \"Project-3-Storage/SimpleStorage.sol\":500:552  function updateAge() public {... */\n      jump\t// out\n        /* \"#utility.yul\":88:205   */\n    tag_30:\n        /* \"#utility.yul\":197:198   */\n      0x00\n        /* \"#utility.yul\":194:195   */\n      dup1\n        /* \"#utility.yul\":187:199   */\n      revert\n        /* \"#utility.yul\":334:420   */\n    tag_32:\n        /* \"#utility.yul\":369:376   */\n      0x00\n        /* \"#utility.yul\":409:413   */\n      0xff\n        /* \"#utility.yul\":402:407   */\n      dup3\n        /* \"#utility.yul\":398:414   */\n      and\n        /* \"#utility.yul\":387:414   */\n      swap1\n      pop\n        /* \"#utility.yul\":334:420   */\n      swap2\n      swap1\n      pop\n      jump\t// out\n        /* \"#utility.yul\":426:544   */\n    tag_33:\n        /* \"#utility.yul\":497:519   */\n      tag_43\n        /* \"#utility.yul\":513:518   */\n      dup2\n        /* \"#utility.yul\":497:519   */\n      tag_32\n      jump\t// in\n    tag_43:\n        /* \"#utility.yul\":490:495   */\n      dup2\n        /* \"#utility.yul\":487:520   */\n      eq\n        /* \"#utility.yul\":477:538   */\n      tag_44\n      jumpi\n        /* \"#utility.yul\":534:535   */\n      0x00\n        /* \"#utility.yul\":531:532   */\n      dup1\n        /* \"#utility.yul\":524:536   */\n      revert\n        /* \"#utility.yul\":477:538   */\n    tag_44:\n        /* \"#utility.yul\":426:544   */\n      pop\n      jump\t// out\n        /* \"#utility.yul\":550:685   */\n    tag_34:\n        /* \"#utility.yul\":594:599   */\n      0x00\n        /* \"#utility.yul\":632:638   */\n      dup2\n        /* \"#utility.yul\":619:639   */\n      calldataload\n        /* \"#utility.yul\":610:639   */\n      swap1\n      pop\n        /* \"#utility.yul\":648:679   */\n      tag_46\n        /* \"#utility.yul\":673:678   */\n      dup2\n        /* \"#utility.yul\":648:679   */\n      tag_33\n      jump\t// in\n    tag_46:\n        /* \"#utility.yul\":550:685   */\n      swap3\n      swap2\n      pop\n      pop\n      jump\t// out\n        /* \"#utility.yul\":691:1016   */\n    tag_10:\n        /* \"#utility.yul\":748:754   */\n      0x00\n        /* \"#utility.yul\":797:799   */\n      0x20\n        /* \"#utility.yul\":785:794   */\n      dup3\n        /* \"#utility.yul\":776:783   */\n      dup5\n        /* \"#utility.yul\":772:795   */\n      sub\n        /* \"#utility.yul\":768:800   */\n      slt\n        /* \"#utility.yul\":765:884   */\n      iszero\n      tag_48\n      jumpi\n        /* \"#utility.yul\":803:882   */\n      tag_49\n      tag_30\n      jump\t// in\n    tag_49:\n        /* \"#utility.yul\":765:884   */\n    tag_48:\n        /* \"#utility.yul\":923:924   */\n      0x00\n        /* \"#utility.yul\":948:999   */\n      tag_50\n        /* \"#utility.yul\":991:998   */\n      dup5\n        /* \"#utility.yul\":982:988   */\n      dup3\n        /* \"#utility.yul\":971:980   */\n      dup6\n        /* \"#utility.yul\":967:989   */\n      add\n        /* \"#utility.yul\":948:999   */\n      tag_34\n      jump\t// in\n    tag_50:\n        /* \"#utility.yul\":938:999   */\n      swap2\n      pop\n        /* \"#utility.yul\":894:1009   */\n      pop\n        /* \"#utility.yul\":691:1016   */\n      swap3\n      swap2\n      pop\n      pop\n      jump\t// out\n        /* \"#utility.yul\":1022:1134   */\n    tag_35:\n        /* \"#utility.yul\":1105:1127   */\n      tag_52\n        /* \"#utility.yul\":1121:1126   */\n      dup2\n        /* \"#utility.yul\":1105:1127   */\n      tag_32\n      jump\t// in\n    tag_52:\n        /* \"#utility.yul\":1100:1103   */\n      dup3\n        /* \"#utility.yul\":1093:1128   */\n      mstore\n        /* \"#utility.yul\":1022:1134   */\n      pop\n      pop\n      jump\t// out\n        /* \"#utility.yul\":1140:1354   */\n    tag_15:\n        /* \"#utility.yul\":1229:1233   */\n      0x00\n        /* \"#utility.yul\":1267:1269   */\n      0x20\n        /* \"#utility.yul\":1256:1265   */\n      dup3\n        /* \"#utility.yul\":1252:1270   */\n      add\n        /* \"#utility.yul\":1244:1270   */\n      swap1\n      pop\n        /* \"#utility.yul\":1280:1347   */\n      tag_54\n        /* \"#utility.yul\":1344:1345   */\n      0x00\n        /* \"#utility.yul\":1333:1342   */\n      dup4\n        /* \"#utility.yul\":1329:1346   */\n      add\n        /* \"#utility.yul\":1320:1326   */\n      dup5\n        /* \"#utility.yul\":1280:1347   */\n      tag_35\n      jump\t// in\n    tag_54:\n        /* \"#utility.yul\":1140:1354   */\n      swap3\n      swap2\n      pop\n      pop\n      jump\t// out\n        /* \"#utility.yul\":1360:1540   */\n    tag_36:\n        /* \"#utility.yul\":1408:1485   */\n      0x4e487b7100000000000000000000000000000000000000000000000000000000\n        /* \"#utility.yul\":1405:1406   */\n      0x00\n        /* \"#utility.yul\":1398:1486   */\n      mstore\n        /* \"#utility.yul\":1505:1509   */\n      0x11\n        /* \"#utility.yul\":1502:1503   */\n      0x04\n        /* \"#utility.yul\":1495:1510   */\n      mstore\n        /* \"#utility.yul\":1529:1533   */\n      0x24\n        /* \"#utility.yul\":1526:1527   */\n      0x00\n        /* \"#utility.yul\":1519:1534   */\n      revert\n        /* \"#utility.yul\":1546:1713   */\n    tag_28:\n        /* \"#utility.yul\":1583:1586   */\n      0x00\n        /* \"#utility.yul\":1606:1628   */\n      tag_57\n        /* \"#utility.yul\":1622:1627   */\n      dup3\n        /* \"#utility.yul\":1606:1628   */\n      tag_32\n      jump\t// in\n    tag_57:\n        /* \"#utility.yul\":1597:1628   */\n      swap2\n      pop\n        /* \"#utility.yul\":1650:1654   */\n      0xff\n        /* \"#utility.yul\":1643:1648   */\n      dup3\n        /* \"#utility.yul\":1640:1655   */\n      sub\n        /* \"#utility.yul\":1637:1678   */\n      tag_58\n      jumpi\n        /* \"#utility.yul\":1658:1676   */\n      tag_59\n      tag_36\n      jump\t// in\n    tag_59:\n        /* \"#utility.yul\":1637:1678   */\n    tag_58:\n        /* \"#utility.yul\":1705:1706   */\n      0x01\n        /* \"#utility.yul\":1698:1703   */\n      dup3\n        /* \"#utility.yul\":1694:1707   */\n      add\n        /* \"#utility.yul\":1687:1707   */\n      swap1\n      pop\n        /* \"#utility.yul\":1546:1713   */\n      swap2\n      swap1\n      pop\n      jump\t// out\n\n    auxdata: 0xa264697066735822122097dfe857f6730694e635ca5901e61767d14fb6dc7555e6958771f6d944c2a7c164736f6c634300081a0033\n}\n",
				"bytecode": {
					"linkReferences": {},
					"object": "608060405234801561000f575f80fd5b50604051610372380380610372833981810160405281019061003191906100a5565b815f60016101000a81548160ff021916908360ff160217905550805f806101000a81548160ff021916908360ff16021790555050506100e3565b5f80fd5b5f60ff82169050919050565b6100848161006f565b811461008e575f80fd5b50565b5f8151905061009f8161007b565b92915050565b5f80604083850312156100bb576100ba61006b565b5b5f6100c885828601610091565b92505060206100d985828601610091565b9150509250929050565b610282806100f05f395ff3fe608060405234801561000f575f80fd5b5060043610610055575f3560e01c806307b1348414610059578063262a9dff14610075578063317d749b146100935780639a7ffc57146100af578063ecdb71bf146100cd575b5f80fd5b610073600480360381019061006e91906101a4565b6100d7565b005b61007d6100f3565b60405161008a91906101de565b60405180910390f35b6100ad60048036038101906100a891906101a4565b610103565b005b6100b7610120565b6040516100c491906101de565b60405180910390f35b6100d5610132565b005b805f806101000a81548160ff021916908360ff16021790555050565b5f8054906101000a900460ff1681565b805f60016101000a81548160ff021916908360ff16021790555050565b5f60019054906101000a900460ff1681565b5f8081819054906101000a900460ff168092919061014f90610224565b91906101000a81548160ff021916908360ff16021790555050565b5f80fd5b5f60ff82169050919050565b6101838161016e565b811461018d575f80fd5b50565b5f8135905061019e8161017a565b92915050565b5f602082840312156101b9576101b861016a565b5b5f6101c684828501610190565b91505092915050565b6101d88161016e565b82525050565b5f6020820190506101f15f8301846101cf565b92915050565b7f4e487b71000000000000000000000000000000000000000000000000000000005f52601160045260245ffd5b5f61022e8261016e565b915060ff8203610241576102406101f7565b5b60018201905091905056fea264697066735822122097dfe857f6730694e635ca5901e61767d14fb6dc7555e6958771f6d944c2a7c164736f6c634300081a0033",
					"opcodes": "PUSH1 0x80 PUSH1 0x40 MSTORE CALLVALUE DUP1 ISZERO PUSH2 0xF JUMPI PUSH0 DUP1 REVERT JUMPDEST POP PUSH1 0x40 MLOAD PUSH2 0x372 CODESIZE SUB DUP1 PUSH2 0x372 DUP4 CODECOPY DUP2 DUP2 ADD PUSH1 0x40 MSTORE DUP2 ADD SWAP1 PUSH2 0x31 SWAP2 SWAP1 PUSH2 0xA5 JUMP JUMPDEST DUP2 PUSH0 PUSH1 0x1 PUSH2 0x100 EXP DUP2 SLOAD DUP2 PUSH1 0xFF MUL NOT AND SWAP1 DUP4 PUSH1 0xFF AND MUL OR SWAP1 SSTORE POP DUP1 PUSH0 DUP1 PUSH2 0x100 EXP DUP2 SLOAD DUP2 PUSH1 0xFF MUL NOT AND SWAP1 DUP4 PUSH1 0xFF AND MUL OR SWAP1 SSTORE POP POP POP PUSH2 0xE3 JUMP JUMPDEST PUSH0 DUP1 REVERT JUMPDEST PUSH0 PUSH1 0xFF DUP3 AND SWAP1 POP SWAP2 SWAP1 POP JUMP JUMPDEST PUSH2 0x84 DUP2 PUSH2 0x6F JUMP JUMPDEST DUP2 EQ PUSH2 0x8E JUMPI PUSH0 DUP1 REVERT JUMPDEST POP JUMP JUMPDEST PUSH0 DUP2 MLOAD SWAP1 POP PUSH2 0x9F DUP2 PUSH2 0x7B JUMP JUMPDEST SWAP3 SWAP2 POP POP JUMP JUMPDEST PUSH0 DUP1 PUSH1 0x40 DUP4 DUP6 SUB SLT ISZERO PUSH2 0xBB JUMPI PUSH2 0xBA PUSH2 0x6B JUMP JUMPDEST JUMPDEST PUSH0 PUSH2 0xC8 DUP6 DUP3 DUP7 ADD PUSH2 0x91 JUMP JUMPDEST SWAP3 POP POP PUSH1 0x20 PUSH2 0xD9 DUP6 DUP3 DUP7 ADD PUSH2 0x91 JUMP JUMPDEST SWAP2 POP POP SWAP3 POP SWAP3 SWAP1 POP JUMP JUMPDEST PUSH2 0x282 DUP1 PUSH2 0xF0 PUSH0 CODECOPY PUSH0 RETURN INVALID PUSH1 0x80 PUSH1 0x40 MSTORE CALLVALUE DUP1 ISZERO PUSH2 0xF JUMPI PUSH0 DUP1 REVERT JUMPDEST POP PUSH1 0x4 CALLDATASIZE LT PUSH2 0x55 JUMPI PUSH0 CALLDATALOAD PUSH1 0xE0 SHR DUP1 PUSH4 0x7B13484 EQ PUSH2 0x59 JUMPI DUP1 PUSH4 0x262A9DFF EQ PUSH2 0x75 JUMPI DUP1 PUSH4 0x317D749B EQ PUSH2 0x93 JUMPI DUP1 PUSH4 0x9A7FFC57 EQ PUSH2 0xAF JUMPI DUP1 PUSH4 0xECDB71BF EQ PUSH2 0xCD JUMPI JUMPDEST PUSH0 DUP1 REVERT JUMPDEST PUSH2 0x73 PUSH1 0x4 DUP1 CALLDATASIZE SUB DUP2 ADD SWAP1 PUSH2 0x6E SWAP2 SWAP1 PUSH2 0x1A4 JUMP JUMPDEST PUSH2 0xD7 JUMP JUMPDEST STOP JUMPDEST PUSH2 0x7D PUSH2 0xF3 JUMP JUMPDEST PUSH1 0x40 MLOAD PUSH2 0x8A SWAP2 SWAP1 PUSH2 0x1DE JUMP JUMPDEST PUSH1 0x40 MLOAD DUP1 SWAP2 SUB SWAP1 RETURN JUMPDEST PUSH2 0xAD PUSH1 0x4 DUP1 CALLDATASIZE SUB DUP2 ADD SWAP1 PUSH2 0xA8 SWAP2 SWAP1 PUSH2 0x1A4 JUMP JUMPDEST PUSH2 0x103 JUMP JUMPDEST STOP JUMPDEST PUSH2 0xB7 PUSH2 0x120 JUMP JUMPDEST PUSH1 0x40 MLOAD PUSH2 0xC4 SWAP2 SWAP1 PUSH2 0x1DE JUMP JUMPDEST PUSH1 0x40 MLOAD DUP1 SWAP2 SUB SWAP1 RETURN JUMPDEST PUSH2 0xD5 PUSH2 0x132 JUMP JUMPDEST STOP JUMPDEST DUP1 PUSH0 DUP1 PUSH2 0x100 EXP DUP2 SLOAD DUP2 PUSH1 0xFF MUL NOT AND SWAP1 DUP4 PUSH1 0xFF AND MUL OR SWAP1 SSTORE POP POP JUMP JUMPDEST PUSH0 DUP1 SLOAD SWAP1 PUSH2 0x100 EXP SWAP1 DIV PUSH1 0xFF AND DUP2 JUMP JUMPDEST DUP1 PUSH0 PUSH1 0x1 PUSH2 0x100 EXP DUP2 SLOAD DUP2 PUSH1 0xFF MUL NOT AND SWAP1 DUP4 PUSH1 0xFF AND MUL OR SWAP1 SSTORE POP POP JUMP JUMPDEST PUSH0 PUSH1 0x1 SWAP1 SLOAD SWAP1 PUSH2 0x100 EXP SWAP1 DIV PUSH1 0xFF AND DUP2 JUMP JUMPDEST PUSH0 DUP1 DUP2 DUP2 SWAP1 SLOAD SWAP1 PUSH2 0x100 EXP SWAP1 DIV PUSH1 0xFF AND DUP1 SWAP3 SWAP2 SWAP1 PUSH2 0x14F SWAP1 PUSH2 0x224 JUMP JUMPDEST SWAP2 SWAP1 PUSH2 0x100 EXP DUP2 SLOAD DUP2 PUSH1 0xFF MUL NOT AND SWAP1 DUP4 PUSH1 0xFF AND MUL OR SWAP1 SSTORE POP POP JUMP JUMPDEST PUSH0 DUP1 REVERT JUMPDEST PUSH0 PUSH1 0xFF DUP3 AND SWAP1 POP SWAP2 SWAP1 POP JUMP JUMPDEST PUSH2 0x183 DUP2 PUSH2 0x16E JUMP JUMPDEST DUP2 EQ PUSH2 0x18D JUMPI PUSH0 DUP1 REVERT JUMPDEST POP JUMP JUMPDEST PUSH0 DUP2 CALLDATALOAD SWAP1 POP PUSH2 0x19E DUP2 PUSH2 0x17A JUMP JUMPDEST SWAP3 SWAP2 POP POP JUMP JUMPDEST PUSH0 PUSH1 0x20 DUP3 DUP5 SUB SLT ISZERO PUSH2 0x1B9 JUMPI PUSH2 0x1B8 PUSH2 0x16A JUMP JUMPDEST JUMPDEST PUSH0 PUSH2 0x1C6 DUP5 DUP3 DUP6 ADD PUSH2 0x190 JUMP JUMPDEST SWAP2 POP POP SWAP3 SWAP2 POP POP JUMP JUMPDEST PUSH2 0x1D8 DUP2 PUSH2 0x16E JUMP JUMPDEST DUP3 MSTORE POP POP JUMP JUMPDEST PUSH0 PUSH1 0x20 DUP3 ADD SWAP1 POP PUSH2 0x1F1 PUSH0 DUP4 ADD DUP5 PUSH2 0x1CF JUMP JUMPDEST SWAP3 SWAP2 POP POP JUMP JUMPDEST PUSH32 0x4E487B7100000000000000000000000000000000000000000000000000000000 PUSH0 MSTORE PUSH1 0x11 PUSH1 0x4 MSTORE PUSH1 0x24 PUSH0 REVERT JUMPDEST PUSH0 PUSH2 0x22E DUP3 PUSH2 0x16E JUMP JUMPDEST SWAP2 POP PUSH1 0xFF DUP3 SUB PUSH2 0x241 JUMPI PUSH2 0x240 PUSH2 0x1F7 JUMP JUMPDEST JUMPDEST PUSH1 0x1 DUP3 ADD SWAP1 POP SWAP2 SWAP1 POP JUMP INVALID LOG2 PUSH5 0x6970667358 0x22 SLT KECCAK256 SWAP8 0xDF 0xE8 JUMPI 0xF6 PUSH20 0x694E635CA5901E61767D14FB6DC7555E6958771 0xF6 0xD9 PREVRANDAO 0xC2 0xA7 0xC1 PUSH5 0x736F6C6343 STOP ADDMOD BYTE STOP CALLER "
				},
				"gasEstimates": {
					"creation": {
						"codeDepositCost": "128400",
						"executionCost": "infinite",
						"totalCost": "infinite"
					},
					"external": {
						"adminSetAge(uint8)": "24651",
						"age()": "2463",
						"cars()": "2560",
						"updateAge()": "26761",
						"updateCars(uint8)": "24745"
					}
				},
				"methodIdentifiers": {
					"adminSetAge(uint8)": "07b13484",
					"age()": "262a9dff",
					"cars()": "9a7ffc57",
					"updateAge()": "ecdb71bf",
					"updateCars(uint8)": "317d749b"
				}
			},
			"storageLayout": {
				"storage": [
					{
						"astId": 3,
						"contract": "Project-3-Storage/SimpleStorage.sol:EmployeeStorage",
						"label": "age",
						"offset": 0,
						"slot": "0",
						"type": "t_uint8"
					},
					{
						"astId": 5,
						"contract": "Project-3-Storage/SimpleStorage.sol:EmployeeStorage",
						"label": "cars",
						"offset": 1,
						"slot": "0",
						"type": "t_uint8"
					}
				],
				"types": {
					"t_uint8": {
						"encoding": "inplace",
						"label": "uint8",
						"numberOfBytes": "1"
					}
				}
			},
			"userdoc": {
				"kind": "user",
				"methods": {},
				"version": 1
			}
		}
	}
}