{
	"Project-6-Structs/GarageManager.sol": {
		"GarageManager": {
			"abi": [
				{
					"inputs": [
						{
							"internalType": "string",
							"name": "_make",
							"type": "string"
						},
						{
							"internalType": "string",
							"name": "_model",
							"type": "string"
						},
						{
							"internalType": "string",
							"name": "_color",
							"type": "string"
						},
						{
							"internalType": "uint256",
							"name": "_numberOfDoors",
							"type": "uint256"
						}
					],
					"name": "addCar",
					"outputs": [],
					"stateMutability": "nonpayable",
					"type": "function"
				},
				{
					"inputs": [
						{
							"internalType": "address",
							"name": "",
							"type": "address"
						}
					],
					"name": "garage",
					"outputs": [
						{
							"internalType": "string",
							"name": "make",
							"type": "string"
						},
						{
							"internalType": "string",
							"name": "model",
							"type": "string"
						},
						{
							"internalType": "string",
							"name": "color",
							"type": "string"
						},
						{
							"internalType": "uint256",
							"name": "numberOfDoors",
							"type": "uint256"
						}
					],
					"stateMutability": "view",
					"type": "function"
				},
				{
					"inputs": [],
					"name": "getMyCars",
					"outputs": [
						{
							"components": [
								{
									"internalType": "string",
									"name": "make",
									"type": "string"
								},
								{
									"internalType": "string",
									"name": "model",
									"type": "string"
								},
								{
									"internalType": "string",
									"name": "color",
									"type": "string"
								},
								{
									"internalType": "uint256",
									"name": "numberOfDoors",
									"type": "uint256"
								}
							],
							"internalType": "struct GarageManager.Car[]",
							"name": "",
							"type": "tuple[]"
						}
					],
					"stateMutability": "nonpayable",
					"type": "function"
				},
				{
					"inputs": [],
					"name": "getUserCars",
					"outputs": [
						{
							"components": [
								{
									"internalType": "string",
									"name": "make",
									"type": "string"
								},
								{
									"internalType": "string",
									"name": "model",
									"type": "string"
								},
								{
									"internalType": "string",
									"name": "color",
									"type": "string"
								},
								{
									"internalType": "uint256",
									"name": "numberOfDoors",
									"type": "uint256"
								}
							],
							"internalType": "struct GarageManager.Car[]",
							"name": "",
							"type": "tuple[]"
						}
					],
					"stateMutability": "nonpayable",
					"type": "function"
				},
				{
					"inputs": [],
					"name": "resetMyGarage",
					"outputs": [],
					"stateMutability": "nonpayable",
					"type": "function"
				},
				{
					"inputs": [
						{
							"internalType": "uint256",
							"name": "_index",
							"type": "uint256"
						}
					],
					"name": "updateCar",
					"outputs": [],
					"stateMutability": "nonpayable",
					"type": "function"
				},
				{
					"inputs": [
						{
							"internalType": "uint256",
							"name": "",
							"type": "uint256"
						}
					],
					"name": "userCars",
					"outputs": [
						{
							"internalType": "string",
							"name": "make",
							"type": "string"
						},
						{
							"internalType": "string",
							"name": "model",
							"type": "string"
						},
						{
							"internalType": "string",
							"name": "color",
							"type": "string"
						},
						{
							"internalType": "uint256",
							"name": "numberOfDoors",
							"type": "uint256"
						}
					],
					"stateMutability": "view",
					"type": "function"
				}
			],
			"devdoc": {
				"kind": "dev",
				"methods": {},
				"version": 1
			},
			"evm": {
				"assembly": "    /* \"Project-6-Structs/GarageManager.sol\":62:1043  contract GarageManager {... */\n  mstore(0x40, 0x80)\n  callvalue\n  dup1\n  iszero\n  tag_1\n  jumpi\n  0x00\n  dup1\n  revert\ntag_1:\n  pop\n  dataSize(sub_0)\n  dup1\n  dataOffset(sub_0)\n  0x00\n  codecopy\n  0x00\n  return\nstop\n\nsub_0: assembly {\n        /* \"Project-6-Structs/GarageManager.sol\":62:1043  contract GarageManager {... */\n      mstore(0x40, 0x80)\n      callvalue\n      dup1\n      iszero\n      tag_1\n      jumpi\n      0x00\n      dup1\n      revert\n    tag_1:\n      pop\n      jumpi(tag_2, lt(calldatasize, 0x04))\n      shr(0xe0, calldataload(0x00))\n      dup1\n      0x5631b41e\n      gt\n      tag_10\n      jumpi\n      dup1\n      0x5631b41e\n      eq\n      tag_6\n      jumpi\n      dup1\n      0x6dcb7896\n      eq\n      tag_7\n      jumpi\n      dup1\n      0xc27a399d\n      eq\n      tag_8\n      jumpi\n      dup1\n      0xd2d50bd8\n      eq\n      tag_9\n      jumpi\n      jump(tag_2)\n    tag_10:\n      dup1\n      0x3263c536\n      eq\n      tag_3\n      jumpi\n      dup1\n      0x341fa05d\n      eq\n      tag_4\n      jumpi\n      dup1\n      0x472d5008\n      eq\n      tag_5\n      jumpi\n    tag_2:\n      0x00\n      dup1\n      revert\n        /* \"Project-6-Structs/GarageManager.sol\":937:988  function updateCar(uint _index) external {... */\n    tag_3:\n      tag_11\n      0x04\n      dup1\n      calldatasize\n      sub\n      dup2\n      add\n      swap1\n      tag_12\n      swap2\n      swap1\n      tag_13\n      jump\t// in\n    tag_12:\n      tag_14\n      jump\t// in\n    tag_11:\n      stop\n        /* \"Project-6-Structs/GarageManager.sol\":691:857  function getMyCars() external returns(Car[] memory) {... */\n    tag_4:\n      tag_15\n      tag_16\n      jump\t// in\n    tag_15:\n      mload(0x40)\n      tag_17\n      swap2\n      swap1\n      tag_18\n      jump\t// in\n    tag_17:\n      mload(0x40)\n      dup1\n      swap2\n      sub\n      swap1\n      return\n        /* \"Project-6-Structs/GarageManager.sol\":92:129  mapping(address => Car) public garage */\n    tag_5:\n      tag_19\n      0x04\n      dup1\n      calldatasize\n      sub\n      dup2\n      add\n      swap1\n      tag_20\n      swap2\n      swap1\n      tag_21\n      jump\t// in\n    tag_20:\n      tag_22\n      jump\t// in\n    tag_19:\n      mload(0x40)\n      tag_23\n      swap5\n      swap4\n      swap3\n      swap2\n      swap1\n      tag_24\n      jump\t// in\n    tag_23:\n      mload(0x40)\n      dup1\n      swap2\n      sub\n      swap1\n      return\n        /* \"Project-6-Structs/GarageManager.sol\":136:157  Car[] public userCars */\n    tag_6:\n      tag_25\n      0x04\n      dup1\n      calldatasize\n      sub\n      dup2\n      add\n      swap1\n      tag_26\n      swap2\n      swap1\n      tag_13\n      jump\t// in\n    tag_26:\n      tag_27\n      jump\t// in\n    tag_25:\n      mload(0x40)\n      tag_28\n      swap5\n      swap4\n      swap3\n      swap2\n      swap1\n      tag_24\n      jump\t// in\n    tag_28:\n      mload(0x40)\n      dup1\n      swap2\n      sub\n      swap1\n      return\n        /* \"Project-6-Structs/GarageManager.sol\":996:1040  function resetMyGarage() external {... */\n    tag_7:\n      tag_29\n      tag_30\n      jump\t// in\n    tag_29:\n      stop\n        /* \"Project-6-Structs/GarageManager.sol\":865:929  function getUserCars() external returns(Car[] memory) {... */\n    tag_8:\n      tag_31\n      tag_32\n      jump\t// in\n    tag_31:\n      mload(0x40)\n      tag_33\n      swap2\n      swap1\n      tag_18\n      jump\t// in\n    tag_33:\n      mload(0x40)\n      dup1\n      swap2\n      sub\n      swap1\n      return\n        /* \"Project-6-Structs/GarageManager.sol\":288:683  function addCar(... */\n    tag_9:\n      tag_34\n      0x04\n      dup1\n      calldatasize\n      sub\n      dup2\n      add\n      swap1\n      tag_35\n      swap2\n      swap1\n      tag_36\n      jump\t// in\n    tag_35:\n      tag_37\n      jump\t// in\n    tag_34:\n      stop\n        /* \"Project-6-Structs/GarageManager.sol\":937:988  function updateCar(uint _index) external {... */\n    tag_14:\n      pop\n      jump\t// out\n        /* \"Project-6-Structs/GarageManager.sol\":691:857  function getMyCars() external returns(Car[] memory) {... */\n    tag_16:\n        /* \"Project-6-Structs/GarageManager.sol\":729:741  Car[] memory */\n      0x60\n        /* \"Project-6-Structs/GarageManager.sol\":691:857  function getMyCars() external returns(Car[] memory) {... */\n      swap1\n      jump\t// out\n        /* \"Project-6-Structs/GarageManager.sol\":92:129  mapping(address => Car) public garage */\n    tag_22:\n      mstore(0x20, 0x00)\n      dup1\n      0x00\n      mstore\n      keccak256(0x00, 0x40)\n      0x00\n      swap2\n      pop\n      swap1\n      pop\n      dup1\n      0x00\n      add\n      dup1\n      sload\n      tag_40\n      swap1\n      tag_41\n      jump\t// in\n    tag_40:\n      dup1\n      0x1f\n      add\n      0x20\n      dup1\n      swap2\n      div\n      mul\n      0x20\n      add\n      mload(0x40)\n      swap1\n      dup2\n      add\n      0x40\n      mstore\n      dup1\n      swap3\n      swap2\n      swap1\n      dup2\n      dup2\n      mstore\n      0x20\n      add\n      dup3\n      dup1\n      sload\n      tag_42\n      swap1\n      tag_41\n      jump\t// in\n    tag_42:\n      dup1\n      iszero\n      tag_43\n      jumpi\n      dup1\n      0x1f\n      lt\n      tag_44\n      jumpi\n      0x0100\n      dup1\n      dup4\n      sload\n      div\n      mul\n      dup4\n      mstore\n      swap2\n      0x20\n      add\n      swap2\n      jump(tag_43)\n    tag_44:\n      dup3\n      add\n      swap2\n      swap1\n      0x00\n      mstore\n      keccak256(0x00, 0x20)\n      swap1\n    tag_45:\n      dup2\n      sload\n      dup2\n      mstore\n      swap1\n      0x01\n      add\n      swap1\n      0x20\n      add\n      dup1\n      dup4\n      gt\n      tag_45\n      jumpi\n      dup3\n      swap1\n      sub\n      0x1f\n      and\n      dup3\n      add\n      swap2\n    tag_43:\n      pop\n      pop\n      pop\n      pop\n      pop\n      swap1\n      dup1\n      0x01\n      add\n      dup1\n      sload\n      tag_46\n      swap1\n      tag_41\n      jump\t// in\n    tag_46:\n      dup1\n      0x1f\n      add\n      0x20\n      dup1\n      swap2\n      div\n      mul\n      0x20\n      add\n      mload(0x40)\n      swap1\n      dup2\n      add\n      0x40\n      mstore\n      dup1\n      swap3\n      swap2\n      swap1\n      dup2\n      dup2\n      mstore\n      0x20\n      add\n      dup3\n      dup1\n      sload\n      tag_47\n      swap1\n      tag_41\n      jump\t// in\n    tag_47:\n      dup1\n      iszero\n      tag_48\n      jumpi\n      dup1\n      0x1f\n      lt\n      tag_49\n      jumpi\n      0x0100\n      dup1\n      dup4\n      sload\n      div\n      mul\n      dup4\n      mstore\n      swap2\n      0x20\n      add\n      swap2\n      jump(tag_48)\n    tag_49:\n      dup3\n      add\n      swap2\n      swap1\n      0x00\n      mstore\n      keccak256(0x00, 0x20)\n      swap1\n    tag_50:\n      dup2\n      sload\n      dup2\n      mstore\n      swap1\n      0x01\n      add\n      swap1\n      0x20\n      add\n      dup1\n      dup4\n      gt\n      tag_50\n      jumpi\n      dup3\n      swap1\n      sub\n      0x1f\n      and\n      dup3\n      add\n      swap2\n    tag_48:\n      pop\n      pop\n      pop\n      pop\n      pop\n      swap1\n      dup1\n      0x02\n      add\n      dup1\n      sload\n      tag_51\n      swap1\n      tag_41\n      jump\t// in\n    tag_51:\n      dup1\n      0x1f\n      add\n      0x20\n      dup1\n      swap2\n      div\n      mul\n      0x20\n      add\n      mload(0x40)\n      swap1\n      dup2\n      add\n      0x40\n      mstore\n      dup1\n      swap3\n      swap2\n      swap1\n      dup2\n      dup2\n      mstore\n      0x20\n      add\n      dup3\n      dup1\n      sload\n      tag_52\n      swap1\n      tag_41\n      jump\t// in\n    tag_52:\n      dup1\n      iszero\n      tag_53\n      jumpi\n      dup1\n      0x1f\n      lt\n      tag_54\n      jumpi\n      0x0100\n      dup1\n      dup4\n      sload\n      div\n      mul\n      dup4\n      mstore\n      swap2\n      0x20\n      add\n      swap2\n      jump(tag_53)\n    tag_54:\n      dup3\n      add\n      swap2\n      swap1\n      0x00\n      mstore\n      keccak256(0x00, 0x20)\n      swap1\n    tag_55:\n      dup2\n      sload\n      dup2\n      mstore\n      swap1\n      0x01\n      add\n      swap1\n      0x20\n      add\n      dup1\n      dup4\n      gt\n      tag_55\n      jumpi\n      dup3\n      swap1\n      sub\n      0x1f\n      and\n      dup3\n      add\n      swap2\n    tag_53:\n      pop\n      pop\n      pop\n      pop\n      pop\n      swap1\n      dup1\n      0x03\n      add\n      sload\n      swap1\n      pop\n      dup5\n      jump\t// out\n        /* \"Project-6-Structs/GarageManager.sol\":136:157  Car[] public userCars */\n    tag_27:\n      0x01\n      dup2\n      dup2\n      sload\n      dup2\n      lt\n      tag_56\n      jumpi\n      0x00\n      dup1\n      revert\n    tag_56:\n      swap1\n      0x00\n      mstore\n      keccak256(0x00, 0x20)\n      swap1\n      0x04\n      mul\n      add\n      0x00\n      swap2\n      pop\n      swap1\n      pop\n      dup1\n      0x00\n      add\n      dup1\n      sload\n      tag_58\n      swap1\n      tag_41\n      jump\t// in\n    tag_58:\n      dup1\n      0x1f\n      add\n      0x20\n      dup1\n      swap2\n      div\n      mul\n      0x20\n      add\n      mload(0x40)\n      swap1\n      dup2\n      add\n      0x40\n      mstore\n      dup1\n      swap3\n      swap2\n      swap1\n      dup2\n      dup2\n      mstore\n      0x20\n      add\n      dup3\n      dup1\n      sload\n      tag_59\n      swap1\n      tag_41\n      jump\t// in\n    tag_59:\n      dup1\n      iszero\n      tag_60\n      jumpi\n      dup1\n      0x1f\n      lt\n      tag_61\n      jumpi\n      0x0100\n      dup1\n      dup4\n      sload\n      div\n      mul\n      dup4\n      mstore\n      swap2\n      0x20\n      add\n      swap2\n      jump(tag_60)\n    tag_61:\n      dup3\n      add\n      swap2\n      swap1\n      0x00\n      mstore\n      keccak256(0x00, 0x20)\n      swap1\n    tag_62:\n      dup2\n      sload\n      dup2\n      mstore\n      swap1\n      0x01\n      add\n      swap1\n      0x20\n      add\n      dup1\n      dup4\n      gt\n      tag_62\n      jumpi\n      dup3\n      swap1\n      sub\n      0x1f\n      and\n      dup3\n      add\n      swap2\n    tag_60:\n      pop\n      pop\n      pop\n      pop\n      pop\n      swap1\n      dup1\n      0x01\n      add\n      dup1\n      sload\n      tag_63\n      swap1\n      tag_41\n      jump\t// in\n    tag_63:\n      dup1\n      0x1f\n      add\n      0x20\n      dup1\n      swap2\n      div\n      mul\n      0x20\n      add\n      mload(0x40)\n      swap1\n      dup2\n      add\n      0x40\n      mstore\n      dup1\n      swap3\n      swap2\n      swap1\n      dup2\n      dup2\n      mstore\n      0x20\n      add\n      dup3\n      dup1\n      sload\n      tag_64\n      swap1\n      tag_41\n      jump\t// in\n    tag_64:\n      dup1\n      iszero\n      tag_65\n      jumpi\n      dup1\n      0x1f\n      lt\n      tag_66\n      jumpi\n      0x0100\n      dup1\n      dup4\n      sload\n      div\n      mul\n      dup4\n      mstore\n      swap2\n      0x20\n      add\n      swap2\n      jump(tag_65)\n    tag_66:\n      dup3\n      add\n      swap2\n      swap1\n      0x00\n      mstore\n      keccak256(0x00, 0x20)\n      swap1\n    tag_67:\n      dup2\n      sload\n      dup2\n      mstore\n      swap1\n      0x01\n      add\n      swap1\n      0x20\n      add\n      dup1\n      dup4\n      gt\n      tag_67\n      jumpi\n      dup3\n      swap1\n      sub\n      0x1f\n      and\n      dup3\n      add\n      swap2\n    tag_65:\n      pop\n      pop\n      pop\n      pop\n      pop\n      swap1\n      dup1\n      0x02\n      add\n      dup1\n      sload\n      tag_68\n      swap1\n      tag_41\n      jump\t// in\n    tag_68:\n      dup1\n      0x1f\n      add\n      0x20\n      dup1\n      swap2\n      div\n      mul\n      0x20\n      add\n      mload(0x40)\n      swap1\n      dup2\n      add\n      0x40\n      mstore\n      dup1\n      swap3\n      swap2\n      swap1\n      dup2\n      dup2\n      mstore\n      0x20\n      add\n      dup3\n      dup1\n      sload\n      tag_69\n      swap1\n      tag_41\n      jump\t// in\n    tag_69:\n      dup1\n      iszero\n      tag_70\n      jumpi\n      dup1\n      0x1f\n      lt\n      tag_71\n      jumpi\n      0x0100\n      dup1\n      dup4\n      sload\n      div\n      mul\n      dup4\n      mstore\n      swap2\n      0x20\n      add\n      swap2\n      jump(tag_70)\n    tag_71:\n      dup3\n      add\n      swap2\n      swap1\n      0x00\n      mstore\n      keccak256(0x00, 0x20)\n      swap1\n    tag_72:\n      dup2\n      sload\n      dup2\n      mstore\n      swap1\n      0x01\n      add\n      swap1\n      0x20\n      add\n      dup1\n      dup4\n      gt\n      tag_72\n      jumpi\n      dup3\n      swap1\n      sub\n      0x1f\n      and\n      dup3\n      add\n      swap2\n    tag_70:\n      pop\n      pop\n      pop\n      pop\n      pop\n      swap1\n      dup1\n      0x03\n      add\n      sload\n      swap1\n      pop\n      dup5\n      jump\t// out\n        /* \"Project-6-Structs/GarageManager.sol\":996:1040  function resetMyGarage() external {... */\n    tag_30:\n      jump\t// out\n        /* \"Project-6-Structs/GarageManager.sol\":865:929  function getUserCars() external returns(Car[] memory) {... */\n    tag_32:\n        /* \"Project-6-Structs/GarageManager.sol\":905:917  Car[] memory */\n      0x60\n        /* \"Project-6-Structs/GarageManager.sol\":865:929  function getUserCars() external returns(Car[] memory) {... */\n      swap1\n      jump\t// out\n        /* \"Project-6-Structs/GarageManager.sol\":288:683  function addCar(... */\n    tag_37:\n        /* \"Project-6-Structs/GarageManager.sol\":459:477  Car storage newCar */\n      0x00\n        /* \"Project-6-Structs/GarageManager.sol\":480:488  userCars */\n      0x01\n        /* \"Project-6-Structs/GarageManager.sol\":480:495  userCars.push() */\n      dup1\n      dup2\n      0x01\n      dup2\n      sload\n      add\n      dup1\n      dup3\n      sstore\n      dup1\n      swap2\n      pop\n      pop\n      sub\n      swap1\n      0x00\n      mstore\n      keccak256(0x00, 0x20)\n      swap1\n      0x04\n      mul\n      add\n        /* \"Project-6-Structs/GarageManager.sol\":459:495  Car storage newCar = userCars.push() */\n      swap1\n      pop\n        /* \"Project-6-Structs/GarageManager.sol\":520:525  _make */\n      dup8\n      dup8\n        /* \"Project-6-Structs/GarageManager.sol\":506:512  newCar */\n      dup3\n        /* \"Project-6-Structs/GarageManager.sol\":506:517  newCar.make */\n      0x00\n      add\n        /* \"Project-6-Structs/GarageManager.sol\":506:525  newCar.make = _make */\n      swap2\n      dup3\n      tag_77\n      swap3\n      swap2\n      swap1\n      tag_78\n      jump\t// in\n    tag_77:\n      pop\n        /* \"Project-6-Structs/GarageManager.sol\":551:557  _model */\n      dup6\n      dup6\n        /* \"Project-6-Structs/GarageManager.sol\":536:542  newCar */\n      dup3\n        /* \"Project-6-Structs/GarageManager.sol\":536:548  newCar.model */\n      0x01\n      add\n        /* \"Project-6-Structs/GarageManager.sol\":536:557  newCar.model = _model */\n      swap2\n      dup3\n      tag_79\n      swap3\n      swap2\n      swap1\n      tag_78\n      jump\t// in\n    tag_79:\n      pop\n        /* \"Project-6-Structs/GarageManager.sol\":583:589  _color */\n      dup4\n      dup4\n        /* \"Project-6-Structs/GarageManager.sol\":568:574  newCar */\n      dup3\n        /* \"Project-6-Structs/GarageManager.sol\":568:580  newCar.color */\n      0x02\n      add\n        /* \"Project-6-Structs/GarageManager.sol\":568:589  newCar.color = _color */\n      swap2\n      dup3\n      tag_80\n      swap3\n      swap2\n      swap1\n      tag_78\n      jump\t// in\n    tag_80:\n      pop\n        /* \"Project-6-Structs/GarageManager.sol\":623:637  _numberOfDoors */\n      dup2\n        /* \"Project-6-Structs/GarageManager.sol\":600:606  newCar */\n      dup2\n        /* \"Project-6-Structs/GarageManager.sol\":600:620  newCar.numberOfDoors */\n      0x03\n      add\n        /* \"Project-6-Structs/GarageManager.sol\":600:637  newCar.numberOfDoors = _numberOfDoors */\n      dup2\n      swap1\n      sstore\n      pop\n        /* \"Project-6-Structs/GarageManager.sol\":669:675  newCar */\n      dup1\n        /* \"Project-6-Structs/GarageManager.sol\":648:654  garage */\n      0x00\n        /* \"Project-6-Structs/GarageManager.sol\":648:666  garage[msg.sender] */\n      dup1\n        /* \"Project-6-Structs/GarageManager.sol\":655:665  msg.sender */\n      caller\n        /* \"Project-6-Structs/GarageManager.sol\":648:666  garage[msg.sender] */\n      0xffffffffffffffffffffffffffffffffffffffff\n      and\n      0xffffffffffffffffffffffffffffffffffffffff\n      and\n      dup2\n      mstore\n      0x20\n      add\n      swap1\n      dup2\n      mstore\n      0x20\n      add\n      0x00\n      keccak256\n        /* \"Project-6-Structs/GarageManager.sol\":648:675  garage[msg.sender] = newCar */\n      0x00\n      dup3\n      add\n      dup2\n      0x00\n      add\n      swap1\n      dup2\n      tag_81\n      swap2\n      swap1\n      tag_82\n      jump\t// in\n    tag_81:\n      pop\n      0x01\n      dup3\n      add\n      dup2\n      0x01\n      add\n      swap1\n      dup2\n      tag_83\n      swap2\n      swap1\n      tag_82\n      jump\t// in\n    tag_83:\n      pop\n      0x02\n      dup3\n      add\n      dup2\n      0x02\n      add\n      swap1\n      dup2\n      tag_84\n      swap2\n      swap1\n      tag_82\n      jump\t// in\n    tag_84:\n      pop\n      0x03\n      dup3\n      add\n      sload\n      dup2\n      0x03\n      add\n      sstore\n      swap1\n      pop\n      pop\n        /* \"Project-6-Structs/GarageManager.sol\":448:683  {... */\n      pop\n        /* \"Project-6-Structs/GarageManager.sol\":288:683  function addCar(... */\n      pop\n      pop\n      pop\n      pop\n      pop\n      pop\n      pop\n      jump\t// out\n        /* \"#utility.yul\":88:205   */\n    tag_86:\n        /* \"#utility.yul\":197:198   */\n      0x00\n        /* \"#utility.yul\":194:195   */\n      dup1\n        /* \"#utility.yul\":187:199   */\n      revert\n        /* \"#utility.yul\":211:328   */\n    tag_87:\n        /* \"#utility.yul\":320:321   */\n      0x00\n        /* \"#utility.yul\":317:318   */\n      dup1\n        /* \"#utility.yul\":310:322   */\n      revert\n        /* \"#utility.yul\":334:411   */\n    tag_88:\n        /* \"#utility.yul\":371:378   */\n      0x00\n        /* \"#utility.yul\":400:405   */\n      dup2\n        /* \"#utility.yul\":389:405   */\n      swap1\n      pop\n        /* \"#utility.yul\":334:411   */\n      swap2\n      swap1\n      pop\n      jump\t// out\n        /* \"#utility.yul\":417:539   */\n    tag_89:\n        /* \"#utility.yul\":490:514   */\n      tag_140\n        /* \"#utility.yul\":508:513   */\n      dup2\n        /* \"#utility.yul\":490:514   */\n      tag_88\n      jump\t// in\n    tag_140:\n        /* \"#utility.yul\":483:488   */\n      dup2\n        /* \"#utility.yul\":480:515   */\n      eq\n        /* \"#utility.yul\":470:533   */\n      tag_141\n      jumpi\n        /* \"#utility.yul\":529:530   */\n      0x00\n        /* \"#utility.yul\":526:527   */\n      dup1\n        /* \"#utility.yul\":519:531   */\n      revert\n        /* \"#utility.yul\":470:533   */\n    tag_141:\n        /* \"#utility.yul\":417:539   */\n      pop\n      jump\t// out\n        /* \"#utility.yul\":545:684   */\n    tag_90:\n        /* \"#utility.yul\":591:596   */\n      0x00\n        /* \"#utility.yul\":629:635   */\n      dup2\n        /* \"#utility.yul\":616:636   */\n      calldataload\n        /* \"#utility.yul\":607:636   */\n      swap1\n      pop\n        /* \"#utility.yul\":645:678   */\n      tag_143\n        /* \"#utility.yul\":672:677   */\n      dup2\n        /* \"#utility.yul\":645:678   */\n      tag_89\n      jump\t// in\n    tag_143:\n        /* \"#utility.yul\":545:684   */\n      swap3\n      swap2\n      pop\n      pop\n      jump\t// out\n        /* \"#utility.yul\":690:1019   */\n    tag_13:\n        /* \"#utility.yul\":749:755   */\n      0x00\n        /* \"#utility.yul\":798:800   */\n      0x20\n        /* \"#utility.yul\":786:795   */\n      dup3\n        /* \"#utility.yul\":777:784   */\n      dup5\n        /* \"#utility.yul\":773:796   */\n      sub\n        /* \"#utility.yul\":769:801   */\n      slt\n        /* \"#utility.yul\":766:885   */\n      iszero\n      tag_145\n      jumpi\n        /* \"#utility.yul\":804:883   */\n      tag_146\n      tag_86\n      jump\t// in\n    tag_146:\n        /* \"#utility.yul\":766:885   */\n    tag_145:\n        /* \"#utility.yul\":924:925   */\n      0x00\n        /* \"#utility.yul\":949:1002   */\n      tag_147\n        /* \"#utility.yul\":994:1001   */\n      dup5\n        /* \"#utility.yul\":985:991   */\n      dup3\n        /* \"#utility.yul\":974:983   */\n      dup6\n        /* \"#utility.yul\":970:992   */\n      add\n        /* \"#utility.yul\":949:1002   */\n      tag_90\n      jump\t// in\n    tag_147:\n        /* \"#utility.yul\":939:1002   */\n      swap2\n      pop\n        /* \"#utility.yul\":895:1012   */\n      pop\n        /* \"#utility.yul\":690:1019   */\n      swap3\n      swap2\n      pop\n      pop\n      jump\t// out\n        /* \"#utility.yul\":1025:1158   */\n    tag_91:\n        /* \"#utility.yul\":1111:1117   */\n      0x00\n        /* \"#utility.yul\":1145:1150   */\n      dup2\n        /* \"#utility.yul\":1139:1151   */\n      mload\n        /* \"#utility.yul\":1129:1151   */\n      swap1\n      pop\n        /* \"#utility.yul\":1025:1158   */\n      swap2\n      swap1\n      pop\n      jump\t// out\n        /* \"#utility.yul\":1164:1367   */\n    tag_92:\n        /* \"#utility.yul\":1282:1293   */\n      0x00\n        /* \"#utility.yul\":1316:1322   */\n      dup3\n        /* \"#utility.yul\":1311:1314   */\n      dup3\n        /* \"#utility.yul\":1304:1323   */\n      mstore\n        /* \"#utility.yul\":1356:1360   */\n      0x20\n        /* \"#utility.yul\":1351:1354   */\n      dup3\n        /* \"#utility.yul\":1347:1361   */\n      add\n        /* \"#utility.yul\":1332:1361   */\n      swap1\n      pop\n        /* \"#utility.yul\":1164:1367   */\n      swap3\n      swap2\n      pop\n      pop\n      jump\t// out\n        /* \"#utility.yul\":1373:1524   */\n    tag_93:\n        /* \"#utility.yul\":1459:1463   */\n      0x00\n        /* \"#utility.yul\":1482:1485   */\n      dup2\n        /* \"#utility.yul\":1474:1485   */\n      swap1\n      pop\n        /* \"#utility.yul\":1512:1516   */\n      0x20\n        /* \"#utility.yul\":1507:1510   */\n      dup3\n        /* \"#utility.yul\":1503:1517   */\n      add\n        /* \"#utility.yul\":1495:1517   */\n      swap1\n      pop\n        /* \"#utility.yul\":1373:1524   */\n      swap2\n      swap1\n      pop\n      jump\t// out\n        /* \"#utility.yul\":1530:1629   */\n    tag_94:\n        /* \"#utility.yul\":1582:1588   */\n      0x00\n        /* \"#utility.yul\":1616:1621   */\n      dup2\n        /* \"#utility.yul\":1610:1622   */\n      mload\n        /* \"#utility.yul\":1600:1622   */\n      swap1\n      pop\n        /* \"#utility.yul\":1530:1629   */\n      swap2\n      swap1\n      pop\n      jump\t// out\n        /* \"#utility.yul\":1635:1794   */\n    tag_95:\n        /* \"#utility.yul\":1709:1720   */\n      0x00\n        /* \"#utility.yul\":1743:1749   */\n      dup3\n        /* \"#utility.yul\":1738:1741   */\n      dup3\n        /* \"#utility.yul\":1731:1750   */\n      mstore\n        /* \"#utility.yul\":1783:1787   */\n      0x20\n        /* \"#utility.yul\":1778:1781   */\n      dup3\n        /* \"#utility.yul\":1774:1788   */\n      add\n        /* \"#utility.yul\":1759:1788   */\n      swap1\n      pop\n        /* \"#utility.yul\":1635:1794   */\n      swap3\n      swap2\n      pop\n      pop\n      jump\t// out\n        /* \"#utility.yul\":1800:1939   */\n    tag_96:\n        /* \"#utility.yul\":1889:1895   */\n      dup3\n        /* \"#utility.yul\":1884:1887   */\n      dup2\n        /* \"#utility.yul\":1879:1882   */\n      dup4\n        /* \"#utility.yul\":1873:1896   */\n      mcopy\n        /* \"#utility.yul\":1930:1931   */\n      0x00\n        /* \"#utility.yul\":1921:1927   */\n      dup4\n        /* \"#utility.yul\":1916:1919   */\n      dup4\n        /* \"#utility.yul\":1912:1928   */\n      add\n        /* \"#utility.yul\":1905:1932   */\n      mstore\n        /* \"#utility.yul\":1800:1939   */\n      pop\n      pop\n      pop\n      jump\t// out\n        /* \"#utility.yul\":1945:2047   */\n    tag_97:\n        /* \"#utility.yul\":1986:1992   */\n      0x00\n        /* \"#utility.yul\":2037:2039   */\n      0x1f\n        /* \"#utility.yul\":2033:2040   */\n      not\n        /* \"#utility.yul\":2028:2030   */\n      0x1f\n        /* \"#utility.yul\":2021:2026   */\n      dup4\n        /* \"#utility.yul\":2017:2031   */\n      add\n        /* \"#utility.yul\":2013:2041   */\n      and\n        /* \"#utility.yul\":2003:2041   */\n      swap1\n      pop\n        /* \"#utility.yul\":1945:2047   */\n      swap2\n      swap1\n      pop\n      jump\t// out\n        /* \"#utility.yul\":2053:2410   */\n    tag_98:\n        /* \"#utility.yul\":2131:2134   */\n      0x00\n        /* \"#utility.yul\":2159:2198   */\n      tag_156\n        /* \"#utility.yul\":2192:2197   */\n      dup3\n        /* \"#utility.yul\":2159:2198   */\n      tag_94\n      jump\t// in\n    tag_156:\n        /* \"#utility.yul\":2214:2275   */\n      tag_157\n        /* \"#utility.yul\":2268:2274   */\n      dup2\n        /* \"#utility.yul\":2263:2266   */\n      dup6\n        /* \"#utility.yul\":2214:2275   */\n      tag_95\n      jump\t// in\n    tag_157:\n        /* \"#utility.yul\":2207:2275   */\n      swap4\n      pop\n        /* \"#utility.yul\":2284:2349   */\n      tag_158\n        /* \"#utility.yul\":2342:2348   */\n      dup2\n        /* \"#utility.yul\":2337:2340   */\n      dup6\n        /* \"#utility.yul\":2330:2334   */\n      0x20\n        /* \"#utility.yul\":2323:2328   */\n      dup7\n        /* \"#utility.yul\":2319:2335   */\n      add\n        /* \"#utility.yul\":2284:2349   */\n      tag_96\n      jump\t// in\n    tag_158:\n        /* \"#utility.yul\":2374:2403   */\n      tag_159\n        /* \"#utility.yul\":2396:2402   */\n      dup2\n        /* \"#utility.yul\":2374:2403   */\n      tag_97\n      jump\t// in\n    tag_159:\n        /* \"#utility.yul\":2369:2372   */\n      dup5\n        /* \"#utility.yul\":2365:2404   */\n      add\n        /* \"#utility.yul\":2358:2404   */\n      swap2\n      pop\n        /* \"#utility.yul\":2135:2410   */\n      pop\n        /* \"#utility.yul\":2053:2410   */\n      swap3\n      swap2\n      pop\n      pop\n      jump\t// out\n        /* \"#utility.yul\":2416:2524   */\n    tag_99:\n        /* \"#utility.yul\":2493:2517   */\n      tag_161\n        /* \"#utility.yul\":2511:2516   */\n      dup2\n        /* \"#utility.yul\":2493:2517   */\n      tag_88\n      jump\t// in\n    tag_161:\n        /* \"#utility.yul\":2488:2491   */\n      dup3\n        /* \"#utility.yul\":2481:2518   */\n      mstore\n        /* \"#utility.yul\":2416:2524   */\n      pop\n      pop\n      jump\t// out\n        /* \"#utility.yul\":2590:3675   */\n    tag_100:\n        /* \"#utility.yul\":2687:2690   */\n      0x00\n        /* \"#utility.yul\":2723:2727   */\n      0x80\n        /* \"#utility.yul\":2718:2721   */\n      dup4\n        /* \"#utility.yul\":2714:2728   */\n      add\n        /* \"#utility.yul\":2810:2814   */\n      0x00\n        /* \"#utility.yul\":2803:2808   */\n      dup4\n        /* \"#utility.yul\":2799:2815   */\n      add\n        /* \"#utility.yul\":2793:2816   */\n      mload\n        /* \"#utility.yul\":2863:2866   */\n      dup5\n        /* \"#utility.yul\":2857:2861   */\n      dup3\n        /* \"#utility.yul\":2853:2867   */\n      sub\n        /* \"#utility.yul\":2846:2850   */\n      0x00\n        /* \"#utility.yul\":2841:2844   */\n      dup7\n        /* \"#utility.yul\":2837:2851   */\n      add\n        /* \"#utility.yul\":2830:2868   */\n      mstore\n        /* \"#utility.yul\":2889:2962   */\n      tag_163\n        /* \"#utility.yul\":2957:2961   */\n      dup3\n        /* \"#utility.yul\":2943:2955   */\n      dup3\n        /* \"#utility.yul\":2889:2962   */\n      tag_98\n      jump\t// in\n    tag_163:\n        /* \"#utility.yul\":2881:2962   */\n      swap2\n      pop\n        /* \"#utility.yul\":2738:2973   */\n      pop\n        /* \"#utility.yul\":3056:3060   */\n      0x20\n        /* \"#utility.yul\":3049:3054   */\n      dup4\n        /* \"#utility.yul\":3045:3061   */\n      add\n        /* \"#utility.yul\":3039:3062   */\n      mload\n        /* \"#utility.yul\":3109:3112   */\n      dup5\n        /* \"#utility.yul\":3103:3107   */\n      dup3\n        /* \"#utility.yul\":3099:3113   */\n      sub\n        /* \"#utility.yul\":3092:3096   */\n      0x20\n        /* \"#utility.yul\":3087:3090   */\n      dup7\n        /* \"#utility.yul\":3083:3097   */\n      add\n        /* \"#utility.yul\":3076:3114   */\n      mstore\n        /* \"#utility.yul\":3135:3208   */\n      tag_164\n        /* \"#utility.yul\":3203:3207   */\n      dup3\n        /* \"#utility.yul\":3189:3201   */\n      dup3\n        /* \"#utility.yul\":3135:3208   */\n      tag_98\n      jump\t// in\n    tag_164:\n        /* \"#utility.yul\":3127:3208   */\n      swap2\n      pop\n        /* \"#utility.yul\":2983:3219   */\n      pop\n        /* \"#utility.yul\":3302:3306   */\n      0x40\n        /* \"#utility.yul\":3295:3300   */\n      dup4\n        /* \"#utility.yul\":3291:3307   */\n      add\n        /* \"#utility.yul\":3285:3308   */\n      mload\n        /* \"#utility.yul\":3355:3358   */\n      dup5\n        /* \"#utility.yul\":3349:3353   */\n      dup3\n        /* \"#utility.yul\":3345:3359   */\n      sub\n        /* \"#utility.yul\":3338:3342   */\n      0x40\n        /* \"#utility.yul\":3333:3336   */\n      dup7\n        /* \"#utility.yul\":3329:3343   */\n      add\n        /* \"#utility.yul\":3322:3360   */\n      mstore\n        /* \"#utility.yul\":3381:3454   */\n      tag_165\n        /* \"#utility.yul\":3449:3453   */\n      dup3\n        /* \"#utility.yul\":3435:3447   */\n      dup3\n        /* \"#utility.yul\":3381:3454   */\n      tag_98\n      jump\t// in\n    tag_165:\n        /* \"#utility.yul\":3373:3454   */\n      swap2\n      pop\n        /* \"#utility.yul\":3229:3465   */\n      pop\n        /* \"#utility.yul\":3556:3560   */\n      0x60\n        /* \"#utility.yul\":3549:3554   */\n      dup4\n        /* \"#utility.yul\":3545:3561   */\n      add\n        /* \"#utility.yul\":3539:3562   */\n      mload\n        /* \"#utility.yul\":3575:3638   */\n      tag_166\n        /* \"#utility.yul\":3632:3636   */\n      0x60\n        /* \"#utility.yul\":3627:3630   */\n      dup7\n        /* \"#utility.yul\":3623:3637   */\n      add\n        /* \"#utility.yul\":3609:3621   */\n      dup3\n        /* \"#utility.yul\":3575:3638   */\n      tag_99\n      jump\t// in\n    tag_166:\n        /* \"#utility.yul\":3475:3648   */\n      pop\n        /* \"#utility.yul\":3665:3669   */\n      dup1\n        /* \"#utility.yul\":3658:3669   */\n      swap2\n      pop\n        /* \"#utility.yul\":2692:3675   */\n      pop\n        /* \"#utility.yul\":2590:3675   */\n      swap3\n      swap2\n      pop\n      pop\n      jump\t// out\n        /* \"#utility.yul\":3681:3913   */\n    tag_101:\n        /* \"#utility.yul\":3788:3798   */\n      0x00\n        /* \"#utility.yul\":3823:3907   */\n      tag_168\n        /* \"#utility.yul\":3903:3906   */\n      dup4\n        /* \"#utility.yul\":3895:3901   */\n      dup4\n        /* \"#utility.yul\":3823:3907   */\n      tag_100\n      jump\t// in\n    tag_168:\n        /* \"#utility.yul\":3809:3907   */\n      swap1\n      pop\n        /* \"#utility.yul\":3681:3913   */\n      swap3\n      swap2\n      pop\n      pop\n      jump\t// out\n        /* \"#utility.yul\":3919:4051   */\n    tag_102:\n        /* \"#utility.yul\":4008:4012   */\n      0x00\n        /* \"#utility.yul\":4040:4044   */\n      0x20\n        /* \"#utility.yul\":4035:4038   */\n      dup3\n        /* \"#utility.yul\":4031:4045   */\n      add\n        /* \"#utility.yul\":4023:4045   */\n      swap1\n      pop\n        /* \"#utility.yul\":3919:4051   */\n      swap2\n      swap1\n      pop\n      jump\t// out\n        /* \"#utility.yul\":4121:5184   */\n    tag_103:\n        /* \"#utility.yul\":4278:4281   */\n      0x00\n        /* \"#utility.yul\":4307:4380   */\n      tag_171\n        /* \"#utility.yul\":4374:4379   */\n      dup3\n        /* \"#utility.yul\":4307:4380   */\n      tag_91\n      jump\t// in\n    tag_171:\n        /* \"#utility.yul\":4396:4501   */\n      tag_172\n        /* \"#utility.yul\":4494:4500   */\n      dup2\n        /* \"#utility.yul\":4489:4492   */\n      dup6\n        /* \"#utility.yul\":4396:4501   */\n      tag_92\n      jump\t// in\n    tag_172:\n        /* \"#utility.yul\":4389:4501   */\n      swap4\n      pop\n        /* \"#utility.yul\":4527:4530   */\n      dup4\n        /* \"#utility.yul\":4572:4576   */\n      0x20\n        /* \"#utility.yul\":4564:4570   */\n      dup3\n        /* \"#utility.yul\":4560:4577   */\n      mul\n        /* \"#utility.yul\":4555:4558   */\n      dup6\n        /* \"#utility.yul\":4551:4578   */\n      add\n        /* \"#utility.yul\":4602:4677   */\n      tag_173\n        /* \"#utility.yul\":4671:4676   */\n      dup6\n        /* \"#utility.yul\":4602:4677   */\n      tag_93\n      jump\t// in\n    tag_173:\n        /* \"#utility.yul\":4700:4707   */\n      dup1\n        /* \"#utility.yul\":4731:4732   */\n      0x00\n        /* \"#utility.yul\":4716:5139   */\n    tag_174:\n        /* \"#utility.yul\":4741:4747   */\n      dup6\n        /* \"#utility.yul\":4738:4739   */\n      dup2\n        /* \"#utility.yul\":4735:4748   */\n      lt\n        /* \"#utility.yul\":4716:5139   */\n      iszero\n      tag_176\n      jumpi\n        /* \"#utility.yul\":4812:4821   */\n      dup5\n        /* \"#utility.yul\":4806:4810   */\n      dup5\n        /* \"#utility.yul\":4802:4822   */\n      sub\n        /* \"#utility.yul\":4797:4800   */\n      dup10\n        /* \"#utility.yul\":4790:4823   */\n      mstore\n        /* \"#utility.yul\":4863:4869   */\n      dup2\n        /* \"#utility.yul\":4857:4870   */\n      mload\n        /* \"#utility.yul\":4891:4993   */\n      tag_177\n        /* \"#utility.yul\":4988:4992   */\n      dup6\n        /* \"#utility.yul\":4973:4986   */\n      dup3\n        /* \"#utility.yul\":4891:4993   */\n      tag_101\n      jump\t// in\n    tag_177:\n        /* \"#utility.yul\":4883:4993   */\n      swap5\n      pop\n        /* \"#utility.yul\":5016:5095   */\n      tag_178\n        /* \"#utility.yul\":5088:5094   */\n      dup4\n        /* \"#utility.yul\":5016:5095   */\n      tag_102\n      jump\t// in\n    tag_178:\n        /* \"#utility.yul\":5006:5095   */\n      swap3\n      pop\n        /* \"#utility.yul\":5124:5128   */\n      0x20\n        /* \"#utility.yul\":5119:5122   */\n      dup11\n        /* \"#utility.yul\":5115:5129   */\n      add\n        /* \"#utility.yul\":5108:5129   */\n      swap10\n      pop\n        /* \"#utility.yul\":4776:5139   */\n      pop\n        /* \"#utility.yul\":4763:4764   */\n      0x01\n        /* \"#utility.yul\":4760:4761   */\n      dup2\n        /* \"#utility.yul\":4756:4765   */\n      add\n        /* \"#utility.yul\":4751:4765   */\n      swap1\n      pop\n        /* \"#utility.yul\":4716:5139   */\n      jump(tag_174)\n    tag_176:\n        /* \"#utility.yul\":4720:4734   */\n      pop\n        /* \"#utility.yul\":5155:5159   */\n      dup3\n        /* \"#utility.yul\":5148:5159   */\n      swap8\n      pop\n        /* \"#utility.yul\":5175:5178   */\n      dup8\n        /* \"#utility.yul\":5168:5178   */\n      swap6\n      pop\n        /* \"#utility.yul\":4283:5184   */\n      pop\n      pop\n      pop\n      pop\n      pop\n        /* \"#utility.yul\":4121:5184   */\n      swap3\n      swap2\n      pop\n      pop\n      jump\t// out\n        /* \"#utility.yul\":5190:5639   */\n    tag_18:\n        /* \"#utility.yul\":5371:5375   */\n      0x00\n        /* \"#utility.yul\":5409:5411   */\n      0x20\n        /* \"#utility.yul\":5398:5407   */\n      dup3\n        /* \"#utility.yul\":5394:5412   */\n      add\n        /* \"#utility.yul\":5386:5412   */\n      swap1\n      pop\n        /* \"#utility.yul\":5458:5467   */\n      dup2\n        /* \"#utility.yul\":5452:5456   */\n      dup2\n        /* \"#utility.yul\":5448:5468   */\n      sub\n        /* \"#utility.yul\":5444:5445   */\n      0x00\n        /* \"#utility.yul\":5433:5442   */\n      dup4\n        /* \"#utility.yul\":5429:5446   */\n      add\n        /* \"#utility.yul\":5422:5469   */\n      mstore\n        /* \"#utility.yul\":5486:5632   */\n      tag_180\n        /* \"#utility.yul\":5627:5631   */\n      dup2\n        /* \"#utility.yul\":5618:5624   */\n      dup5\n        /* \"#utility.yul\":5486:5632   */\n      tag_103\n      jump\t// in\n    tag_180:\n        /* \"#utility.yul\":5478:5632   */\n      swap1\n      pop\n        /* \"#utility.yul\":5190:5639   */\n      swap3\n      swap2\n      pop\n      pop\n      jump\t// out\n        /* \"#utility.yul\":5645:5771   */\n    tag_104:\n        /* \"#utility.yul\":5682:5689   */\n      0x00\n        /* \"#utility.yul\":5722:5764   */\n      0xffffffffffffffffffffffffffffffffffffffff\n        /* \"#utility.yul\":5715:5720   */\n      dup3\n        /* \"#utility.yul\":5711:5765   */\n      and\n        /* \"#utility.yul\":5700:5765   */\n      swap1\n      pop\n        /* \"#utility.yul\":5645:5771   */\n      swap2\n      swap1\n      pop\n      jump\t// out\n        /* \"#utility.yul\":5777:5873   */\n    tag_105:\n        /* \"#utility.yul\":5814:5821   */\n      0x00\n        /* \"#utility.yul\":5843:5867   */\n      tag_183\n        /* \"#utility.yul\":5861:5866   */\n      dup3\n        /* \"#utility.yul\":5843:5867   */\n      tag_104\n      jump\t// in\n    tag_183:\n        /* \"#utility.yul\":5832:5867   */\n      swap1\n      pop\n        /* \"#utility.yul\":5777:5873   */\n      swap2\n      swap1\n      pop\n      jump\t// out\n        /* \"#utility.yul\":5879:6001   */\n    tag_106:\n        /* \"#utility.yul\":5952:5976   */\n      tag_185\n        /* \"#utility.yul\":5970:5975   */\n      dup2\n        /* \"#utility.yul\":5952:5976   */\n      tag_105\n      jump\t// in\n    tag_185:\n        /* \"#utility.yul\":5945:5950   */\n      dup2\n        /* \"#utility.yul\":5942:5977   */\n      eq\n        /* \"#utility.yul\":5932:5995   */\n      tag_186\n      jumpi\n        /* \"#utility.yul\":5991:5992   */\n      0x00\n        /* \"#utility.yul\":5988:5989   */\n      dup1\n        /* \"#utility.yul\":5981:5993   */\n      revert\n        /* \"#utility.yul\":5932:5995   */\n    tag_186:\n        /* \"#utility.yul\":5879:6001   */\n      pop\n      jump\t// out\n        /* \"#utility.yul\":6007:6146   */\n    tag_107:\n        /* \"#utility.yul\":6053:6058   */\n      0x00\n        /* \"#utility.yul\":6091:6097   */\n      dup2\n        /* \"#utility.yul\":6078:6098   */\n      calldataload\n        /* \"#utility.yul\":6069:6098   */\n      swap1\n      pop\n        /* \"#utility.yul\":6107:6140   */\n      tag_188\n        /* \"#utility.yul\":6134:6139   */\n      dup2\n        /* \"#utility.yul\":6107:6140   */\n      tag_106\n      jump\t// in\n    tag_188:\n        /* \"#utility.yul\":6007:6146   */\n      swap3\n      swap2\n      pop\n      pop\n      jump\t// out\n        /* \"#utility.yul\":6152:6481   */\n    tag_21:\n        /* \"#utility.yul\":6211:6217   */\n      0x00\n        /* \"#utility.yul\":6260:6262   */\n      0x20\n        /* \"#utility.yul\":6248:6257   */\n      dup3\n        /* \"#utility.yul\":6239:6246   */\n      dup5\n        /* \"#utility.yul\":6235:6258   */\n      sub\n        /* \"#utility.yul\":6231:6263   */\n      slt\n        /* \"#utility.yul\":6228:6347   */\n      iszero\n      tag_190\n      jumpi\n        /* \"#utility.yul\":6266:6345   */\n      tag_191\n      tag_86\n      jump\t// in\n    tag_191:\n        /* \"#utility.yul\":6228:6347   */\n    tag_190:\n        /* \"#utility.yul\":6386:6387   */\n      0x00\n        /* \"#utility.yul\":6411:6464   */\n      tag_192\n        /* \"#utility.yul\":6456:6463   */\n      dup5\n        /* \"#utility.yul\":6447:6453   */\n      dup3\n        /* \"#utility.yul\":6436:6445   */\n      dup6\n        /* \"#utility.yul\":6432:6454   */\n      add\n        /* \"#utility.yul\":6411:6464   */\n      tag_107\n      jump\t// in\n    tag_192:\n        /* \"#utility.yul\":6401:6464   */\n      swap2\n      pop\n        /* \"#utility.yul\":6357:6474   */\n      pop\n        /* \"#utility.yul\":6152:6481   */\n      swap3\n      swap2\n      pop\n      pop\n      jump\t// out\n        /* \"#utility.yul\":6487:6656   */\n    tag_108:\n        /* \"#utility.yul\":6571:6582   */\n      0x00\n        /* \"#utility.yul\":6605:6611   */\n      dup3\n        /* \"#utility.yul\":6600:6603   */\n      dup3\n        /* \"#utility.yul\":6593:6612   */\n      mstore\n        /* \"#utility.yul\":6645:6649   */\n      0x20\n        /* \"#utility.yul\":6640:6643   */\n      dup3\n        /* \"#utility.yul\":6636:6650   */\n      add\n        /* \"#utility.yul\":6621:6650   */\n      swap1\n      pop\n        /* \"#utility.yul\":6487:6656   */\n      swap3\n      swap2\n      pop\n      pop\n      jump\t// out\n        /* \"#utility.yul\":6662:7039   */\n    tag_109:\n        /* \"#utility.yul\":6750:6753   */\n      0x00\n        /* \"#utility.yul\":6778:6817   */\n      tag_195\n        /* \"#utility.yul\":6811:6816   */\n      dup3\n        /* \"#utility.yul\":6778:6817   */\n      tag_94\n      jump\t// in\n    tag_195:\n        /* \"#utility.yul\":6833:6904   */\n      tag_196\n        /* \"#utility.yul\":6897:6903   */\n      dup2\n        /* \"#utility.yul\":6892:6895   */\n      dup6\n        /* \"#utility.yul\":6833:6904   */\n      tag_108\n      jump\t// in\n    tag_196:\n        /* \"#utility.yul\":6826:6904   */\n      swap4\n      pop\n        /* \"#utility.yul\":6913:6978   */\n      tag_197\n        /* \"#utility.yul\":6971:6977   */\n      dup2\n        /* \"#utility.yul\":6966:6969   */\n      dup6\n        /* \"#utility.yul\":6959:6963   */\n      0x20\n        /* \"#utility.yul\":6952:6957   */\n      dup7\n        /* \"#utility.yul\":6948:6964   */\n      add\n        /* \"#utility.yul\":6913:6978   */\n      tag_96\n      jump\t// in\n    tag_197:\n        /* \"#utility.yul\":7003:7032   */\n      tag_198\n        /* \"#utility.yul\":7025:7031   */\n      dup2\n        /* \"#utility.yul\":7003:7032   */\n      tag_97\n      jump\t// in\n    tag_198:\n        /* \"#utility.yul\":6998:7001   */\n      dup5\n        /* \"#utility.yul\":6994:7033   */\n      add\n        /* \"#utility.yul\":6987:7033   */\n      swap2\n      pop\n        /* \"#utility.yul\":6754:7039   */\n      pop\n        /* \"#utility.yul\":6662:7039   */\n      swap3\n      swap2\n      pop\n      pop\n      jump\t// out\n        /* \"#utility.yul\":7045:7163   */\n    tag_110:\n        /* \"#utility.yul\":7132:7156   */\n      tag_200\n        /* \"#utility.yul\":7150:7155   */\n      dup2\n        /* \"#utility.yul\":7132:7156   */\n      tag_88\n      jump\t// in\n    tag_200:\n        /* \"#utility.yul\":7127:7130   */\n      dup3\n        /* \"#utility.yul\":7120:7157   */\n      mstore\n        /* \"#utility.yul\":7045:7163   */\n      pop\n      pop\n      jump\t// out\n        /* \"#utility.yul\":7169:7995   */\n    tag_24:\n        /* \"#utility.yul\":7406:7410   */\n      0x00\n        /* \"#utility.yul\":7444:7447   */\n      0x80\n        /* \"#utility.yul\":7433:7442   */\n      dup3\n        /* \"#utility.yul\":7429:7448   */\n      add\n        /* \"#utility.yul\":7421:7448   */\n      swap1\n      pop\n        /* \"#utility.yul\":7494:7503   */\n      dup2\n        /* \"#utility.yul\":7488:7492   */\n      dup2\n        /* \"#utility.yul\":7484:7504   */\n      sub\n        /* \"#utility.yul\":7480:7481   */\n      0x00\n        /* \"#utility.yul\":7469:7478   */\n      dup4\n        /* \"#utility.yul\":7465:7482   */\n      add\n        /* \"#utility.yul\":7458:7505   */\n      mstore\n        /* \"#utility.yul\":7522:7600   */\n      tag_202\n        /* \"#utility.yul\":7595:7599   */\n      dup2\n        /* \"#utility.yul\":7586:7592   */\n      dup8\n        /* \"#utility.yul\":7522:7600   */\n      tag_109\n      jump\t// in\n    tag_202:\n        /* \"#utility.yul\":7514:7600   */\n      swap1\n      pop\n        /* \"#utility.yul\":7647:7656   */\n      dup2\n        /* \"#utility.yul\":7641:7645   */\n      dup2\n        /* \"#utility.yul\":7637:7657   */\n      sub\n        /* \"#utility.yul\":7632:7634   */\n      0x20\n        /* \"#utility.yul\":7621:7630   */\n      dup4\n        /* \"#utility.yul\":7617:7635   */\n      add\n        /* \"#utility.yul\":7610:7658   */\n      mstore\n        /* \"#utility.yul\":7675:7753   */\n      tag_203\n        /* \"#utility.yul\":7748:7752   */\n      dup2\n        /* \"#utility.yul\":7739:7745   */\n      dup7\n        /* \"#utility.yul\":7675:7753   */\n      tag_109\n      jump\t// in\n    tag_203:\n        /* \"#utility.yul\":7667:7753   */\n      swap1\n      pop\n        /* \"#utility.yul\":7800:7809   */\n      dup2\n        /* \"#utility.yul\":7794:7798   */\n      dup2\n        /* \"#utility.yul\":7790:7810   */\n      sub\n        /* \"#utility.yul\":7785:7787   */\n      0x40\n        /* \"#utility.yul\":7774:7783   */\n      dup4\n        /* \"#utility.yul\":7770:7788   */\n      add\n        /* \"#utility.yul\":7763:7811   */\n      mstore\n        /* \"#utility.yul\":7828:7906   */\n      tag_204\n        /* \"#utility.yul\":7901:7905   */\n      dup2\n        /* \"#utility.yul\":7892:7898   */\n      dup6\n        /* \"#utility.yul\":7828:7906   */\n      tag_109\n      jump\t// in\n    tag_204:\n        /* \"#utility.yul\":7820:7906   */\n      swap1\n      pop\n        /* \"#utility.yul\":7916:7988   */\n      tag_205\n        /* \"#utility.yul\":7984:7986   */\n      0x60\n        /* \"#utility.yul\":7973:7982   */\n      dup4\n        /* \"#utility.yul\":7969:7987   */\n      add\n        /* \"#utility.yul\":7960:7966   */\n      dup5\n        /* \"#utility.yul\":7916:7988   */\n      tag_110\n      jump\t// in\n    tag_205:\n        /* \"#utility.yul\":7169:7995   */\n      swap6\n      swap5\n      pop\n      pop\n      pop\n      pop\n      pop\n      jump\t// out\n        /* \"#utility.yul\":8001:8118   */\n    tag_111:\n        /* \"#utility.yul\":8110:8111   */\n      0x00\n        /* \"#utility.yul\":8107:8108   */\n      dup1\n        /* \"#utility.yul\":8100:8112   */\n      revert\n        /* \"#utility.yul\":8124:8241   */\n    tag_112:\n        /* \"#utility.yul\":8233:8234   */\n      0x00\n        /* \"#utility.yul\":8230:8231   */\n      dup1\n        /* \"#utility.yul\":8223:8235   */\n      revert\n        /* \"#utility.yul\":8247:8364   */\n    tag_113:\n        /* \"#utility.yul\":8356:8357   */\n      0x00\n        /* \"#utility.yul\":8353:8354   */\n      dup1\n        /* \"#utility.yul\":8346:8358   */\n      revert\n        /* \"#utility.yul\":8384:8937   */\n    tag_114:\n        /* \"#utility.yul\":8442:8450   */\n      0x00\n        /* \"#utility.yul\":8452:8458   */\n      dup1\n        /* \"#utility.yul\":8502:8505   */\n      dup4\n        /* \"#utility.yul\":8495:8499   */\n      0x1f\n        /* \"#utility.yul\":8487:8493   */\n      dup5\n        /* \"#utility.yul\":8483:8500   */\n      add\n        /* \"#utility.yul\":8479:8506   */\n      slt\n        /* \"#utility.yul\":8469:8591   */\n      tag_210\n      jumpi\n        /* \"#utility.yul\":8510:8589   */\n      tag_211\n      tag_111\n      jump\t// in\n    tag_211:\n        /* \"#utility.yul\":8469:8591   */\n    tag_210:\n        /* \"#utility.yul\":8623:8629   */\n      dup3\n        /* \"#utility.yul\":8610:8630   */\n      calldataload\n        /* \"#utility.yul\":8600:8630   */\n      swap1\n      pop\n        /* \"#utility.yul\":8653:8671   */\n      0xffffffffffffffff\n        /* \"#utility.yul\":8645:8651   */\n      dup2\n        /* \"#utility.yul\":8642:8672   */\n      gt\n        /* \"#utility.yul\":8639:8756   */\n      iszero\n      tag_212\n      jumpi\n        /* \"#utility.yul\":8675:8754   */\n      tag_213\n      tag_112\n      jump\t// in\n    tag_213:\n        /* \"#utility.yul\":8639:8756   */\n    tag_212:\n        /* \"#utility.yul\":8789:8793   */\n      0x20\n        /* \"#utility.yul\":8781:8787   */\n      dup4\n        /* \"#utility.yul\":8777:8794   */\n      add\n        /* \"#utility.yul\":8765:8794   */\n      swap2\n      pop\n        /* \"#utility.yul\":8843:8846   */\n      dup4\n        /* \"#utility.yul\":8835:8839   */\n      0x01\n        /* \"#utility.yul\":8827:8833   */\n      dup3\n        /* \"#utility.yul\":8823:8840   */\n      mul\n        /* \"#utility.yul\":8813:8821   */\n      dup4\n        /* \"#utility.yul\":8809:8841   */\n      add\n        /* \"#utility.yul\":8806:8847   */\n      gt\n        /* \"#utility.yul\":8803:8931   */\n      iszero\n      tag_214\n      jumpi\n        /* \"#utility.yul\":8850:8929   */\n      tag_215\n      tag_113\n      jump\t// in\n    tag_215:\n        /* \"#utility.yul\":8803:8931   */\n    tag_214:\n        /* \"#utility.yul\":8384:8937   */\n      swap3\n      pop\n      swap3\n      swap1\n      pop\n      jump\t// out\n        /* \"#utility.yul\":8943:10308   */\n    tag_36:\n        /* \"#utility.yul\":9065:9071   */\n      0x00\n        /* \"#utility.yul\":9073:9079   */\n      dup1\n        /* \"#utility.yul\":9081:9087   */\n      0x00\n        /* \"#utility.yul\":9089:9095   */\n      dup1\n        /* \"#utility.yul\":9097:9103   */\n      0x00\n        /* \"#utility.yul\":9105:9111   */\n      dup1\n        /* \"#utility.yul\":9113:9119   */\n      0x00\n        /* \"#utility.yul\":9162:9165   */\n      0x80\n        /* \"#utility.yul\":9150:9159   */\n      dup9\n        /* \"#utility.yul\":9141:9148   */\n      dup11\n        /* \"#utility.yul\":9137:9160   */\n      sub\n        /* \"#utility.yul\":9133:9166   */\n      slt\n        /* \"#utility.yul\":9130:9250   */\n      iszero\n      tag_217\n      jumpi\n        /* \"#utility.yul\":9169:9248   */\n      tag_218\n      tag_86\n      jump\t// in\n    tag_218:\n        /* \"#utility.yul\":9130:9250   */\n    tag_217:\n        /* \"#utility.yul\":9317:9318   */\n      0x00\n        /* \"#utility.yul\":9306:9315   */\n      dup9\n        /* \"#utility.yul\":9302:9319   */\n      add\n        /* \"#utility.yul\":9289:9320   */\n      calldataload\n        /* \"#utility.yul\":9347:9365   */\n      0xffffffffffffffff\n        /* \"#utility.yul\":9339:9345   */\n      dup2\n        /* \"#utility.yul\":9336:9366   */\n      gt\n        /* \"#utility.yul\":9333:9450   */\n      iszero\n      tag_219\n      jumpi\n        /* \"#utility.yul\":9369:9448   */\n      tag_220\n      tag_87\n      jump\t// in\n    tag_220:\n        /* \"#utility.yul\":9333:9450   */\n    tag_219:\n        /* \"#utility.yul\":9482:9547   */\n      tag_221\n        /* \"#utility.yul\":9539:9546   */\n      dup11\n        /* \"#utility.yul\":9530:9536   */\n      dup3\n        /* \"#utility.yul\":9519:9528   */\n      dup12\n        /* \"#utility.yul\":9515:9537   */\n      add\n        /* \"#utility.yul\":9482:9547   */\n      tag_114\n      jump\t// in\n    tag_221:\n        /* \"#utility.yul\":9464:9547   */\n      swap8\n      pop\n      swap8\n      pop\n        /* \"#utility.yul\":9260:9557   */\n      pop\n        /* \"#utility.yul\":9624:9626   */\n      0x20\n        /* \"#utility.yul\":9613:9622   */\n      dup9\n        /* \"#utility.yul\":9609:9627   */\n      add\n        /* \"#utility.yul\":9596:9628   */\n      calldataload\n        /* \"#utility.yul\":9655:9673   */\n      0xffffffffffffffff\n        /* \"#utility.yul\":9647:9653   */\n      dup2\n        /* \"#utility.yul\":9644:9674   */\n      gt\n        /* \"#utility.yul\":9641:9758   */\n      iszero\n      tag_222\n      jumpi\n        /* \"#utility.yul\":9677:9756   */\n      tag_223\n      tag_87\n      jump\t// in\n    tag_223:\n        /* \"#utility.yul\":9641:9758   */\n    tag_222:\n        /* \"#utility.yul\":9790:9855   */\n      tag_224\n        /* \"#utility.yul\":9847:9854   */\n      dup11\n        /* \"#utility.yul\":9838:9844   */\n      dup3\n        /* \"#utility.yul\":9827:9836   */\n      dup12\n        /* \"#utility.yul\":9823:9845   */\n      add\n        /* \"#utility.yul\":9790:9855   */\n      tag_114\n      jump\t// in\n    tag_224:\n        /* \"#utility.yul\":9772:9855   */\n      swap6\n      pop\n      swap6\n      pop\n        /* \"#utility.yul\":9567:9865   */\n      pop\n        /* \"#utility.yul\":9932:9934   */\n      0x40\n        /* \"#utility.yul\":9921:9930   */\n      dup9\n        /* \"#utility.yul\":9917:9935   */\n      add\n        /* \"#utility.yul\":9904:9936   */\n      calldataload\n        /* \"#utility.yul\":9963:9981   */\n      0xffffffffffffffff\n        /* \"#utility.yul\":9955:9961   */\n      dup2\n        /* \"#utility.yul\":9952:9982   */\n      gt\n        /* \"#utility.yul\":9949:10066   */\n      iszero\n      tag_225\n      jumpi\n        /* \"#utility.yul\":9985:10064   */\n      tag_226\n      tag_87\n      jump\t// in\n    tag_226:\n        /* \"#utility.yul\":9949:10066   */\n    tag_225:\n        /* \"#utility.yul\":10098:10163   */\n      tag_227\n        /* \"#utility.yul\":10155:10162   */\n      dup11\n        /* \"#utility.yul\":10146:10152   */\n      dup3\n        /* \"#utility.yul\":10135:10144   */\n      dup12\n        /* \"#utility.yul\":10131:10153   */\n      add\n        /* \"#utility.yul\":10098:10163   */\n      tag_114\n      jump\t// in\n    tag_227:\n        /* \"#utility.yul\":10080:10163   */\n      swap4\n      pop\n      swap4\n      pop\n        /* \"#utility.yul\":9875:10173   */\n      pop\n        /* \"#utility.yul\":10212:10214   */\n      0x60\n        /* \"#utility.yul\":10238:10291   */\n      tag_228\n        /* \"#utility.yul\":10283:10290   */\n      dup11\n        /* \"#utility.yul\":10274:10280   */\n      dup3\n        /* \"#utility.yul\":10263:10272   */\n      dup12\n        /* \"#utility.yul\":10259:10281   */\n      add\n        /* \"#utility.yul\":10238:10291   */\n      tag_90\n      jump\t// in\n    tag_228:\n        /* \"#utility.yul\":10228:10291   */\n      swap2\n      pop\n        /* \"#utility.yul\":10183:10301   */\n      pop\n        /* \"#utility.yul\":8943:10308   */\n      swap3\n      swap6\n      swap9\n      swap2\n      swap5\n      swap8\n      pop\n      swap3\n      swap6\n      pop\n      jump\t// out\n        /* \"#utility.yul\":10314:10494   */\n    tag_115:\n        /* \"#utility.yul\":10362:10439   */\n      0x4e487b7100000000000000000000000000000000000000000000000000000000\n        /* \"#utility.yul\":10359:10360   */\n      0x00\n        /* \"#utility.yul\":10352:10440   */\n      mstore\n        /* \"#utility.yul\":10459:10463   */\n      0x22\n        /* \"#utility.yul\":10456:10457   */\n      0x04\n        /* \"#utility.yul\":10449:10464   */\n      mstore\n        /* \"#utility.yul\":10483:10487   */\n      0x24\n        /* \"#utility.yul\":10480:10481   */\n      0x00\n        /* \"#utility.yul\":10473:10488   */\n      revert\n        /* \"#utility.yul\":10500:10820   */\n    tag_41:\n        /* \"#utility.yul\":10544:10550   */\n      0x00\n        /* \"#utility.yul\":10581:10582   */\n      0x02\n        /* \"#utility.yul\":10575:10579   */\n      dup3\n        /* \"#utility.yul\":10571:10583   */\n      div\n        /* \"#utility.yul\":10561:10583   */\n      swap1\n      pop\n        /* \"#utility.yul\":10628:10629   */\n      0x01\n        /* \"#utility.yul\":10622:10626   */\n      dup3\n        /* \"#utility.yul\":10618:10630   */\n      and\n        /* \"#utility.yul\":10649:10667   */\n      dup1\n        /* \"#utility.yul\":10639:10720   */\n      tag_231\n      jumpi\n        /* \"#utility.yul\":10705:10709   */\n      0x7f\n        /* \"#utility.yul\":10697:10703   */\n      dup3\n        /* \"#utility.yul\":10693:10710   */\n      and\n        /* \"#utility.yul\":10683:10710   */\n      swap2\n      pop\n        /* \"#utility.yul\":10639:10720   */\n    tag_231:\n        /* \"#utility.yul\":10767:10769   */\n      0x20\n        /* \"#utility.yul\":10759:10765   */\n      dup3\n        /* \"#utility.yul\":10756:10770   */\n      lt\n        /* \"#utility.yul\":10736:10754   */\n      dup2\n        /* \"#utility.yul\":10733:10771   */\n      sub\n        /* \"#utility.yul\":10730:10814   */\n      tag_232\n      jumpi\n        /* \"#utility.yul\":10786:10804   */\n      tag_233\n      tag_115\n      jump\t// in\n    tag_233:\n        /* \"#utility.yul\":10730:10814   */\n    tag_232:\n        /* \"#utility.yul\":10551:10820   */\n      pop\n        /* \"#utility.yul\":10500:10820   */\n      swap2\n      swap1\n      pop\n      jump\t// out\n        /* \"#utility.yul\":10826:10923   */\n    tag_116:\n        /* \"#utility.yul\":10885:10891   */\n      0x00\n        /* \"#utility.yul\":10913:10916   */\n      dup3\n        /* \"#utility.yul\":10903:10916   */\n      swap1\n      pop\n        /* \"#utility.yul\":10826:10923   */\n      swap3\n      swap2\n      pop\n      pop\n      jump\t// out\n        /* \"#utility.yul\":10929:11109   */\n    tag_117:\n        /* \"#utility.yul\":10977:11054   */\n      0x4e487b7100000000000000000000000000000000000000000000000000000000\n        /* \"#utility.yul\":10974:10975   */\n      0x00\n        /* \"#utility.yul\":10967:11055   */\n      mstore\n        /* \"#utility.yul\":11074:11078   */\n      0x41\n        /* \"#utility.yul\":11071:11072   */\n      0x04\n        /* \"#utility.yul\":11064:11079   */\n      mstore\n        /* \"#utility.yul\":11098:11102   */\n      0x24\n        /* \"#utility.yul\":11095:11096   */\n      0x00\n        /* \"#utility.yul\":11088:11103   */\n      revert\n        /* \"#utility.yul\":11115:11256   */\n    tag_118:\n        /* \"#utility.yul\":11164:11168   */\n      0x00\n        /* \"#utility.yul\":11187:11190   */\n      dup2\n        /* \"#utility.yul\":11179:11190   */\n      swap1\n      pop\n        /* \"#utility.yul\":11210:11213   */\n      dup2\n        /* \"#utility.yul\":11207:11208   */\n      0x00\n        /* \"#utility.yul\":11200:11214   */\n      mstore\n        /* \"#utility.yul\":11244:11248   */\n      0x20\n        /* \"#utility.yul\":11241:11242   */\n      0x00\n        /* \"#utility.yul\":11231:11249   */\n      keccak256\n        /* \"#utility.yul\":11223:11249   */\n      swap1\n      pop\n        /* \"#utility.yul\":11115:11256   */\n      swap2\n      swap1\n      pop\n      jump\t// out\n        /* \"#utility.yul\":11262:11355   */\n    tag_119:\n        /* \"#utility.yul\":11299:11305   */\n      0x00\n        /* \"#utility.yul\":11346:11348   */\n      0x20\n        /* \"#utility.yul\":11341:11343   */\n      0x1f\n        /* \"#utility.yul\":11334:11339   */\n      dup4\n        /* \"#utility.yul\":11330:11344   */\n      add\n        /* \"#utility.yul\":11326:11349   */\n      div\n        /* \"#utility.yul\":11316:11349   */\n      swap1\n      pop\n        /* \"#utility.yul\":11262:11355   */\n      swap2\n      swap1\n      pop\n      jump\t// out\n        /* \"#utility.yul\":11361:11468   */\n    tag_120:\n        /* \"#utility.yul\":11405:11413   */\n      0x00\n        /* \"#utility.yul\":11455:11460   */\n      dup3\n        /* \"#utility.yul\":11449:11453   */\n      dup3\n        /* \"#utility.yul\":11445:11461   */\n      shl\n        /* \"#utility.yul\":11424:11461   */\n      swap1\n      pop\n        /* \"#utility.yul\":11361:11468   */\n      swap3\n      swap2\n      pop\n      pop\n      jump\t// out\n        /* \"#utility.yul\":11474:11867   */\n    tag_121:\n        /* \"#utility.yul\":11543:11549   */\n      0x00\n        /* \"#utility.yul\":11593:11594   */\n      0x08\n        /* \"#utility.yul\":11581:11591   */\n      dup4\n        /* \"#utility.yul\":11577:11595   */\n      mul\n        /* \"#utility.yul\":11616:11713   */\n      tag_240\n        /* \"#utility.yul\":11646:11712   */\n      0xffffffffffffffffffffffffffffffffffffffffffffffffffffffffffffffff\n        /* \"#utility.yul\":11635:11644   */\n      dup3\n        /* \"#utility.yul\":11616:11713   */\n      tag_120\n      jump\t// in\n    tag_240:\n        /* \"#utility.yul\":11734:11773   */\n      tag_241\n        /* \"#utility.yul\":11764:11772   */\n      dup7\n        /* \"#utility.yul\":11753:11762   */\n      dup4\n        /* \"#utility.yul\":11734:11773   */\n      tag_120\n      jump\t// in\n    tag_241:\n        /* \"#utility.yul\":11722:11773   */\n      swap6\n      pop\n        /* \"#utility.yul\":11806:11810   */\n      dup1\n        /* \"#utility.yul\":11802:11811   */\n      not\n        /* \"#utility.yul\":11795:11800   */\n      dup5\n        /* \"#utility.yul\":11791:11812   */\n      and\n        /* \"#utility.yul\":11782:11812   */\n      swap4\n      pop\n        /* \"#utility.yul\":11855:11859   */\n      dup1\n        /* \"#utility.yul\":11845:11853   */\n      dup7\n        /* \"#utility.yul\":11841:11860   */\n      and\n        /* \"#utility.yul\":11834:11839   */\n      dup5\n        /* \"#utility.yul\":11831:11861   */\n      or\n        /* \"#utility.yul\":11821:11861   */\n      swap3\n      pop\n        /* \"#utility.yul\":11550:11867   */\n      pop\n      pop\n        /* \"#utility.yul\":11474:11867   */\n      swap4\n      swap3\n      pop\n      pop\n      pop\n      jump\t// out\n        /* \"#utility.yul\":11873:11933   */\n    tag_122:\n        /* \"#utility.yul\":11901:11904   */\n      0x00\n        /* \"#utility.yul\":11922:11927   */\n      dup2\n        /* \"#utility.yul\":11915:11927   */\n      swap1\n      pop\n        /* \"#utility.yul\":11873:11933   */\n      swap2\n      swap1\n      pop\n      jump\t// out\n        /* \"#utility.yul\":11939:12081   */\n    tag_123:\n        /* \"#utility.yul\":11989:11998   */\n      0x00\n        /* \"#utility.yul\":12022:12075   */\n      tag_244\n        /* \"#utility.yul\":12040:12074   */\n      tag_245\n        /* \"#utility.yul\":12049:12073   */\n      tag_246\n        /* \"#utility.yul\":12067:12072   */\n      dup5\n        /* \"#utility.yul\":12049:12073   */\n      tag_88\n      jump\t// in\n    tag_246:\n        /* \"#utility.yul\":12040:12074   */\n      tag_122\n      jump\t// in\n    tag_245:\n        /* \"#utility.yul\":12022:12075   */\n      tag_88\n      jump\t// in\n    tag_244:\n        /* \"#utility.yul\":12009:12075   */\n      swap1\n      pop\n        /* \"#utility.yul\":11939:12081   */\n      swap2\n      swap1\n      pop\n      jump\t// out\n        /* \"#utility.yul\":12087:12162   */\n    tag_124:\n        /* \"#utility.yul\":12130:12133   */\n      0x00\n        /* \"#utility.yul\":12151:12156   */\n      dup2\n        /* \"#utility.yul\":12144:12156   */\n      swap1\n      pop\n        /* \"#utility.yul\":12087:12162   */\n      swap2\n      swap1\n      pop\n      jump\t// out\n        /* \"#utility.yul\":12168:12437   */\n    tag_125:\n        /* \"#utility.yul\":12278:12317   */\n      tag_249\n        /* \"#utility.yul\":12309:12316   */\n      dup4\n        /* \"#utility.yul\":12278:12317   */\n      tag_123\n      jump\t// in\n    tag_249:\n        /* \"#utility.yul\":12339:12430   */\n      tag_250\n        /* \"#utility.yul\":12388:12429   */\n      tag_251\n        /* \"#utility.yul\":12412:12428   */\n      dup3\n        /* \"#utility.yul\":12388:12429   */\n      tag_124\n      jump\t// in\n    tag_251:\n        /* \"#utility.yul\":12380:12386   */\n      dup5\n        /* \"#utility.yul\":12373:12377   */\n      dup5\n        /* \"#utility.yul\":12367:12378   */\n      sload\n        /* \"#utility.yul\":12339:12430   */\n      tag_121\n      jump\t// in\n    tag_250:\n        /* \"#utility.yul\":12333:12337   */\n      dup3\n        /* \"#utility.yul\":12326:12431   */\n      sstore\n        /* \"#utility.yul\":12244:12437   */\n      pop\n        /* \"#utility.yul\":12168:12437   */\n      pop\n      pop\n      pop\n      jump\t// out\n        /* \"#utility.yul\":12443:12516   */\n    tag_126:\n        /* \"#utility.yul\":12488:12491   */\n      0x00\n        /* \"#utility.yul\":12443:12516   */\n      swap1\n      jump\t// out\n        /* \"#utility.yul\":12522:12711   */\n    tag_127:\n        /* \"#utility.yul\":12599:12631   */\n      tag_254\n      tag_126\n      jump\t// in\n    tag_254:\n        /* \"#utility.yul\":12640:12705   */\n      tag_255\n        /* \"#utility.yul\":12698:12704   */\n      dup2\n        /* \"#utility.yul\":12690:12696   */\n      dup5\n        /* \"#utility.yul\":12684:12688   */\n      dup5\n        /* \"#utility.yul\":12640:12705   */\n      tag_125\n      jump\t// in\n    tag_255:\n        /* \"#utility.yul\":12575:12711   */\n      pop\n        /* \"#utility.yul\":12522:12711   */\n      pop\n      pop\n      jump\t// out\n        /* \"#utility.yul\":12717:12903   */\n    tag_128:\n        /* \"#utility.yul\":12777:12897   */\n    tag_257:\n        /* \"#utility.yul\":12794:12797   */\n      dup2\n        /* \"#utility.yul\":12787:12792   */\n      dup2\n        /* \"#utility.yul\":12784:12798   */\n      lt\n        /* \"#utility.yul\":12777:12897   */\n      iszero\n      tag_259\n      jumpi\n        /* \"#utility.yul\":12848:12887   */\n      tag_260\n        /* \"#utility.yul\":12885:12886   */\n      0x00\n        /* \"#utility.yul\":12878:12883   */\n      dup3\n        /* \"#utility.yul\":12848:12887   */\n      tag_127\n      jump\t// in\n    tag_260:\n        /* \"#utility.yul\":12821:12822   */\n      0x01\n        /* \"#utility.yul\":12814:12819   */\n      dup2\n        /* \"#utility.yul\":12810:12823   */\n      add\n        /* \"#utility.yul\":12801:12823   */\n      swap1\n      pop\n        /* \"#utility.yul\":12777:12897   */\n      jump(tag_257)\n    tag_259:\n        /* \"#utility.yul\":12717:12903   */\n      pop\n      pop\n      jump\t// out\n        /* \"#utility.yul\":12909:13452   */\n    tag_129:\n        /* \"#utility.yul\":13010:13012   */\n      0x1f\n        /* \"#utility.yul\":13005:13008   */\n      dup3\n        /* \"#utility.yul\":13002:13013   */\n      gt\n        /* \"#utility.yul\":12999:13445   */\n      iszero\n      tag_262\n      jumpi\n        /* \"#utility.yul\":13044:13082   */\n      tag_263\n        /* \"#utility.yul\":13076:13081   */\n      dup2\n        /* \"#utility.yul\":13044:13082   */\n      tag_118\n      jump\t// in\n    tag_263:\n        /* \"#utility.yul\":13128:13157   */\n      tag_264\n        /* \"#utility.yul\":13146:13156   */\n      dup5\n        /* \"#utility.yul\":13128:13157   */\n      tag_119\n      jump\t// in\n    tag_264:\n        /* \"#utility.yul\":13118:13126   */\n      dup2\n        /* \"#utility.yul\":13114:13158   */\n      add\n        /* \"#utility.yul\":13311:13313   */\n      0x20\n        /* \"#utility.yul\":13299:13309   */\n      dup6\n        /* \"#utility.yul\":13296:13314   */\n      lt\n        /* \"#utility.yul\":13293:13342   */\n      iszero\n      tag_265\n      jumpi\n        /* \"#utility.yul\":13332:13340   */\n      dup2\n        /* \"#utility.yul\":13317:13340   */\n      swap1\n      pop\n        /* \"#utility.yul\":13293:13342   */\n    tag_265:\n        /* \"#utility.yul\":13355:13435   */\n      tag_266\n        /* \"#utility.yul\":13411:13433   */\n      tag_267\n        /* \"#utility.yul\":13429:13432   */\n      dup6\n        /* \"#utility.yul\":13411:13433   */\n      tag_119\n      jump\t// in\n    tag_267:\n        /* \"#utility.yul\":13401:13409   */\n      dup4\n        /* \"#utility.yul\":13397:13434   */\n      add\n        /* \"#utility.yul\":13384:13395   */\n      dup3\n        /* \"#utility.yul\":13355:13435   */\n      tag_128\n      jump\t// in\n    tag_266:\n        /* \"#utility.yul\":13014:13445   */\n      pop\n      pop\n        /* \"#utility.yul\":12999:13445   */\n    tag_262:\n        /* \"#utility.yul\":12909:13452   */\n      pop\n      pop\n      pop\n      jump\t// out\n        /* \"#utility.yul\":13458:13575   */\n    tag_130:\n        /* \"#utility.yul\":13512:13520   */\n      0x00\n        /* \"#utility.yul\":13562:13567   */\n      dup3\n        /* \"#utility.yul\":13556:13560   */\n      dup3\n        /* \"#utility.yul\":13552:13568   */\n      shr\n        /* \"#utility.yul\":13531:13568   */\n      swap1\n      pop\n        /* \"#utility.yul\":13458:13575   */\n      swap3\n      swap2\n      pop\n      pop\n      jump\t// out\n        /* \"#utility.yul\":13581:13750   */\n    tag_131:\n        /* \"#utility.yul\":13625:13631   */\n      0x00\n        /* \"#utility.yul\":13658:13709   */\n      tag_270\n        /* \"#utility.yul\":13706:13707   */\n      0x00\n        /* \"#utility.yul\":13702:13708   */\n      not\n        /* \"#utility.yul\":13694:13699   */\n      dup5\n        /* \"#utility.yul\":13691:13692   */\n      0x08\n        /* \"#utility.yul\":13687:13700   */\n      mul\n        /* \"#utility.yul\":13658:13709   */\n      tag_130\n      jump\t// in\n    tag_270:\n        /* \"#utility.yul\":13654:13710   */\n      not\n        /* \"#utility.yul\":13739:13743   */\n      dup1\n        /* \"#utility.yul\":13733:13737   */\n      dup4\n        /* \"#utility.yul\":13729:13744   */\n      and\n        /* \"#utility.yul\":13719:13744   */\n      swap2\n      pop\n        /* \"#utility.yul\":13632:13750   */\n      pop\n        /* \"#utility.yul\":13581:13750   */\n      swap3\n      swap2\n      pop\n      pop\n      jump\t// out\n        /* \"#utility.yul\":13755:14050   */\n    tag_132:\n        /* \"#utility.yul\":13831:13835   */\n      0x00\n        /* \"#utility.yul\":13977:14006   */\n      tag_272\n        /* \"#utility.yul\":14002:14005   */\n      dup4\n        /* \"#utility.yul\":13996:14000   */\n      dup4\n        /* \"#utility.yul\":13977:14006   */\n      tag_131\n      jump\t// in\n    tag_272:\n        /* \"#utility.yul\":13969:14006   */\n      swap2\n      pop\n        /* \"#utility.yul\":14039:14042   */\n      dup3\n        /* \"#utility.yul\":14036:14037   */\n      0x02\n        /* \"#utility.yul\":14032:14043   */\n      mul\n        /* \"#utility.yul\":14026:14030   */\n      dup3\n        /* \"#utility.yul\":14023:14044   */\n      or\n        /* \"#utility.yul\":14015:14044   */\n      swap1\n      pop\n        /* \"#utility.yul\":13755:14050   */\n      swap3\n      swap2\n      pop\n      pop\n      jump\t// out\n        /* \"#utility.yul\":14055:15458   */\n    tag_78:\n        /* \"#utility.yul\":14179:14223   */\n      tag_274\n        /* \"#utility.yul\":14219:14222   */\n      dup4\n        /* \"#utility.yul\":14214:14217   */\n      dup4\n        /* \"#utility.yul\":14179:14223   */\n      tag_116\n      jump\t// in\n    tag_274:\n        /* \"#utility.yul\":14288:14306   */\n      0xffffffffffffffff\n        /* \"#utility.yul\":14280:14286   */\n      dup2\n        /* \"#utility.yul\":14277:14307   */\n      gt\n        /* \"#utility.yul\":14274:14330   */\n      iszero\n      tag_275\n      jumpi\n        /* \"#utility.yul\":14310:14328   */\n      tag_276\n      tag_117\n      jump\t// in\n    tag_276:\n        /* \"#utility.yul\":14274:14330   */\n    tag_275:\n        /* \"#utility.yul\":14354:14392   */\n      tag_277\n        /* \"#utility.yul\":14386:14390   */\n      dup3\n        /* \"#utility.yul\":14380:14391   */\n      sload\n        /* \"#utility.yul\":14354:14392   */\n      tag_41\n      jump\t// in\n    tag_277:\n        /* \"#utility.yul\":14439:14506   */\n      tag_278\n        /* \"#utility.yul\":14499:14505   */\n      dup3\n        /* \"#utility.yul\":14491:14497   */\n      dup3\n        /* \"#utility.yul\":14485:14489   */\n      dup6\n        /* \"#utility.yul\":14439:14506   */\n      tag_129\n      jump\t// in\n    tag_278:\n        /* \"#utility.yul\":14533:14534   */\n      0x00\n        /* \"#utility.yul\":14562:14564   */\n      0x1f\n        /* \"#utility.yul\":14554:14560   */\n      dup4\n        /* \"#utility.yul\":14551:14565   */\n      gt\n        /* \"#utility.yul\":14579:14580   */\n      0x01\n        /* \"#utility.yul\":14574:15206   */\n      dup2\n      eq\n      tag_280\n      jumpi\n        /* \"#utility.yul\":15250:15251   */\n      0x00\n        /* \"#utility.yul\":15267:15273   */\n      dup5\n        /* \"#utility.yul\":15264:15348   */\n      iszero\n      tag_281\n      jumpi\n        /* \"#utility.yul\":15323:15332   */\n      dup3\n        /* \"#utility.yul\":15318:15321   */\n      dup8\n        /* \"#utility.yul\":15314:15333   */\n      add\n        /* \"#utility.yul\":15301:15334   */\n      calldataload\n        /* \"#utility.yul\":15292:15334   */\n      swap1\n      pop\n        /* \"#utility.yul\":15264:15348   */\n    tag_281:\n        /* \"#utility.yul\":15374:15441   */\n      tag_282\n        /* \"#utility.yul\":15434:15440   */\n      dup6\n        /* \"#utility.yul\":15427:15432   */\n      dup3\n        /* \"#utility.yul\":15374:15441   */\n      tag_132\n      jump\t// in\n    tag_282:\n        /* \"#utility.yul\":15368:15372   */\n      dup7\n        /* \"#utility.yul\":15361:15442   */\n      sstore\n        /* \"#utility.yul\":15223:15452   */\n      pop\n        /* \"#utility.yul\":14544:15452   */\n      jump(tag_279)\n        /* \"#utility.yul\":14574:15206   */\n    tag_280:\n        /* \"#utility.yul\":14626:14630   */\n      0x1f\n        /* \"#utility.yul\":14622:14631   */\n      not\n        /* \"#utility.yul\":14614:14620   */\n      dup5\n        /* \"#utility.yul\":14610:14632   */\n      and\n        /* \"#utility.yul\":14660:14697   */\n      tag_283\n        /* \"#utility.yul\":14692:14696   */\n      dup7\n        /* \"#utility.yul\":14660:14697   */\n      tag_118\n      jump\t// in\n    tag_283:\n        /* \"#utility.yul\":14719:14720   */\n      0x00\n        /* \"#utility.yul\":14733:14948   */\n    tag_284:\n        /* \"#utility.yul\":14747:14754   */\n      dup3\n        /* \"#utility.yul\":14744:14745   */\n      dup2\n        /* \"#utility.yul\":14741:14755   */\n      lt\n        /* \"#utility.yul\":14733:14948   */\n      iszero\n      tag_286\n      jumpi\n        /* \"#utility.yul\":14833:14842   */\n      dup5\n        /* \"#utility.yul\":14828:14831   */\n      dup10\n        /* \"#utility.yul\":14824:14843   */\n      add\n        /* \"#utility.yul\":14811:14844   */\n      calldataload\n        /* \"#utility.yul\":14803:14809   */\n      dup3\n        /* \"#utility.yul\":14796:14845   */\n      sstore\n        /* \"#utility.yul\":14884:14885   */\n      0x01\n        /* \"#utility.yul\":14876:14882   */\n      dup3\n        /* \"#utility.yul\":14872:14886   */\n      add\n        /* \"#utility.yul\":14862:14886   */\n      swap2\n      pop\n        /* \"#utility.yul\":14931:14933   */\n      0x20\n        /* \"#utility.yul\":14920:14929   */\n      dup6\n        /* \"#utility.yul\":14916:14934   */\n      add\n        /* \"#utility.yul\":14903:14934   */\n      swap5\n      pop\n        /* \"#utility.yul\":14770:14774   */\n      0x20\n        /* \"#utility.yul\":14767:14768   */\n      dup2\n        /* \"#utility.yul\":14763:14775   */\n      add\n        /* \"#utility.yul\":14758:14775   */\n      swap1\n      pop\n        /* \"#utility.yul\":14733:14948   */\n      jump(tag_284)\n    tag_286:\n        /* \"#utility.yul\":14976:14982   */\n      dup7\n        /* \"#utility.yul\":14967:14974   */\n      dup4\n        /* \"#utility.yul\":14964:14983   */\n      lt\n        /* \"#utility.yul\":14961:15147   */\n      iszero\n      tag_287\n      jumpi\n        /* \"#utility.yul\":15041:15050   */\n      dup5\n        /* \"#utility.yul\":15036:15039   */\n      dup10\n        /* \"#utility.yul\":15032:15051   */\n      add\n        /* \"#utility.yul\":15019:15052   */\n      calldataload\n        /* \"#utility.yul\":15084:15132   */\n      tag_288\n        /* \"#utility.yul\":15126:15130   */\n      0x1f\n        /* \"#utility.yul\":15118:15124   */\n      dup10\n        /* \"#utility.yul\":15114:15131   */\n      and\n        /* \"#utility.yul\":15103:15112   */\n      dup3\n        /* \"#utility.yul\":15084:15132   */\n      tag_131\n      jump\t// in\n    tag_288:\n        /* \"#utility.yul\":15076:15082   */\n      dup4\n        /* \"#utility.yul\":15069:15133   */\n      sstore\n        /* \"#utility.yul\":14984:15147   */\n      pop\n        /* \"#utility.yul\":14961:15147   */\n    tag_287:\n        /* \"#utility.yul\":15193:15194   */\n      0x01\n        /* \"#utility.yul\":15189:15190   */\n      0x02\n        /* \"#utility.yul\":15181:15187   */\n      dup9\n        /* \"#utility.yul\":15177:15191   */\n      mul\n        /* \"#utility.yul\":15173:15195   */\n      add\n        /* \"#utility.yul\":15167:15171   */\n      dup9\n        /* \"#utility.yul\":15160:15196   */\n      sstore\n        /* \"#utility.yul\":14581:15206   */\n      pop\n      pop\n      pop\n        /* \"#utility.yul\":14544:15452   */\n    tag_279:\n      pop\n        /* \"#utility.yul\":14154:15458   */\n      pop\n      pop\n      pop\n        /* \"#utility.yul\":14055:15458   */\n      pop\n      pop\n      pop\n      jump\t// out\n        /* \"#utility.yul\":15464:15613   */\n    tag_133:\n        /* \"#utility.yul\":15513:15519   */\n      0x00\n        /* \"#utility.yul\":15547:15552   */\n      dup2\n        /* \"#utility.yul\":15541:15553   */\n      sload\n        /* \"#utility.yul\":15531:15553   */\n      swap1\n      pop\n        /* \"#utility.yul\":15573:15606   */\n      tag_290\n        /* \"#utility.yul\":15599:15605   */\n      dup2\n        /* \"#utility.yul\":15573:15606   */\n      tag_41\n      jump\t// in\n    tag_290:\n        /* \"#utility.yul\":15563:15606   */\n      swap1\n      pop\n        /* \"#utility.yul\":15464:15613   */\n      swap2\n      swap1\n      pop\n      jump\t// out\n        /* \"#utility.yul\":15619:17070   */\n    tag_82:\n        /* \"#utility.yul\":15730:15733   */\n      dup2\n        /* \"#utility.yul\":15724:15728   */\n      dup2\n        /* \"#utility.yul\":15721:15734   */\n      sub\n        /* \"#utility.yul\":15718:15744   */\n      tag_292\n      jumpi\n        /* \"#utility.yul\":15737:15742   */\n      pop\n      pop\n      jump(tag_291)\n        /* \"#utility.yul\":15718:15744   */\n    tag_292:\n        /* \"#utility.yul\":15768:15802   */\n      tag_293\n        /* \"#utility.yul\":15798:15801   */\n      dup3\n        /* \"#utility.yul\":15768:15802   */\n      tag_133\n      jump\t// in\n    tag_293:\n        /* \"#utility.yul\":15867:15885   */\n      0xffffffffffffffff\n        /* \"#utility.yul\":15859:15865   */\n      dup2\n        /* \"#utility.yul\":15856:15886   */\n      gt\n        /* \"#utility.yul\":15853:15909   */\n      iszero\n      tag_294\n      jumpi\n        /* \"#utility.yul\":15889:15907   */\n      tag_295\n      tag_117\n      jump\t// in\n    tag_295:\n        /* \"#utility.yul\":15853:15909   */\n    tag_294:\n        /* \"#utility.yul\":15933:15971   */\n      tag_296\n        /* \"#utility.yul\":15965:15969   */\n      dup3\n        /* \"#utility.yul\":15959:15970   */\n      sload\n        /* \"#utility.yul\":15933:15971   */\n      tag_41\n      jump\t// in\n    tag_296:\n        /* \"#utility.yul\":16018:16085   */\n      tag_297\n        /* \"#utility.yul\":16078:16084   */\n      dup3\n        /* \"#utility.yul\":16070:16076   */\n      dup3\n        /* \"#utility.yul\":16064:16068   */\n      dup6\n        /* \"#utility.yul\":16018:16085   */\n      tag_129\n      jump\t// in\n    tag_297:\n        /* \"#utility.yul\":16112:16113   */\n      0x00\n        /* \"#utility.yul\":16141:16143   */\n      0x1f\n        /* \"#utility.yul\":16133:16139   */\n      dup4\n        /* \"#utility.yul\":16130:16144   */\n      gt\n        /* \"#utility.yul\":16158:16159   */\n      0x01\n        /* \"#utility.yul\":16153:16825   */\n      dup2\n      eq\n      tag_299\n      jumpi\n        /* \"#utility.yul\":16869:16870   */\n      0x00\n        /* \"#utility.yul\":16886:16892   */\n      dup5\n        /* \"#utility.yul\":16883:16960   */\n      iszero\n      tag_300\n      jumpi\n        /* \"#utility.yul\":16935:16944   */\n      dup3\n        /* \"#utility.yul\":16930:16933   */\n      dup8\n        /* \"#utility.yul\":16926:16945   */\n      add\n        /* \"#utility.yul\":16920:16946   */\n      sload\n        /* \"#utility.yul\":16911:16946   */\n      swap1\n      pop\n        /* \"#utility.yul\":16883:16960   */\n    tag_300:\n        /* \"#utility.yul\":16986:17053   */\n      tag_301\n        /* \"#utility.yul\":17046:17052   */\n      dup6\n        /* \"#utility.yul\":17039:17044   */\n      dup3\n        /* \"#utility.yul\":16986:17053   */\n      tag_132\n      jump\t// in\n    tag_301:\n        /* \"#utility.yul\":16980:16984   */\n      dup7\n        /* \"#utility.yul\":16973:17054   */\n      sstore\n        /* \"#utility.yul\":16842:17064   */\n      pop\n        /* \"#utility.yul\":16123:17064   */\n      jump(tag_298)\n        /* \"#utility.yul\":16153:16825   */\n    tag_299:\n        /* \"#utility.yul\":16205:16209   */\n      0x1f\n        /* \"#utility.yul\":16201:16210   */\n      not\n        /* \"#utility.yul\":16193:16199   */\n      dup5\n        /* \"#utility.yul\":16189:16211   */\n      and\n        /* \"#utility.yul\":16231:16267   */\n      tag_302\n        /* \"#utility.yul\":16263:16266   */\n      dup8\n        /* \"#utility.yul\":16231:16267   */\n      tag_118\n      jump\t// in\n    tag_302:\n        /* \"#utility.yul\":16224:16267   */\n      swap7\n      pop\n        /* \"#utility.yul\":16294:16331   */\n      tag_303\n        /* \"#utility.yul\":16326:16330   */\n      dup7\n        /* \"#utility.yul\":16294:16331   */\n      tag_118\n      jump\t// in\n    tag_303:\n        /* \"#utility.yul\":16353:16354   */\n      0x00\n        /* \"#utility.yul\":16367:16574   */\n    tag_304:\n        /* \"#utility.yul\":16381:16388   */\n      dup3\n        /* \"#utility.yul\":16378:16379   */\n      dup2\n        /* \"#utility.yul\":16375:16389   */\n      lt\n        /* \"#utility.yul\":16367:16574   */\n      iszero\n      tag_306\n      jumpi\n        /* \"#utility.yul\":16460:16469   */\n      dup5\n        /* \"#utility.yul\":16455:16458   */\n      dup10\n        /* \"#utility.yul\":16451:16470   */\n      add\n        /* \"#utility.yul\":16445:16471   */\n      sload\n        /* \"#utility.yul\":16437:16443   */\n      dup3\n        /* \"#utility.yul\":16430:16472   */\n      sstore\n        /* \"#utility.yul\":16511:16512   */\n      0x01\n        /* \"#utility.yul\":16503:16509   */\n      dup3\n        /* \"#utility.yul\":16499:16513   */\n      add\n        /* \"#utility.yul\":16489:16513   */\n      swap2\n      pop\n        /* \"#utility.yul\":16558:16559   */\n      0x01\n        /* \"#utility.yul\":16547:16556   */\n      dup6\n        /* \"#utility.yul\":16543:16560   */\n      add\n        /* \"#utility.yul\":16530:16560   */\n      swap5\n      pop\n        /* \"#utility.yul\":16404:16408   */\n      0x20\n        /* \"#utility.yul\":16401:16402   */\n      dup2\n        /* \"#utility.yul\":16397:16409   */\n      add\n        /* \"#utility.yul\":16392:16409   */\n      swap1\n      pop\n        /* \"#utility.yul\":16367:16574   */\n      jump(tag_304)\n    tag_306:\n        /* \"#utility.yul\":16602:16608   */\n      dup7\n        /* \"#utility.yul\":16593:16600   */\n      dup4\n        /* \"#utility.yul\":16590:16609   */\n      lt\n        /* \"#utility.yul\":16587:16766   */\n      iszero\n      tag_307\n      jumpi\n        /* \"#utility.yul\":16660:16669   */\n      dup5\n        /* \"#utility.yul\":16655:16658   */\n      dup10\n        /* \"#utility.yul\":16651:16670   */\n      add\n        /* \"#utility.yul\":16645:16671   */\n      sload\n        /* \"#utility.yul\":16703:16751   */\n      tag_308\n        /* \"#utility.yul\":16745:16749   */\n      0x1f\n        /* \"#utility.yul\":16737:16743   */\n      dup10\n        /* \"#utility.yul\":16733:16750   */\n      and\n        /* \"#utility.yul\":16722:16731   */\n      dup3\n        /* \"#utility.yul\":16703:16751   */\n      tag_131\n      jump\t// in\n    tag_308:\n        /* \"#utility.yul\":16695:16701   */\n      dup4\n        /* \"#utility.yul\":16688:16752   */\n      sstore\n        /* \"#utility.yul\":16610:16766   */\n      pop\n        /* \"#utility.yul\":16587:16766   */\n    tag_307:\n        /* \"#utility.yul\":16812:16813   */\n      0x01\n        /* \"#utility.yul\":16808:16809   */\n      0x02\n        /* \"#utility.yul\":16800:16806   */\n      dup9\n        /* \"#utility.yul\":16796:16810   */\n      mul\n        /* \"#utility.yul\":16792:16814   */\n      add\n        /* \"#utility.yul\":16786:16790   */\n      dup9\n        /* \"#utility.yul\":16779:16815   */\n      sstore\n        /* \"#utility.yul\":16160:16825   */\n      pop\n      pop\n      pop\n        /* \"#utility.yul\":16123:17064   */\n    tag_298:\n      pop\n        /* \"#utility.yul\":15708:17070   */\n      pop\n      pop\n      pop\n        /* \"#utility.yul\":15619:17070   */\n      pop\n      pop\n    tag_291:\n      jump\t// out\n\n    auxdata: 0xa2646970667358221220fd349ffbbc413a6d4678004201943978452bc8d9879b00da9cf1d118123a362864736f6c634300081a0033\n}\n",
				"bytecode": {
					"linkReferences": {},
					"object": "6080604052348015600e575f80fd5b50610ea68061001c5f395ff3fe608060405234801561000f575f80fd5b506004361061007b575f3560e01c80635631b41e116100595780635631b41e146100ec5780636dcb78961461011f578063c27a399d14610129578063d2d50bd8146101475761007b565b80633263c5361461007f578063341fa05d1461009b578063472d5008146100b9575b5f80fd5b6100996004803603810190610094919061062c565b610163565b005b6100a3610166565b6040516100b091906107ff565b60405180910390f35b6100d360048036038101906100ce9190610879565b61016b565b6040516100e394939291906108fb565b60405180910390f35b6101066004803603810190610101919061062c565b610328565b60405161011694939291906108fb565b60405180910390f35b6101276104f5565b005b6101316104f7565b60405161013e91906107ff565b60405180910390f35b610161600480360381019061015c91906109b4565b6104fc565b005b50565b606090565b5f602052805f5260405f205f91509050805f01805461018990610aa5565b80601f01602080910402602001604051908101604052809291908181526020018280546101b590610aa5565b80156102005780601f106101d757610100808354040283529160200191610200565b820191905f5260205f20905b8154815290600101906020018083116101e357829003601f168201915b50505050509080600101805461021590610aa5565b80601f016020809104026020016040519081016040528092919081815260200182805461024190610aa5565b801561028c5780601f106102635761010080835404028352916020019161028c565b820191905f5260205f20905b81548152906001019060200180831161026f57829003601f168201915b5050505050908060020180546102a190610aa5565b80601f01602080910402602001604051908101604052809291908181526020018280546102cd90610aa5565b80156103185780601f106102ef57610100808354040283529160200191610318565b820191905f5260205f20905b8154815290600101906020018083116102fb57829003601f168201915b5050505050908060030154905084565b60018181548110610337575f80fd5b905f5260205f2090600402015f91509050805f01805461035690610aa5565b80601f016020809104026020016040519081016040528092919081815260200182805461038290610aa5565b80156103cd5780601f106103a4576101008083540402835291602001916103cd565b820191905f5260205f20905b8154815290600101906020018083116103b057829003601f168201915b5050505050908060010180546103e290610aa5565b80601f016020809104026020016040519081016040528092919081815260200182805461040e90610aa5565b80156104595780601f1061043057610100808354040283529160200191610459565b820191905f5260205f20905b81548152906001019060200180831161043c57829003601f168201915b50505050509080600201805461046e90610aa5565b80601f016020809104026020016040519081016040528092919081815260200182805461049a90610aa5565b80156104e55780601f106104bc576101008083540402835291602001916104e5565b820191905f5260205f20905b8154815290600101906020018083116104c857829003601f168201915b5050505050908060030154905084565b565b606090565b5f6001808160018154018082558091505003905f5260205f20906004020190508787825f01918261052e929190610ca9565b508585826001019182610542929190610ca9565b508383826002019182610556929190610ca9565b50818160030181905550805f803373ffffffffffffffffffffffffffffffffffffffff1673ffffffffffffffffffffffffffffffffffffffff1681526020019081526020015f205f8201815f0190816105af9190610d8b565b50600182018160010190816105c49190610d8b565b50600282018160020190816105d99190610d8b565b50600382015481600301559050505050505050505050565b5f80fd5b5f80fd5b5f819050919050565b61060b816105f9565b8114610615575f80fd5b50565b5f8135905061062681610602565b92915050565b5f60208284031215610641576106406105f1565b5b5f61064e84828501610618565b91505092915050565b5f81519050919050565b5f82825260208201905092915050565b5f819050602082019050919050565b5f81519050919050565b5f82825260208201905092915050565b8281835e5f83830152505050565b5f601f19601f8301169050919050565b5f6106c282610680565b6106cc818561068a565b93506106dc81856020860161069a565b6106e5816106a8565b840191505092915050565b6106f9816105f9565b82525050565b5f608083015f8301518482035f86015261071982826106b8565b9150506020830151848203602086015261073382826106b8565b9150506040830151848203604086015261074d82826106b8565b915050606083015161076260608601826106f0565b508091505092915050565b5f61077883836106ff565b905092915050565b5f602082019050919050565b5f61079682610657565b6107a08185610661565b9350836020820285016107b285610671565b805f5b858110156107ed57848403895281516107ce858261076d565b94506107d983610780565b925060208a019950506001810190506107b5565b50829750879550505050505092915050565b5f6020820190508181035f830152610817818461078c565b905092915050565b5f73ffffffffffffffffffffffffffffffffffffffff82169050919050565b5f6108488261081f565b9050919050565b6108588161083e565b8114610862575f80fd5b50565b5f813590506108738161084f565b92915050565b5f6020828403121561088e5761088d6105f1565b5b5f61089b84828501610865565b91505092915050565b5f82825260208201905092915050565b5f6108be82610680565b6108c881856108a4565b93506108d881856020860161069a565b6108e1816106a8565b840191505092915050565b6108f5816105f9565b82525050565b5f6080820190508181035f83015261091381876108b4565b9050818103602083015261092781866108b4565b9050818103604083015261093b81856108b4565b905061094a60608301846108ec565b95945050505050565b5f80fd5b5f80fd5b5f80fd5b5f8083601f84011261097457610973610953565b5b8235905067ffffffffffffffff81111561099157610990610957565b5b6020830191508360018202830111156109ad576109ac61095b565b5b9250929050565b5f805f805f805f6080888a0312156109cf576109ce6105f1565b5b5f88013567ffffffffffffffff8111156109ec576109eb6105f5565b5b6109f88a828b0161095f565b9750975050602088013567ffffffffffffffff811115610a1b57610a1a6105f5565b5b610a278a828b0161095f565b9550955050604088013567ffffffffffffffff811115610a4a57610a496105f5565b5b610a568a828b0161095f565b93509350506060610a698a828b01610618565b91505092959891949750929550565b7f4e487b71000000000000000000000000000000000000000000000000000000005f52602260045260245ffd5b5f6002820490506001821680610abc57607f821691505b602082108103610acf57610ace610a78565b5b50919050565b5f82905092915050565b7f4e487b71000000000000000000000000000000000000000000000000000000005f52604160045260245ffd5b5f819050815f5260205f209050919050565b5f6020601f8301049050919050565b5f82821b905092915050565b5f60088302610b687fffffffffffffffffffffffffffffffffffffffffffffffffffffffffffffffff82610b2d565b610b728683610b2d565b95508019841693508086168417925050509392505050565b5f819050919050565b5f610bad610ba8610ba3846105f9565b610b8a565b6105f9565b9050919050565b5f819050919050565b610bc683610b93565b610bda610bd282610bb4565b848454610b39565b825550505050565b5f90565b610bee610be2565b610bf9818484610bbd565b505050565b5b81811015610c1c57610c115f82610be6565b600181019050610bff565b5050565b601f821115610c6157610c3281610b0c565b610c3b84610b1e565b81016020851015610c4a578190505b610c5e610c5685610b1e565b830182610bfe565b50505b505050565b5f82821c905092915050565b5f610c815f1984600802610c66565b1980831691505092915050565b5f610c998383610c72565b9150826002028217905092915050565b610cb38383610ad5565b67ffffffffffffffff811115610ccc57610ccb610adf565b5b610cd68254610aa5565b610ce1828285610c20565b5f601f831160018114610d0e575f8415610cfc578287013590505b610d068582610c8e565b865550610d6d565b601f198416610d1c86610b0c565b5f5b82811015610d4357848901358255600182019150602085019450602081019050610d1e565b86831015610d605784890135610d5c601f891682610c72565b8355505b6001600288020188555050505b50505050505050565b5f81549050610d8481610aa5565b9050919050565b818103610d99575050610e6e565b610da282610d76565b67ffffffffffffffff811115610dbb57610dba610adf565b5b610dc58254610aa5565b610dd0828285610c20565b5f601f831160018114610dfd575f8415610deb578287015490505b610df58582610c8e565b865550610e67565b601f198416610e0b87610b0c565b9650610e1686610b0c565b5f5b82811015610e3d57848901548255600182019150600185019450602081019050610e18565b86831015610e5a5784890154610e56601f891682610c72565b8355505b6001600288020188555050505b5050505050505b56fea2646970667358221220fd349ffbbc413a6d4678004201943978452bc8d9879b00da9cf1d118123a362864736f6c634300081a0033",
					"opcodes": "PUSH1 0x80 PUSH1 0x40 MSTORE CALLVALUE DUP1 ISZERO PUSH1 0xE JUMPI PUSH0 DUP1 REVERT JUMPDEST POP PUSH2 0xEA6 DUP1 PUSH2 0x1C PUSH0 CODECOPY PUSH0 RETURN INVALID PUSH1 0x80 PUSH1 0x40 MSTORE CALLVALUE DUP1 ISZERO PUSH2 0xF JUMPI PUSH0 DUP1 REVERT JUMPDEST POP PUSH1 0x4 CALLDATASIZE LT PUSH2 0x7B JUMPI PUSH0 CALLDATALOAD PUSH1 0xE0 SHR DUP1 PUSH4 0x5631B41E GT PUSH2 0x59 JUMPI DUP1 PUSH4 0x5631B41E EQ PUSH2 0xEC JUMPI DUP1 PUSH4 0x6DCB7896 EQ PUSH2 0x11F JUMPI DUP1 PUSH4 0xC27A399D EQ PUSH2 0x129 JUMPI DUP1 PUSH4 0xD2D50BD8 EQ PUSH2 0x147 JUMPI PUSH2 0x7B JUMP JUMPDEST DUP1 PUSH4 0x3263C536 EQ PUSH2 0x7F JUMPI DUP1 PUSH4 0x341FA05D EQ PUSH2 0x9B JUMPI DUP1 PUSH4 0x472D5008 EQ PUSH2 0xB9 JUMPI JUMPDEST PUSH0 DUP1 REVERT JUMPDEST PUSH2 0x99 PUSH1 0x4 DUP1 CALLDATASIZE SUB DUP2 ADD SWAP1 PUSH2 0x94 SWAP2 SWAP1 PUSH2 0x62C JUMP JUMPDEST PUSH2 0x163 JUMP JUMPDEST STOP JUMPDEST PUSH2 0xA3 PUSH2 0x166 JUMP JUMPDEST PUSH1 0x40 MLOAD PUSH2 0xB0 SWAP2 SWAP1 PUSH2 0x7FF JUMP JUMPDEST PUSH1 0x40 MLOAD DUP1 SWAP2 SUB SWAP1 RETURN JUMPDEST PUSH2 0xD3 PUSH1 0x4 DUP1 CALLDATASIZE SUB DUP2 ADD SWAP1 PUSH2 0xCE SWAP2 SWAP1 PUSH2 0x879 JUMP JUMPDEST PUSH2 0x16B JUMP JUMPDEST PUSH1 0x40 MLOAD PUSH2 0xE3 SWAP5 SWAP4 SWAP3 SWAP2 SWAP1 PUSH2 0x8FB JUMP JUMPDEST PUSH1 0x40 MLOAD DUP1 SWAP2 SUB SWAP1 RETURN JUMPDEST PUSH2 0x106 PUSH1 0x4 DUP1 CALLDATASIZE SUB DUP2 ADD SWAP1 PUSH2 0x101 SWAP2 SWAP1 PUSH2 0x62C JUMP JUMPDEST PUSH2 0x328 JUMP JUMPDEST PUSH1 0x40 MLOAD PUSH2 0x116 SWAP5 SWAP4 SWAP3 SWAP2 SWAP1 PUSH2 0x8FB JUMP JUMPDEST PUSH1 0x40 MLOAD DUP1 SWAP2 SUB SWAP1 RETURN JUMPDEST PUSH2 0x127 PUSH2 0x4F5 JUMP JUMPDEST STOP JUMPDEST PUSH2 0x131 PUSH2 0x4F7 JUMP JUMPDEST PUSH1 0x40 MLOAD PUSH2 0x13E SWAP2 SWAP1 PUSH2 0x7FF JUMP JUMPDEST PUSH1 0x40 MLOAD DUP1 SWAP2 SUB SWAP1 RETURN JUMPDEST PUSH2 0x161 PUSH1 0x4 DUP1 CALLDATASIZE SUB DUP2 ADD SWAP1 PUSH2 0x15C SWAP2 SWAP1 PUSH2 0x9B4 JUMP JUMPDEST PUSH2 0x4FC JUMP JUMPDEST STOP JUMPDEST POP JUMP JUMPDEST PUSH1 0x60 SWAP1 JUMP JUMPDEST PUSH0 PUSH1 0x20 MSTORE DUP1 PUSH0 MSTORE PUSH1 0x40 PUSH0 KECCAK256 PUSH0 SWAP2 POP SWAP1 POP DUP1 PUSH0 ADD DUP1 SLOAD PUSH2 0x189 SWAP1 PUSH2 0xAA5 JUMP JUMPDEST DUP1 PUSH1 0x1F ADD PUSH1 0x20 DUP1 SWAP2 DIV MUL PUSH1 0x20 ADD PUSH1 0x40 MLOAD SWAP1 DUP2 ADD PUSH1 0x40 MSTORE DUP1 SWAP3 SWAP2 SWAP1 DUP2 DUP2 MSTORE PUSH1 0x20 ADD DUP3 DUP1 SLOAD PUSH2 0x1B5 SWAP1 PUSH2 0xAA5 JUMP JUMPDEST DUP1 ISZERO PUSH2 0x200 JUMPI DUP1 PUSH1 0x1F LT PUSH2 0x1D7 JUMPI PUSH2 0x100 DUP1 DUP4 SLOAD DIV MUL DUP4 MSTORE SWAP2 PUSH1 0x20 ADD SWAP2 PUSH2 0x200 JUMP JUMPDEST DUP3 ADD SWAP2 SWAP1 PUSH0 MSTORE PUSH1 0x20 PUSH0 KECCAK256 SWAP1 JUMPDEST DUP2 SLOAD DUP2 MSTORE SWAP1 PUSH1 0x1 ADD SWAP1 PUSH1 0x20 ADD DUP1 DUP4 GT PUSH2 0x1E3 JUMPI DUP3 SWAP1 SUB PUSH1 0x1F AND DUP3 ADD SWAP2 JUMPDEST POP POP POP POP POP SWAP1 DUP1 PUSH1 0x1 ADD DUP1 SLOAD PUSH2 0x215 SWAP1 PUSH2 0xAA5 JUMP JUMPDEST DUP1 PUSH1 0x1F ADD PUSH1 0x20 DUP1 SWAP2 DIV MUL PUSH1 0x20 ADD PUSH1 0x40 MLOAD SWAP1 DUP2 ADD PUSH1 0x40 MSTORE DUP1 SWAP3 SWAP2 SWAP1 DUP2 DUP2 MSTORE PUSH1 0x20 ADD DUP3 DUP1 SLOAD PUSH2 0x241 SWAP1 PUSH2 0xAA5 JUMP JUMPDEST DUP1 ISZERO PUSH2 0x28C JUMPI DUP1 PUSH1 0x1F LT PUSH2 0x263 JUMPI PUSH2 0x100 DUP1 DUP4 SLOAD DIV MUL DUP4 MSTORE SWAP2 PUSH1 0x20 ADD SWAP2 PUSH2 0x28C JUMP JUMPDEST DUP3 ADD SWAP2 SWAP1 PUSH0 MSTORE PUSH1 0x20 PUSH0 KECCAK256 SWAP1 JUMPDEST DUP2 SLOAD DUP2 MSTORE SWAP1 PUSH1 0x1 ADD SWAP1 PUSH1 0x20 ADD DUP1 DUP4 GT PUSH2 0x26F JUMPI DUP3 SWAP1 SUB PUSH1 0x1F AND DUP3 ADD SWAP2 JUMPDEST POP POP POP POP POP SWAP1 DUP1 PUSH1 0x2 ADD DUP1 SLOAD PUSH2 0x2A1 SWAP1 PUSH2 0xAA5 JUMP JUMPDEST DUP1 PUSH1 0x1F ADD PUSH1 0x20 DUP1 SWAP2 DIV MUL PUSH1 0x20 ADD PUSH1 0x40 MLOAD SWAP1 DUP2 ADD PUSH1 0x40 MSTORE DUP1 SWAP3 SWAP2 SWAP1 DUP2 DUP2 MSTORE PUSH1 0x20 ADD DUP3 DUP1 SLOAD PUSH2 0x2CD SWAP1 PUSH2 0xAA5 JUMP JUMPDEST DUP1 ISZERO PUSH2 0x318 JUMPI DUP1 PUSH1 0x1F LT PUSH2 0x2EF JUMPI PUSH2 0x100 DUP1 DUP4 SLOAD DIV MUL DUP4 MSTORE SWAP2 PUSH1 0x20 ADD SWAP2 PUSH2 0x318 JUMP JUMPDEST DUP3 ADD SWAP2 SWAP1 PUSH0 MSTORE PUSH1 0x20 PUSH0 KECCAK256 SWAP1 JUMPDEST DUP2 SLOAD DUP2 MSTORE SWAP1 PUSH1 0x1 ADD SWAP1 PUSH1 0x20 ADD DUP1 DUP4 GT PUSH2 0x2FB JUMPI DUP3 SWAP1 SUB PUSH1 0x1F AND DUP3 ADD SWAP2 JUMPDEST POP POP POP POP POP SWAP1 DUP1 PUSH1 0x3 ADD SLOAD SWAP1 POP DUP5 JUMP JUMPDEST PUSH1 0x1 DUP2 DUP2 SLOAD DUP2 LT PUSH2 0x337 JUMPI PUSH0 DUP1 REVERT JUMPDEST SWAP1 PUSH0 MSTORE PUSH1 0x20 PUSH0 KECCAK256 SWAP1 PUSH1 0x4 MUL ADD PUSH0 SWAP2 POP SWAP1 POP DUP1 PUSH0 ADD DUP1 SLOAD PUSH2 0x356 SWAP1 PUSH2 0xAA5 JUMP JUMPDEST DUP1 PUSH1 0x1F ADD PUSH1 0x20 DUP1 SWAP2 DIV MUL PUSH1 0x20 ADD PUSH1 0x40 MLOAD SWAP1 DUP2 ADD PUSH1 0x40 MSTORE DUP1 SWAP3 SWAP2 SWAP1 DUP2 DUP2 MSTORE PUSH1 0x20 ADD DUP3 DUP1 SLOAD PUSH2 0x382 SWAP1 PUSH2 0xAA5 JUMP JUMPDEST DUP1 ISZERO PUSH2 0x3CD JUMPI DUP1 PUSH1 0x1F LT PUSH2 0x3A4 JUMPI PUSH2 0x100 DUP1 DUP4 SLOAD DIV MUL DUP4 MSTORE SWAP2 PUSH1 0x20 ADD SWAP2 PUSH2 0x3CD JUMP JUMPDEST DUP3 ADD SWAP2 SWAP1 PUSH0 MSTORE PUSH1 0x20 PUSH0 KECCAK256 SWAP1 JUMPDEST DUP2 SLOAD DUP2 MSTORE SWAP1 PUSH1 0x1 ADD SWAP1 PUSH1 0x20 ADD DUP1 DUP4 GT PUSH2 0x3B0 JUMPI DUP3 SWAP1 SUB PUSH1 0x1F AND DUP3 ADD SWAP2 JUMPDEST POP POP POP POP POP SWAP1 DUP1 PUSH1 0x1 ADD DUP1 SLOAD PUSH2 0x3E2 SWAP1 PUSH2 0xAA5 JUMP JUMPDEST DUP1 PUSH1 0x1F ADD PUSH1 0x20 DUP1 SWAP2 DIV MUL PUSH1 0x20 ADD PUSH1 0x40 MLOAD SWAP1 DUP2 ADD PUSH1 0x40 MSTORE DUP1 SWAP3 SWAP2 SWAP1 DUP2 DUP2 MSTORE PUSH1 0x20 ADD DUP3 DUP1 SLOAD PUSH2 0x40E SWAP1 PUSH2 0xAA5 JUMP JUMPDEST DUP1 ISZERO PUSH2 0x459 JUMPI DUP1 PUSH1 0x1F LT PUSH2 0x430 JUMPI PUSH2 0x100 DUP1 DUP4 SLOAD DIV MUL DUP4 MSTORE SWAP2 PUSH1 0x20 ADD SWAP2 PUSH2 0x459 JUMP JUMPDEST DUP3 ADD SWAP2 SWAP1 PUSH0 MSTORE PUSH1 0x20 PUSH0 KECCAK256 SWAP1 JUMPDEST DUP2 SLOAD DUP2 MSTORE SWAP1 PUSH1 0x1 ADD SWAP1 PUSH1 0x20 ADD DUP1 DUP4 GT PUSH2 0x43C JUMPI DUP3 SWAP1 SUB PUSH1 0x1F AND DUP3 ADD SWAP2 JUMPDEST POP POP POP POP POP SWAP1 DUP1 PUSH1 0x2 ADD DUP1 SLOAD PUSH2 0x46E SWAP1 PUSH2 0xAA5 JUMP JUMPDEST DUP1 PUSH1 0x1F ADD PUSH1 0x20 DUP1 SWAP2 DIV MUL PUSH1 0x20 ADD PUSH1 0x40 MLOAD SWAP1 DUP2 ADD PUSH1 0x40 MSTORE DUP1 SWAP3 SWAP2 SWAP1 DUP2 DUP2 MSTORE PUSH1 0x20 ADD DUP3 DUP1 SLOAD PUSH2 0x49A SWAP1 PUSH2 0xAA5 JUMP JUMPDEST DUP1 ISZERO PUSH2 0x4E5 JUMPI DUP1 PUSH1 0x1F LT PUSH2 0x4BC JUMPI PUSH2 0x100 DUP1 DUP4 SLOAD DIV MUL DUP4 MSTORE SWAP2 PUSH1 0x20 ADD SWAP2 PUSH2 0x4E5 JUMP JUMPDEST DUP3 ADD SWAP2 SWAP1 PUSH0 MSTORE PUSH1 0x20 PUSH0 KECCAK256 SWAP1 JUMPDEST DUP2 SLOAD DUP2 MSTORE SWAP1 PUSH1 0x1 ADD SWAP1 PUSH1 0x20 ADD DUP1 DUP4 GT PUSH2 0x4C8 JUMPI DUP3 SWAP1 SUB PUSH1 0x1F AND DUP3 ADD SWAP2 JUMPDEST POP POP POP POP POP SWAP1 DUP1 PUSH1 0x3 ADD SLOAD SWAP1 POP DUP5 JUMP JUMPDEST JUMP JUMPDEST PUSH1 0x60 SWAP1 JUMP JUMPDEST PUSH0 PUSH1 0x1 DUP1 DUP2 PUSH1 0x1 DUP2 SLOAD ADD DUP1 DUP3 SSTORE DUP1 SWAP2 POP POP SUB SWAP1 PUSH0 MSTORE PUSH1 0x20 PUSH0 KECCAK256 SWAP1 PUSH1 0x4 MUL ADD SWAP1 POP DUP8 DUP8 DUP3 PUSH0 ADD SWAP2 DUP3 PUSH2 0x52E SWAP3 SWAP2 SWAP1 PUSH2 0xCA9 JUMP JUMPDEST POP DUP6 DUP6 DUP3 PUSH1 0x1 ADD SWAP2 DUP3 PUSH2 0x542 SWAP3 SWAP2 SWAP1 PUSH2 0xCA9 JUMP JUMPDEST POP DUP4 DUP4 DUP3 PUSH1 0x2 ADD SWAP2 DUP3 PUSH2 0x556 SWAP3 SWAP2 SWAP1 PUSH2 0xCA9 JUMP JUMPDEST POP DUP2 DUP2 PUSH1 0x3 ADD DUP2 SWAP1 SSTORE POP DUP1 PUSH0 DUP1 CALLER PUSH20 0xFFFFFFFFFFFFFFFFFFFFFFFFFFFFFFFFFFFFFFFF AND PUSH20 0xFFFFFFFFFFFFFFFFFFFFFFFFFFFFFFFFFFFFFFFF AND DUP2 MSTORE PUSH1 0x20 ADD SWAP1 DUP2 MSTORE PUSH1 0x20 ADD PUSH0 KECCAK256 PUSH0 DUP3 ADD DUP2 PUSH0 ADD SWAP1 DUP2 PUSH2 0x5AF SWAP2 SWAP1 PUSH2 0xD8B JUMP JUMPDEST POP PUSH1 0x1 DUP3 ADD DUP2 PUSH1 0x1 ADD SWAP1 DUP2 PUSH2 0x5C4 SWAP2 SWAP1 PUSH2 0xD8B JUMP JUMPDEST POP PUSH1 0x2 DUP3 ADD DUP2 PUSH1 0x2 ADD SWAP1 DUP2 PUSH2 0x5D9 SWAP2 SWAP1 PUSH2 0xD8B JUMP JUMPDEST POP PUSH1 0x3 DUP3 ADD SLOAD DUP2 PUSH1 0x3 ADD SSTORE SWAP1 POP POP POP POP POP POP POP POP POP POP JUMP JUMPDEST PUSH0 DUP1 REVERT JUMPDEST PUSH0 DUP1 REVERT JUMPDEST PUSH0 DUP2 SWAP1 POP SWAP2 SWAP1 POP JUMP JUMPDEST PUSH2 0x60B DUP2 PUSH2 0x5F9 JUMP JUMPDEST DUP2 EQ PUSH2 0x615 JUMPI PUSH0 DUP1 REVERT JUMPDEST POP JUMP JUMPDEST PUSH0 DUP2 CALLDATALOAD SWAP1 POP PUSH2 0x626 DUP2 PUSH2 0x602 JUMP JUMPDEST SWAP3 SWAP2 POP POP JUMP JUMPDEST PUSH0 PUSH1 0x20 DUP3 DUP5 SUB SLT ISZERO PUSH2 0x641 JUMPI PUSH2 0x640 PUSH2 0x5F1 JUMP JUMPDEST JUMPDEST PUSH0 PUSH2 0x64E DUP5 DUP3 DUP6 ADD PUSH2 0x618 JUMP JUMPDEST SWAP2 POP POP SWAP3 SWAP2 POP POP JUMP JUMPDEST PUSH0 DUP2 MLOAD SWAP1 POP SWAP2 SWAP1 POP JUMP JUMPDEST PUSH0 DUP3 DUP3 MSTORE PUSH1 0x20 DUP3 ADD SWAP1 POP SWAP3 SWAP2 POP POP JUMP JUMPDEST PUSH0 DUP2 SWAP1 POP PUSH1 0x20 DUP3 ADD SWAP1 POP SWAP2 SWAP1 POP JUMP JUMPDEST PUSH0 DUP2 MLOAD SWAP1 POP SWAP2 SWAP1 POP JUMP JUMPDEST PUSH0 DUP3 DUP3 MSTORE PUSH1 0x20 DUP3 ADD SWAP1 POP SWAP3 SWAP2 POP POP JUMP JUMPDEST DUP3 DUP2 DUP4 MCOPY PUSH0 DUP4 DUP4 ADD MSTORE POP POP POP JUMP JUMPDEST PUSH0 PUSH1 0x1F NOT PUSH1 0x1F DUP4 ADD AND SWAP1 POP SWAP2 SWAP1 POP JUMP JUMPDEST PUSH0 PUSH2 0x6C2 DUP3 PUSH2 0x680 JUMP JUMPDEST PUSH2 0x6CC DUP2 DUP6 PUSH2 0x68A JUMP JUMPDEST SWAP4 POP PUSH2 0x6DC DUP2 DUP6 PUSH1 0x20 DUP7 ADD PUSH2 0x69A JUMP JUMPDEST PUSH2 0x6E5 DUP2 PUSH2 0x6A8 JUMP JUMPDEST DUP5 ADD SWAP2 POP POP SWAP3 SWAP2 POP POP JUMP JUMPDEST PUSH2 0x6F9 DUP2 PUSH2 0x5F9 JUMP JUMPDEST DUP3 MSTORE POP POP JUMP JUMPDEST PUSH0 PUSH1 0x80 DUP4 ADD PUSH0 DUP4 ADD MLOAD DUP5 DUP3 SUB PUSH0 DUP7 ADD MSTORE PUSH2 0x719 DUP3 DUP3 PUSH2 0x6B8 JUMP JUMPDEST SWAP2 POP POP PUSH1 0x20 DUP4 ADD MLOAD DUP5 DUP3 SUB PUSH1 0x20 DUP7 ADD MSTORE PUSH2 0x733 DUP3 DUP3 PUSH2 0x6B8 JUMP JUMPDEST SWAP2 POP POP PUSH1 0x40 DUP4 ADD MLOAD DUP5 DUP3 SUB PUSH1 0x40 DUP7 ADD MSTORE PUSH2 0x74D DUP3 DUP3 PUSH2 0x6B8 JUMP JUMPDEST SWAP2 POP POP PUSH1 0x60 DUP4 ADD MLOAD PUSH2 0x762 PUSH1 0x60 DUP7 ADD DUP3 PUSH2 0x6F0 JUMP JUMPDEST POP DUP1 SWAP2 POP POP SWAP3 SWAP2 POP POP JUMP JUMPDEST PUSH0 PUSH2 0x778 DUP4 DUP4 PUSH2 0x6FF JUMP JUMPDEST SWAP1 POP SWAP3 SWAP2 POP POP JUMP JUMPDEST PUSH0 PUSH1 0x20 DUP3 ADD SWAP1 POP SWAP2 SWAP1 POP JUMP JUMPDEST PUSH0 PUSH2 0x796 DUP3 PUSH2 0x657 JUMP JUMPDEST PUSH2 0x7A0 DUP2 DUP6 PUSH2 0x661 JUMP JUMPDEST SWAP4 POP DUP4 PUSH1 0x20 DUP3 MUL DUP6 ADD PUSH2 0x7B2 DUP6 PUSH2 0x671 JUMP JUMPDEST DUP1 PUSH0 JUMPDEST DUP6 DUP2 LT ISZERO PUSH2 0x7ED JUMPI DUP5 DUP5 SUB DUP10 MSTORE DUP2 MLOAD PUSH2 0x7CE DUP6 DUP3 PUSH2 0x76D JUMP JUMPDEST SWAP5 POP PUSH2 0x7D9 DUP4 PUSH2 0x780 JUMP JUMPDEST SWAP3 POP PUSH1 0x20 DUP11 ADD SWAP10 POP POP PUSH1 0x1 DUP2 ADD SWAP1 POP PUSH2 0x7B5 JUMP JUMPDEST POP DUP3 SWAP8 POP DUP8 SWAP6 POP POP POP POP POP POP SWAP3 SWAP2 POP POP JUMP JUMPDEST PUSH0 PUSH1 0x20 DUP3 ADD SWAP1 POP DUP2 DUP2 SUB PUSH0 DUP4 ADD MSTORE PUSH2 0x817 DUP2 DUP5 PUSH2 0x78C JUMP JUMPDEST SWAP1 POP SWAP3 SWAP2 POP POP JUMP JUMPDEST PUSH0 PUSH20 0xFFFFFFFFFFFFFFFFFFFFFFFFFFFFFFFFFFFFFFFF DUP3 AND SWAP1 POP SWAP2 SWAP1 POP JUMP JUMPDEST PUSH0 PUSH2 0x848 DUP3 PUSH2 0x81F JUMP JUMPDEST SWAP1 POP SWAP2 SWAP1 POP JUMP JUMPDEST PUSH2 0x858 DUP2 PUSH2 0x83E JUMP JUMPDEST DUP2 EQ PUSH2 0x862 JUMPI PUSH0 DUP1 REVERT JUMPDEST POP JUMP JUMPDEST PUSH0 DUP2 CALLDATALOAD SWAP1 POP PUSH2 0x873 DUP2 PUSH2 0x84F JUMP JUMPDEST SWAP3 SWAP2 POP POP JUMP JUMPDEST PUSH0 PUSH1 0x20 DUP3 DUP5 SUB SLT ISZERO PUSH2 0x88E JUMPI PUSH2 0x88D PUSH2 0x5F1 JUMP JUMPDEST JUMPDEST PUSH0 PUSH2 0x89B DUP5 DUP3 DUP6 ADD PUSH2 0x865 JUMP JUMPDEST SWAP2 POP POP SWAP3 SWAP2 POP POP JUMP JUMPDEST PUSH0 DUP3 DUP3 MSTORE PUSH1 0x20 DUP3 ADD SWAP1 POP SWAP3 SWAP2 POP POP JUMP JUMPDEST PUSH0 PUSH2 0x8BE DUP3 PUSH2 0x680 JUMP JUMPDEST PUSH2 0x8C8 DUP2 DUP6 PUSH2 0x8A4 JUMP JUMPDEST SWAP4 POP PUSH2 0x8D8 DUP2 DUP6 PUSH1 0x20 DUP7 ADD PUSH2 0x69A JUMP JUMPDEST PUSH2 0x8E1 DUP2 PUSH2 0x6A8 JUMP JUMPDEST DUP5 ADD SWAP2 POP POP SWAP3 SWAP2 POP POP JUMP JUMPDEST PUSH2 0x8F5 DUP2 PUSH2 0x5F9 JUMP JUMPDEST DUP3 MSTORE POP POP JUMP JUMPDEST PUSH0 PUSH1 0x80 DUP3 ADD SWAP1 POP DUP2 DUP2 SUB PUSH0 DUP4 ADD MSTORE PUSH2 0x913 DUP2 DUP8 PUSH2 0x8B4 JUMP JUMPDEST SWAP1 POP DUP2 DUP2 SUB PUSH1 0x20 DUP4 ADD MSTORE PUSH2 0x927 DUP2 DUP7 PUSH2 0x8B4 JUMP JUMPDEST SWAP1 POP DUP2 DUP2 SUB PUSH1 0x40 DUP4 ADD MSTORE PUSH2 0x93B DUP2 DUP6 PUSH2 0x8B4 JUMP JUMPDEST SWAP1 POP PUSH2 0x94A PUSH1 0x60 DUP4 ADD DUP5 PUSH2 0x8EC JUMP JUMPDEST SWAP6 SWAP5 POP POP POP POP POP JUMP JUMPDEST PUSH0 DUP1 REVERT JUMPDEST PUSH0 DUP1 REVERT JUMPDEST PUSH0 DUP1 REVERT JUMPDEST PUSH0 DUP1 DUP4 PUSH1 0x1F DUP5 ADD SLT PUSH2 0x974 JUMPI PUSH2 0x973 PUSH2 0x953 JUMP JUMPDEST JUMPDEST DUP3 CALLDATALOAD SWAP1 POP PUSH8 0xFFFFFFFFFFFFFFFF DUP2 GT ISZERO PUSH2 0x991 JUMPI PUSH2 0x990 PUSH2 0x957 JUMP JUMPDEST JUMPDEST PUSH1 0x20 DUP4 ADD SWAP2 POP DUP4 PUSH1 0x1 DUP3 MUL DUP4 ADD GT ISZERO PUSH2 0x9AD JUMPI PUSH2 0x9AC PUSH2 0x95B JUMP JUMPDEST JUMPDEST SWAP3 POP SWAP3 SWAP1 POP JUMP JUMPDEST PUSH0 DUP1 PUSH0 DUP1 PUSH0 DUP1 PUSH0 PUSH1 0x80 DUP9 DUP11 SUB SLT ISZERO PUSH2 0x9CF JUMPI PUSH2 0x9CE PUSH2 0x5F1 JUMP JUMPDEST JUMPDEST PUSH0 DUP9 ADD CALLDATALOAD PUSH8 0xFFFFFFFFFFFFFFFF DUP2 GT ISZERO PUSH2 0x9EC JUMPI PUSH2 0x9EB PUSH2 0x5F5 JUMP JUMPDEST JUMPDEST PUSH2 0x9F8 DUP11 DUP3 DUP12 ADD PUSH2 0x95F JUMP JUMPDEST SWAP8 POP SWAP8 POP POP PUSH1 0x20 DUP9 ADD CALLDATALOAD PUSH8 0xFFFFFFFFFFFFFFFF DUP2 GT ISZERO PUSH2 0xA1B JUMPI PUSH2 0xA1A PUSH2 0x5F5 JUMP JUMPDEST JUMPDEST PUSH2 0xA27 DUP11 DUP3 DUP12 ADD PUSH2 0x95F JUMP JUMPDEST SWAP6 POP SWAP6 POP POP PUSH1 0x40 DUP9 ADD CALLDATALOAD PUSH8 0xFFFFFFFFFFFFFFFF DUP2 GT ISZERO PUSH2 0xA4A JUMPI PUSH2 0xA49 PUSH2 0x5F5 JUMP JUMPDEST JUMPDEST PUSH2 0xA56 DUP11 DUP3 DUP12 ADD PUSH2 0x95F JUMP JUMPDEST SWAP4 POP SWAP4 POP POP PUSH1 0x60 PUSH2 0xA69 DUP11 DUP3 DUP12 ADD PUSH2 0x618 JUMP JUMPDEST SWAP2 POP POP SWAP3 SWAP6 SWAP9 SWAP2 SWAP5 SWAP8 POP SWAP3 SWAP6 POP JUMP JUMPDEST PUSH32 0x4E487B7100000000000000000000000000000000000000000000000000000000 PUSH0 MSTORE PUSH1 0x22 PUSH1 0x4 MSTORE PUSH1 0x24 PUSH0 REVERT JUMPDEST PUSH0 PUSH1 0x2 DUP3 DIV SWAP1 POP PUSH1 0x1 DUP3 AND DUP1 PUSH2 0xABC JUMPI PUSH1 0x7F DUP3 AND SWAP2 POP JUMPDEST PUSH1 0x20 DUP3 LT DUP2 SUB PUSH2 0xACF JUMPI PUSH2 0xACE PUSH2 0xA78 JUMP JUMPDEST JUMPDEST POP SWAP2 SWAP1 POP JUMP JUMPDEST PUSH0 DUP3 SWAP1 POP SWAP3 SWAP2 POP POP JUMP JUMPDEST PUSH32 0x4E487B7100000000000000000000000000000000000000000000000000000000 PUSH0 MSTORE PUSH1 0x41 PUSH1 0x4 MSTORE PUSH1 0x24 PUSH0 REVERT JUMPDEST PUSH0 DUP2 SWAP1 POP DUP2 PUSH0 MSTORE PUSH1 0x20 PUSH0 KECCAK256 SWAP1 POP SWAP2 SWAP1 POP JUMP JUMPDEST PUSH0 PUSH1 0x20 PUSH1 0x1F DUP4 ADD DIV SWAP1 POP SWAP2 SWAP1 POP JUMP JUMPDEST PUSH0 DUP3 DUP3 SHL SWAP1 POP SWAP3 SWAP2 POP POP JUMP JUMPDEST PUSH0 PUSH1 0x8 DUP4 MUL PUSH2 0xB68 PUSH32 0xFFFFFFFFFFFFFFFFFFFFFFFFFFFFFFFFFFFFFFFFFFFFFFFFFFFFFFFFFFFFFFFF DUP3 PUSH2 0xB2D JUMP JUMPDEST PUSH2 0xB72 DUP7 DUP4 PUSH2 0xB2D JUMP JUMPDEST SWAP6 POP DUP1 NOT DUP5 AND SWAP4 POP DUP1 DUP7 AND DUP5 OR SWAP3 POP POP POP SWAP4 SWAP3 POP POP POP JUMP JUMPDEST PUSH0 DUP2 SWAP1 POP SWAP2 SWAP1 POP JUMP JUMPDEST PUSH0 PUSH2 0xBAD PUSH2 0xBA8 PUSH2 0xBA3 DUP5 PUSH2 0x5F9 JUMP JUMPDEST PUSH2 0xB8A JUMP JUMPDEST PUSH2 0x5F9 JUMP JUMPDEST SWAP1 POP SWAP2 SWAP1 POP JUMP JUMPDEST PUSH0 DUP2 SWAP1 POP SWAP2 SWAP1 POP JUMP JUMPDEST PUSH2 0xBC6 DUP4 PUSH2 0xB93 JUMP JUMPDEST PUSH2 0xBDA PUSH2 0xBD2 DUP3 PUSH2 0xBB4 JUMP JUMPDEST DUP5 DUP5 SLOAD PUSH2 0xB39 JUMP JUMPDEST DUP3 SSTORE POP POP POP POP JUMP JUMPDEST PUSH0 SWAP1 JUMP JUMPDEST PUSH2 0xBEE PUSH2 0xBE2 JUMP JUMPDEST PUSH2 0xBF9 DUP2 DUP5 DUP5 PUSH2 0xBBD JUMP JUMPDEST POP POP POP JUMP JUMPDEST JUMPDEST DUP2 DUP2 LT ISZERO PUSH2 0xC1C JUMPI PUSH2 0xC11 PUSH0 DUP3 PUSH2 0xBE6 JUMP JUMPDEST PUSH1 0x1 DUP2 ADD SWAP1 POP PUSH2 0xBFF JUMP JUMPDEST POP POP JUMP JUMPDEST PUSH1 0x1F DUP3 GT ISZERO PUSH2 0xC61 JUMPI PUSH2 0xC32 DUP2 PUSH2 0xB0C JUMP JUMPDEST PUSH2 0xC3B DUP5 PUSH2 0xB1E JUMP JUMPDEST DUP2 ADD PUSH1 0x20 DUP6 LT ISZERO PUSH2 0xC4A JUMPI DUP2 SWAP1 POP JUMPDEST PUSH2 0xC5E PUSH2 0xC56 DUP6 PUSH2 0xB1E JUMP JUMPDEST DUP4 ADD DUP3 PUSH2 0xBFE JUMP JUMPDEST POP POP JUMPDEST POP POP POP JUMP JUMPDEST PUSH0 DUP3 DUP3 SHR SWAP1 POP SWAP3 SWAP2 POP POP JUMP JUMPDEST PUSH0 PUSH2 0xC81 PUSH0 NOT DUP5 PUSH1 0x8 MUL PUSH2 0xC66 JUMP JUMPDEST NOT DUP1 DUP4 AND SWAP2 POP POP SWAP3 SWAP2 POP POP JUMP JUMPDEST PUSH0 PUSH2 0xC99 DUP4 DUP4 PUSH2 0xC72 JUMP JUMPDEST SWAP2 POP DUP3 PUSH1 0x2 MUL DUP3 OR SWAP1 POP SWAP3 SWAP2 POP POP JUMP JUMPDEST PUSH2 0xCB3 DUP4 DUP4 PUSH2 0xAD5 JUMP JUMPDEST PUSH8 0xFFFFFFFFFFFFFFFF DUP2 GT ISZERO PUSH2 0xCCC JUMPI PUSH2 0xCCB PUSH2 0xADF JUMP JUMPDEST JUMPDEST PUSH2 0xCD6 DUP3 SLOAD PUSH2 0xAA5 JUMP JUMPDEST PUSH2 0xCE1 DUP3 DUP3 DUP6 PUSH2 0xC20 JUMP JUMPDEST PUSH0 PUSH1 0x1F DUP4 GT PUSH1 0x1 DUP2 EQ PUSH2 0xD0E JUMPI PUSH0 DUP5 ISZERO PUSH2 0xCFC JUMPI DUP3 DUP8 ADD CALLDATALOAD SWAP1 POP JUMPDEST PUSH2 0xD06 DUP6 DUP3 PUSH2 0xC8E JUMP JUMPDEST DUP7 SSTORE POP PUSH2 0xD6D JUMP JUMPDEST PUSH1 0x1F NOT DUP5 AND PUSH2 0xD1C DUP7 PUSH2 0xB0C JUMP JUMPDEST PUSH0 JUMPDEST DUP3 DUP2 LT ISZERO PUSH2 0xD43 JUMPI DUP5 DUP10 ADD CALLDATALOAD DUP3 SSTORE PUSH1 0x1 DUP3 ADD SWAP2 POP PUSH1 0x20 DUP6 ADD SWAP5 POP PUSH1 0x20 DUP2 ADD SWAP1 POP PUSH2 0xD1E JUMP JUMPDEST DUP7 DUP4 LT ISZERO PUSH2 0xD60 JUMPI DUP5 DUP10 ADD CALLDATALOAD PUSH2 0xD5C PUSH1 0x1F DUP10 AND DUP3 PUSH2 0xC72 JUMP JUMPDEST DUP4 SSTORE POP JUMPDEST PUSH1 0x1 PUSH1 0x2 DUP9 MUL ADD DUP9 SSTORE POP POP POP JUMPDEST POP POP POP POP POP POP POP JUMP JUMPDEST PUSH0 DUP2 SLOAD SWAP1 POP PUSH2 0xD84 DUP2 PUSH2 0xAA5 JUMP JUMPDEST SWAP1 POP SWAP2 SWAP1 POP JUMP JUMPDEST DUP2 DUP2 SUB PUSH2 0xD99 JUMPI POP POP PUSH2 0xE6E JUMP JUMPDEST PUSH2 0xDA2 DUP3 PUSH2 0xD76 JUMP JUMPDEST PUSH8 0xFFFFFFFFFFFFFFFF DUP2 GT ISZERO PUSH2 0xDBB JUMPI PUSH2 0xDBA PUSH2 0xADF JUMP JUMPDEST JUMPDEST PUSH2 0xDC5 DUP3 SLOAD PUSH2 0xAA5 JUMP JUMPDEST PUSH2 0xDD0 DUP3 DUP3 DUP6 PUSH2 0xC20 JUMP JUMPDEST PUSH0 PUSH1 0x1F DUP4 GT PUSH1 0x1 DUP2 EQ PUSH2 0xDFD JUMPI PUSH0 DUP5 ISZERO PUSH2 0xDEB JUMPI DUP3 DUP8 ADD SLOAD SWAP1 POP JUMPDEST PUSH2 0xDF5 DUP6 DUP3 PUSH2 0xC8E JUMP JUMPDEST DUP7 SSTORE POP PUSH2 0xE67 JUMP JUMPDEST PUSH1 0x1F NOT DUP5 AND PUSH2 0xE0B DUP8 PUSH2 0xB0C JUMP JUMPDEST SWAP7 POP PUSH2 0xE16 DUP7 PUSH2 0xB0C JUMP JUMPDEST PUSH0 JUMPDEST DUP3 DUP2 LT ISZERO PUSH2 0xE3D JUMPI DUP5 DUP10 ADD SLOAD DUP3 SSTORE PUSH1 0x1 DUP3 ADD SWAP2 POP PUSH1 0x1 DUP6 ADD SWAP5 POP PUSH1 0x20 DUP2 ADD SWAP1 POP PUSH2 0xE18 JUMP JUMPDEST DUP7 DUP4 LT ISZERO PUSH2 0xE5A JUMPI DUP5 DUP10 ADD SLOAD PUSH2 0xE56 PUSH1 0x1F DUP10 AND DUP3 PUSH2 0xC72 JUMP JUMPDEST DUP4 SSTORE POP JUMPDEST PUSH1 0x1 PUSH1 0x2 DUP9 MUL ADD DUP9 SSTORE POP POP POP JUMPDEST POP POP POP POP POP POP JUMPDEST JUMP INVALID LOG2 PUSH5 0x6970667358 0x22 SLT KECCAK256 REVERT CALLVALUE SWAP16 0xFB 0xBC COINBASE GASPRICE PUSH14 0x4678004201943978452BC8D9879B STOP 0xDA SWAP13 CALL 0xD1 XOR SLT GASPRICE CALLDATASIZE 0x28 PUSH5 0x736F6C6343 STOP ADDMOD BYTE STOP CALLER "
				},
				"gasEstimates": {
					"creation": {
						"codeDepositCost": "750000",
						"executionCost": "784",
						"totalCost": "750784"
					},
					"external": {
						"addCar(string,string,string,uint256)": "infinite",
						"garage(address)": "infinite",
						"getMyCars()": "infinite",
						"getUserCars()": "infinite",
						"resetMyGarage()": "165",
						"updateCar(uint256)": "402",
						"userCars(uint256)": "infinite"
					}
				},
				"methodIdentifiers": {
					"addCar(string,string,string,uint256)": "d2d50bd8",
					"garage(address)": "472d5008",
					"getMyCars()": "341fa05d",
					"getUserCars()": "c27a399d",
					"resetMyGarage()": "6dcb7896",
					"updateCar(uint256)": "3263c536",
					"userCars(uint256)": "5631b41e"
				}
			},
			"storageLayout": {
				"storage": [
					{
						"astId": 6,
						"contract": "Project-6-Structs/GarageManager.sol:GarageManager",
						"label": "garage",
						"offset": 0,
						"slot": "0",
						"type": "t_mapping(t_address,t_struct(Car)19_storage)"
					},
					{
						"astId": 10,
						"contract": "Project-6-Structs/GarageManager.sol:GarageManager",
						"label": "userCars",
						"offset": 0,
						"slot": "1",
						"type": "t_array(t_struct(Car)19_storage)dyn_storage"
					}
				],
				"types": {
					"t_address": {
						"encoding": "inplace",
						"label": "address",
						"numberOfBytes": "20"
					},
					"t_array(t_struct(Car)19_storage)dyn_storage": {
						"base": "t_struct(Car)19_storage",
						"encoding": "dynamic_array",
						"label": "struct GarageManager.Car[]",
						"numberOfBytes": "32"
					},
					"t_mapping(t_address,t_struct(Car)19_storage)": {
						"encoding": "mapping",
						"key": "t_address",
						"label": "mapping(address => struct GarageManager.Car)",
						"numberOfBytes": "32",
						"value": "t_struct(Car)19_storage"
					},
					"t_string_storage": {
						"encoding": "bytes",
						"label": "string",
						"numberOfBytes": "32"
					},
					"t_struct(Car)19_storage": {
						"encoding": "inplace",
						"label": "struct GarageManager.Car",
						"members": [
							{
								"astId": 12,
								"contract": "Project-6-Structs/GarageManager.sol:GarageManager",
								"label": "make",
								"offset": 0,
								"slot": "0",
								"type": "t_string_storage"
							},
							{
								"astId": 14,
								"contract": "Project-6-Structs/GarageManager.sol:GarageManager",
								"label": "model",
								"offset": 0,
								"slot": "1",
								"type": "t_string_storage"
							},
							{
								"astId": 16,
								"contract": "Project-6-Structs/GarageManager.sol:GarageManager",
								"label": "color",
								"offset": 0,
								"slot": "2",
								"type": "t_string_storage"
							},
							{
								"astId": 18,
								"contract": "Project-6-Structs/GarageManager.sol:GarageManager",
								"label": "numberOfDoors",
								"offset": 0,
								"slot": "3",
								"type": "t_uint256"
							}
						],
						"numberOfBytes": "128"
					},
					"t_uint256": {
						"encoding": "inplace",
						"label": "uint256",
						"numberOfBytes": "32"
					}
				}
			},
			"userdoc": {
				"kind": "user",
				"methods": {},
				"version": 1
			}
		}
	}
}